:020000040800F2
:10000000B8420520515D0608255C0608275C0608F5
:10001000295C06082B5C06082D5C06080000000021
:10002000000000000000000000000000ED3705089F
:100030002F5C06080000000091370508315C0608B7
:100040008D5D0608915D0608955D0608995D0608B8
:100050009D5D0608A15D0608415C0608A55D0608D1
:10006000A95D0608AD5D0608B15D0608B55D060828
:10007000B95D0608BD5D0608C15D0608C55D0608D8
:10008000C95D0608CD5D0608D15D0608D55D060888
:10009000D95D0608DD5D0608E15D0608E55D060838
:1000A000E95D0608ED5D0608F15D0608F55D0608E8
:1000B000F95D0608FD5D0608015E0608055E060896
:1000C000095E06080D5E0608115E0608155E060844
:1000D000195E06081D5E0608215E0608255E0608F4
:1000E000295E06082D5E0608315E0608355E0608A4
:1000F000395E06083D5E0608415E0608455E060854
:10010000495E06084D5E0608515E0608555E060803
:10011000595E06085D5E0608AB130408615E0608BA
:10012000655E0608695E06086D5E0608715E060873
:10013000755E0608355C0608795E06087D5E060871
:10014000815E0608855E0608895E06088D5E0608E3
:10015000915E0608955E0608995E06089D5E060893
:10016000A15E0608A55E0608A95E0608AD5E060843
:10017000B15E0608B55E0608B95E0608000000001C
:10018000BD5E0608C15E0608C55E0608C95E0608B3
:10019000CD5E0608D15E0608D55E0608D95E060863
:1001A000DD5E0608E15E0608E55E0608E95E060813
:1001B000ED5E0608F15E0608F55E0608F95E0608C3
:1001C000FD5E0608015F0608055F0608095F060870
:1001D0000D5F0608115F0608155F0608195F06081F
:1001E0001D5F0608215F0608255F0608295F0608CF
:1001F0002D5F0608315F0608120001F3910100012E
:1002000052FF01F113AB412CF29C0001100380510D
:10021000060807B352880852900812980812060878
:1002200052A01052A81052B00812B80812080812B2
:10023000C40812100812D808120A081003FF4A0650
:1002400008E10412E50412F10412E90412ED0410AD
:1002500003034B06081F0412130412CF1012D50417
:1002600012170C121B0412D90C12DD0412070C1207
:100270000B04120F041087D89E05C15D9DBBCB07F0
:10028000D57C362A299A6217DD70305A0159913986
:10029000590EF7D8EC2F15310BC0FF6726336711C5
:1002A000155868874AB48EA78FF9640D2E0CDBA40D
:1002B0004FFABE1D48B54708C9BCF367E6096A3B5B
:1002C000A7CA8485AE67BB2BF894FE72F36E3CF12F
:1002D000361D5F3AF54FA5D182E6AD7F520E511F14
:1002E0006C3E2B8C68059B6BBD41FBABD9831F79A2
:1002F000217E1319CDE05B01040000751A032076FE
:1003000004D27504125C04F50FE610070204010123
:10031000841F0520D40492840412B53CF2129C4040
:100320001003C4480608D40412EC04100304490660
:1003300008180412280412440412600412840412DF
:100340009C0412BC0412EC0416044047244A942571
:10035000B025A452056540042BC000002CC00D52EE
:1003600006202101F0011C030400011003544D0676
:1003700008680412840412A80412C80412F00410BD
:1003800003144E06082C041254041274041AE40CCC
:1003900012F8041003145206083404125804128090
:1003A0000412A00412C404100394540608A40412F6
:1003B000BC0412DC0412F8041003105506083004C3
:1003C000474055FC25F825F425F025EC25E825E4E3
:1003D00025E025D825D425D025CC25C825C425C081
:1003E00025BC1003605706086C04128004129C049C
:1003F00012B80412CC0412E804F107F2F70D6E19DA
:100400000C13D050EC11041208D812240412440426
:1004100012640413BC565C110412E8041204601246
:100420002404124C0417A05A24110412B40412C458
:100430000412D40412E404125CE012700412880462
:1004400012A80412CC04136059B0110412800412D3
:10045000A00412C004169C4812B00412CC0412E08E
:100460000412FC04138813A412020425B821CA1D27
:10047000790310031C4F06083C041268041294040C
:1004800012D03C12EC04120C6C1228041A006A39C7
:100490006D2001240240041A402412580447704A77
:1004A0000C280101031C131300F82C13105B3442B9
:1004B0005B1812AA01312055172DE40343D1031014
:1004C0004008AB550108615801087B5D08C700C0B2
:1004D0003C3134100580000812873B56B11178E496
:0704E00001F400F97C02C0E9
:020000040801F1
:10000000062801D300207047DFF84C1C51F820006F
:10001000704710B500F18404206818B105F020FC89
:1000200000202060A06818B105F01AFC0020A06034
:10003000E06818B105F014FC0020E06010BD38B590
:1000400004460D46E06D08B106F0B2F9E56531BD34
:1000500010B50446606B08B107F033FCE06F08B1DF
:1000600008F0E0FB00F026F8A06D08F03AFE20460C
:10007000FFF7CFFF206A09F086F8206809F083F8BF
:10008000606809F080F8E06909F07DF8A06909F07E
:100090007AF8E06A09F077F8A06809F074F8E06887
:1000A00009F071F8206909F06EF82046BDE81040AB
:1000B00005F0D6BB00212046C1E77CB50600084606
:1000C0001146DFF8984B0FF24C050CD109F0C4F93A
:1000D000060005D0DFF8880B4FF49B7303F076F928
:1000E00040F2371076BD08F06BFB01000CD109F02F
:1000F000B3F9060005D00FF2480040F2411303F0B7
:1001000065F94FF4A17076BDF06FF16708F08AFBD6
:10011000002076BD496F544875625472616E7370E9
:100120006F72745F4D5154545F436F6D6D6F6E5FAE
:100130005365745265747279506F6C69637900000D
:100140004661696C6564206372656174696E6720DD
:100150006E657720726574727920636F6E74726F4A
:100160006C2068616E646C6500000000818F4FF642
:10017000FF734A1C9A42ACBF0121491C8187808FC2
:1001800070472DE9F24F82B0904609F083F95FEA9B
:10019000000ADFF8C84A0FF2E8090ED109F05CF94D
:1001A0005FEA000A06D00FF2702040F27D1300F0E3
:1001B0009DF8D0474FF4BF755EE008F01DFE5FEA82
:1001C000000B0ED109F048F95FEA000B06D00FF2E0
:1001D000782040F2851300F089F8D8474FF4C375B2
:1001E00047E000264FF4C67500E0761C81A2594610
:1001F00000F043F9002839D1032E12D10298594654
:1002000008F0E6FE0028F0D009F026F9844628B16F
:100210000FF28C0040F2931300F06FF84FF4CA75A0
:1002200024E0042EE1D1584608F0BEFF0628DCD3B6
:10023000584608F0B6FF074606220FF2880109F07B
:10024000CFFA0028D1D1B91D404608F09BFE60B11D
:1002500009F002F9844628B10FF2700040F2A113B0
:1002600000F04BF84FF4D17500E00025584608F037
:100270008AFF504609F0C5F92846BDE8FE8F000008
:1002800072657472696576655F6465766963655FDA
:100290006D6574686F645F7269645F696E666F0034
:1002A0004661696C656420535452494E475F636FE1
:1002B0006E6361745F776974685F535452494E4747
:1002C0002E0000003F247269643D00004661696CA5
:1002D000656420535452494E475F636F6E63617487
:1002E000206661696C65642E0000000001900120A9
:1002F00000904A462146002070470190012000905E
:100300004A462146002060472DE9F04F83B00C4655
:1003100015461E4609F0BEF85FEA000ADFF83C9970
:100320000FF2D40712D109F097F85FEA000A06D05D
:100330000FF2E40040F2BB1300F0A2F8D047002017
:100340004FF4DE793060286020704FE008F054FDF3
:100350005FEA000811D109F07FF8844630B10FF24E
:10036000E8004FF4E37300F08BF8E047002040F220
:10037000C71930602860207035E04FF4E779002716
:100380000FF2700B0FE000F07AFE0FF2DC0109F0C3
:1003900067FA28B9012020700020306028601FE033
:1003A000002020707F1C5A4600F066F8C8B9022F62
:1003B000E9D0032FF6D100F062FE0A22002109F0F5
:1003C0001FFB30600FF2A80200F056F830B900F0C1
:1003D00056FE0A22002109F013FB2860002020703D
:1003E000814600F05DFE504609F00BF94846BDE835
:1003F000FE8F00002F00000070617273655F6465FE
:10040000766963655F7477696E5F746F7069635F47
:10041000696E666F000000004661696C6564206368
:1004200072656174696E6720746F6B656E206672A9
:100430006F6D20646576696365207477696E2074DA
:100440006F7069632E0000004661696C656420610D
:100450006C6C6F636174696E67206E65772073746E
:1004600072696E67202E000050415443480000001E
:100470002F3F247269643D004146504609F052B84E
:100480000190012000903A46494600207047F8B597
:10049000044609F0DFFA012101220F283DD3002094
:1004A0000FF27C030FF2880552EA010631D00E00EC
:1004B00013D00D2810D20C282DD02E56A6F161078E
:1004C0001A2F275638BF203EA7F1610CBCF11A0F36
:1004D00038BF203FBE4200D00021160016D01028A1
:1004E00013D21E56A6F161071A2F0AD32756A7F179
:1004F000610CBCF11A0F06D2203F04E06AB1022061
:10050000F2BD203EF2E7BE4200D00022401C0F2880
:10051000CAD30029F2D00120F2BD0020F2BD0000B4
:1005200024696F746875622F6D6574686F647300F9
:1005300024696F746875622F7477696E000000001B
:100540007CB504460D461646684609F09EFA04F14D
:100550000C01684609F0B3FA286B324669460AF086
:1005600051FD73BD2DE9F04F054687B008460027C1
:1005700008F070FC064628460BF080FE96A40FF2A9
:100580005C2ADFF8D8B60FF2602898B102AB04AA53
:1005900005A90CF078FE58B108F05EFF040000F0E9
:1005A00012810FF260204FF4157302F09BFD06E1FB
:1005B000029840BB002E00F00A8128460BF072FE24
:1005C000030032D0002F0CBF5246224626E0009096
:1005D00004980FF2642150F82730059850F827202E
:1005E00000F018FA70B108F037FF844630B10FF20E
:1005F00050204FF4187300F010FAE0473046002600
:1006000008F0C1FD7F1C02988742D3D2002E60D033
:10061000401EB8420CBF50462046D8E70FF2442196
:10062000304608F039FD48B97F1C28460BF094FE8F
:10063000B8B1002F0CBF524622460AE008F00CFF6A
:10064000040055D00FF22C2040F2712300F0E5F9A0
:10065000B8E003460FF23C21304608F01DFD58B9C2
:100660007F1C28460FF23C290BF0CCFEA0B1002FD6
:100670000CBF5246224608E008F0EEFE040037D0D8
:100680000FF2302040F2812397E00090494654A3B6
:1006900000F0C0F948B97F1C28460BF0FEFEA0B15F
:1006A000002F0CBF5246224608E008F0D5FE040099
:1006B0001ED00FF21C2040F291237EE000904946AC
:1006C00048A300F0A7F980B97F1C28460BF0F9FE7B
:1006D00000287CD001684568002965D0002D64D0D1
:1006E000002F0CBF5246224608E008F0B5FE040079
:1006F00069D00FF2FC1040F2A1235EE000910FF2EE
:100700001423494600F086F990B92A460FF20C21CD
:100710000FF218207F1C08F0B8FB039088B908F08E
:100720009BFE04004FD00FF20C2040F2C22344E0A5
:1007300008F092FE040046D00FF2202040F2B623CB
:100740003BE00CF0EFFE05001ED008F02AFDD8B10A
:10075000002F00900FF22423494630460CBF52462A
:10076000224608F099FC68B108F076FE040005D036
:100770000FF210204FF4347300F056F93046002683
:1007800008F001FD28460BE008F066FE040005D0E5
:100790000FF2142040F2D92300F046F9304600262B
:1007A00008F0F1FC039810E08DB108F055FE04004C
:1007B00009D00FF2202040F2E62302F093FC4246DB
:1007C00059460020A0473046002608F0DCFC3046A1
:1007D00007B0BDE8F08F0000260000000000000018
:1007E000637400006365000061646450726F70653B
:1007F0007274696573546F754D7174744D6573735C
:10080000616765004661696C656420746F20676587
:10081000742074686520696E7465726E616C7320F3
:100820006F66207468652070726F706572747920CD
:100830006D61702E0000000025733D257325730047
:100840004661696C656420636F6E73747275746958
:100850006E672070726F706572747920737472693C
:100860006E672E002573252532342E6369643D257D
:10087000730000004661696C656420736574746977
:100880006E6720636F7272656C6174696F6E206948
:10089000642E00002573252532342E6D69643D25B4
:1008A000730000002573252532342E25733D2573F2
:1008B000000000004661696C6564207365747469AA
:1008C0006E67206D6573736167652069642E000033
:1008D0004661696C65642073657474696E67206332
:1008E0006F6E74656E7420747970652E0000000060
:1008F0004661696C65642073657474696E67206312
:100900006F6E74656E7420656E636F64696E672EBA
:1009100000000000646961676964000063726561DA
:1009200074696F6E74696D657574630025733D2518
:10093000730000004661696C656420636F6E7374B8
:1009400072756374696E6720646961676E6F737432
:10095000696320636F6E7465787400004661696C2A
:1009600065642073657474696E6720646961676E7D
:100970006F737469632069640000000064696167D3
:10098000637478004661696C65642073657474698A
:100990006E6720646961676E6F7374696320636F4B
:1009A0006E746578740000004661696C656420654A
:1009B0006E636F64696E6720646961676E6F7374DC
:1009C000696320636F6E746578742076616C7565F9
:1009D0000000000064696167696420616E642064DE
:1009E0006961676372656174696F6E74696D65755D
:1009F0007463206D75737420626520707265736511
:100A00006E742073696D756C74616E656F75736C4F
:100A1000792E0000304608F03FBB01900120009085
:100A200042465946002070470190012000904246FE
:100A30005946002020472DE9FC4705460E46286808
:100A400092461F46854C0FF2CC0808F0AAFB0146DF
:100A5000B0680068FFF786FD5FEA00090ED108F074
:100A6000FBFC5FEA000906D00FF2C40040F2F62357
:100A700000F08AF8C84740F2F72447E008F091FBFD
:100A800001460097308A534601220CF023FE0700EE
:100A90000ED108F0E1FC5FEA000A06D00FF27850B0
:100AA00040F2FE2300F070F8D04740F2FF242AE025
:100AB000A86D314608F01AF960B108F0CDFC844603
:100AC00028B10FF2745040F2053300F064F840F2A0
:100AD000063415E0686B394606F08DFF60B108F00A
:100AE000BBFC844628B10FF274004FF4437300F04E
:100AF00052F840F20D3403E070680024401C70602E
:100B000038460CF051FE484608F03DFB2046BDE853
:100B1000F68700007075626C6973685F6D7174743C
:100B20005F74656C656D657472795F6D73670000E5
:100B30004661696C656420616464696E67207072E7
:100B40006F7065727469657320746F206D71747451
:100B5000206D657373616765000000004661696C14
:100B6000656420617474656D7074696E6720746F5C
:100B7000207075626C697368206D717474206D6586
:100B80007373616765000000019001200090424688
:100B900021460020704701900120009042462146E6
:100BA000002060472DE9F04383B004460D46164609
:100BB00098460FF2B007FFF7D9FA8146304608F0A1
:100BC000F0FA024629460FF2BC00DFF8706C08F01C
:100BD0005CF905000CD108F03FFC040005D00FF2D1
:100BE000C4004FF4497300F06FF840F2253432E04E
:100BF00008F0D7FA01460A9800904346002248467A
:100C00000CF068FD5FEA00080CD108F025FC040038
:100C100005D00FF24C204FF44B7300F055F840F222
:100C20002D3415E0606B414606F0E5FE60B108F03A
:100C300013FC040005D00FF24C2040F2333300F0D7
:100C400043F84FF44D7400E0002440460CF0ACFD36
:100C5000284608F098FABEE0481C0320183D010819
:100C6000803401087075626C6973685F64657669C9
:100C700063655F6D6574686F645F6D6573736167ED
:100C80006500000024696F746875622F6D65746873
:100C90006F64732F7265732F25642F3F247269640C
:100CA0003D2573004661696C656420636F6E7374E3
:100CB00072756374696E67206D6573736167652013
:100CC000746F7069632E00000190012000903A4615
:100CD0003146002020472DE9F043064683B020200E
:100CE000DFF8584B04F061FC07000FF2F0050DD15E
:100CF00008F0B2FB5FEA000805D00FF2001040F2E6
:100D0000473302F089F94FF4527464E002F0B9FA03
:100D100078810020F8600120387500207860386004
:100D2000012038720020798938610FF2F40008F050
:100D3000ACF85FEA000810D108F08EFB5FEA00080B
:100D400005D00FF2F80040F2563302F065F938464C
:100D50004FF4567404F084FD3DE008F022FA0021BF
:100D6000002300910146788900220CF0B3FC5FEA71
:100D700000090FD108F070FB844628B10FF2E000A3
:100D800040F25F3300F090F8384640F2613404F0EE
:100D900067FD1EE0706B494606F02DFE78B108F045
:100DA0005BFB844628B10FF2DC0040F2673300F0B1
:100DB0007BF8384640F2693404F052FD06E007F152
:100DC000180106F1680008F07AFE002448460CF08D
:100DD000EBFC00F065F92046BDE8FE837075626C9F
:100DE0006973685F6465766963655F7477696E5F70
:100DF0006765745F6D657373616765004661696CF3
:100E0000656420616C6C6F636174696E67206465F2
:100E100076696365207477696E20646174612E0061
:100E200024696F746875622F7477696E2F47455413
:100E30002F3F247269643D25687500004661696C26
:100E4000656420636F6E737472756374696E672076
:100E50006765742050726F7020746F7069632E0024
:100E60004661696C656420636F6E73747275637438
:100E7000696E67206D717474206D65737361676549
:100E80002E0000004661696C6564207075626C69B3
:100E90007368696E6720746F206D71747420636C61
:100EA00069656E742E0000000190012000902A46B2
:100EB0002146002060472DE9F04383B004460F46E9
:100EC0001646FFF753F970810021317501460FF284
:100ED000CC00DFF8685907F0D8FF5FEA00080FF28E
:100EE000F0090ED108F0B8FA5FEA000806D00FF258
:100EF000FC004FF4607300F0C5F8C04740F2813544
:100F000049E0F8680CF07DFE00F0B8F8014678681A
:100F1000009070893B6800220CF0DCFB07000DD1CB
:100F200008F09AFA070006D00FF2EC0040F289337D
:100F300000F0A8F8B84740F28A352AE0A06D3146A3
:100F400007F0D4FE60B108F087FA844628B10FF2AA
:100F5000E8004FF4647300F09CF840F2913515E01E
:100F6000606B394606F047FD60B108F075FA8446BB
:100F700028B10FF2E80040F2973300F08AF84FF4FE
:100F8000667503E070680025401C706038460CF000
:100F90000BFC00F085F82846BDE8FE8324696F74D9
:100FA0006875622F7477696E2F50415443482F70D3
:100FB000726F706572746965732F7265706F727489
:100FC00065642F3F247269643D2568750000000048
:100FD0007075626C6973685F6465766963655F7478
:100FE00077696E5F6D657373616765004661696CF3
:100FF000656420636F6E737472756374696E6720C5
:101000007265706F727465642070726F7020746F97
:101010007069632E000000004661696C656420639E
:1010200072656174696E67206D717474206D65738B
:1010300073616765000000004661696C6564207239
:10104000657472696576696E67207469636B636F36
:10105000756E74657220696E666F00004661696C1A
:101060006564207075626C697368696E67206D7164
:101070007474206D657373616765000007464046B0
:1010800008F08FB80190012000904A4629460020C0
:1010900070470190012000904A4629460020604791
:1010A000404608F070B82DE9FC470025032B0446A4
:1010B000914662D3CE18042BDFF880A70FF2D00838
:1010C0002DD3F71E38462EA108F0CAFB88B9494631
:1010D00020460BF01CF910B308F0BEF9844628B185
:1010E0000FF2D0004FF4717300F0EBF840F2C53509
:1010F00015E024A1384608F0B3FB80B949462046E4
:101100000BF0E4F858B108F0A7F9844628B10FF2C3
:10111000E0004FF4737300F0D4F840F2CD35B61E02
:10112000304619A108F09CFB88B9494620460BF0CF
:1011300030F910B308F090F9040005D00FF2F00078
:1011400040F2D73300F0B6F84FF4767515E00FA1F2
:10115000304608F085FB80B9494620460BF066F919
:1011600058B108F079F9040005D00FF208104FF4D7
:10117000787300F09FF840F2E1352846BDE8F68725
:101180006D69640063696400637400006365000056
:101190007365744D7174744D6573736167655072D6
:1011A0006F70657274794966506F737369626C65AC
:1011B000000000004661696C656420746F207365EF
:1011C0007420494F544855425F4D4553534147455C
:1011D0005F48414E444C4520276D657373616765D8
:1011E0004964272070726F70657274792E00000058
:1011F0004661696C656420746F2073657420494F83
:10120000544855425F4D4553534147455F48414E11
:10121000444C452027636F7272656C6174696F6E10
:101220004964272070726F70657274792E00000017
:101230004661696C656420746F2073657420494F42
:10124000544855425F4D4553534147455F48414ED1
:10125000444C452027637573746F6D436F6E7465DE
:101260006E7454797065272070726F70657274792E
:101270002E0000004661696C656420746F20736500
:101280007420494F544855425F4D4553534147459B
:101290005F48414E444C452027636F6E74656E7401
:1012A000456E636F64696E67272070726F70657238
:1012B00074792E0001900120009042465146002092
:1012C000204701900120009042465146002060478F
:1012D0002DE9F14F88B0084607F0BCFD0690DFF815
:1012E0005C850FF2F41968B908F0B6F85FEA000AF5
:1012F00005D00FF2FC1040F2EF3300F08FF94FF4FD
:101300007C7AE3E008F0AEF80028059000F0CE808B
:1013100008980AF0B3FF079068B908F09DF85FEAF3
:10132000000A05D00FF2F01040F2FA3300F076F91F
:1013300040F2FB3AB6E007F05FFD049068B908F0B0
:101340008BF85FEA000A05D00FF2FC1040F202436E
:1013500000F064F940F2034AA4E04FF0000A1EE0F6
:1013600000F057F900F061F9009900202B463A4649
:10137000785408983146FFF796FE60B108F06CF893
:101380005FEA000A05D00FF2E01040F22F4300F0B0
:1013900045F94FF4866A01F076FD02F037F90499B9
:1013A00005984CA208F0BEF85AEA000077D10498DC
:1013B00007F0F7FE834608F04DFB0746BBF1000F30
:1013C00018BF002F6BD00024DFF83C0D00EBC400E9
:1013D0004268DFF8340D50F83410584608F000FA2F
:1013E000C0B1641C0A2CEFD35C4694F900000100E4
:1013F000D5D0BAF1000FD2D13D284DD100F0FEF882
:1014000000F001F90746002E18BF002F28D140F246
:101410004A4AC0E75C4694F900000100BFD0BAF127
:10142000000FBCD13D2818D100F0E8F800F0EBF82F
:101430000746002E18BF002F92D108F00DF85FEA82
:10144000000A07D003970FF24010029640F22243A1
:1014500000F0E4F840F2234A9DE7641CDBD19EE7EC
:1014600000F0D7F800F0E1F8009900203A467854EF
:10147000079831460BF08AFE00288CD007F0ECFF6D
:101480005FEA000A05D00FF2381040F2564300F030
:10149000C5F840F2574A7EE7641CA6D17FE704985E
:1014A00007F071FE059808F0ACF80CE007F0D4FFE7
:1014B0005FEA000A05D00FF2201040F26B4300F003
:1014C000ADF840F26C4A069807F05DFE504609B050
:1014D000BDE8F08F26000000657874726163744D7A
:1014E00071747450726F7065727469657300000076
:1014F0004661696C75726520636F6E737472756393
:1015000074696E6720737472696E6720746F706996
:1015100063206E616D652E004661696C7572652091
:10152000746F20726574726965766520496F5448DE
:1015300075624D6573736167655F70726F70657218
:10154000746965732E0000004661696C75726520D0
:10155000746F20616C6C6F636174652053545249E1
:101560004E475F6E65772E00556E61626C65207424
:101570006F20736574206D65737361676520707289
:101580006F706572747900004661696C65642061F2
:101590006C6C6F636174696E672070726F706572D6
:1015A0007479206E616D65202825702920616E6434
:1015B0002F6F722076616C756520282570290000D8
:1015C0004D61705F4164644F725570646174652051
:1015D0006661696C65642E00556E61626C6520748D
:1015E0006F2063726561746520546F6B656E697AF4
:1015F0006572206F626A6563742E0000A4EB0B05B0
:10160000681C03F0D2BF0646781B0090401C03F014
:10161000CCBF2A46594630460CF09EBB01900120B3
:1016200000904A464146002050470020611C7055FA
:10163000009A38460CF090BB2DE9F0475FEA000AAB
:101640000C4686B018BF002C30D00CF0D2F8070042
:101650007A4D0FF2EC1908D107F0FEFE040025D0F8
:101660000FF2F81040F27C43CAE0FEF710FF0128A9
:101670003DD103AB04AA02A93846FEF745FE40B1AE
:1016800007F0EAFE040011D00FF2F81040F28A438E
:10169000B6E050460CF039F905469DF8080030B127
:1016A0006B682A68206B012109F01EFDC3E0A06E63
:1016B00000E0006804F168018842F7D0A0F1180644
:1016C000049972899142F4D108F0E9F996F914105D
:1016D000206B012905D16B682A68002109F004FDFF
:1016E00003E0039AF16809F025FD3046A1E00228E5
:1016F0005AD107F081FB5FEA000808D107F0ACFE81
:101700000400D3D00FF2A01040F2B54378E00420DB
:1017100003F04BFF06000AD107F09EFE040040D004
:101720000FF2B41040F2BC4300F076F939E007F054
:1017300063FB020032600AD107F08EFE04002ED057
:101740000FF2C41040F2C34300F066F927E04146AF
:101750003846FEF716FD40B107F07EFE04001BD0B0
:101760000FF2CC104FF4996314E050460CF0CDF812
:10177000FFF784FC014600967B683A68206B09F00D
:101780006BFC70B107F068FE040005D00FF2C410C6
:1017900040F2D24300F040F9306807F0F4FC01F069
:1017A00072FBFFF77DFC46E050460CF0AEF8416856
:1017B00000680AF0D5FB060008D107F04DFE0400D2
:1017C00039D00FF2C01040F2E14319E03946FFF77B
:1017D0007FFD40B107F040FE04002CD00FF2D41082
:1017E0004FF49D630CE0082003F0DFFE07000AD1F0
:1017F00007F032FE04001ED00FF2DC1040F2EF437F
:1018000000F00AF917E03E6000207860206B39464E
:1018100009F0BEFC78B907F01FFE040005D00FF2F6
:10182000C81040F2F94300F0F7F830460AF0A7FE7E
:10183000384604F015F806B0BDE8F087183D0108F9
:101840006D7174745F6E6F74696669636174696FDA
:101850006E5F63616C6C6261636B00004661696C12
:101860007572653A204E554C4C20746F7069632038
:101870006E616D6520656E636F756E74657265640B
:10188000000000004661696C7572653A20706172F3
:1018900073696E672064657669636520746F70692B
:1018A0006320696E666F00004661696C7572653A07
:1018B00020616C6C6F636174696E67206D6574681C
:1018C0006F645F6E616D6520737472696E672076F8
:1018D000616C7565000000004661696C7572653A5F
:1018E00020616C6C6F636174696E67204445564972
:1018F00043455F4D4554484F445F494E464F206F26
:10190000626A6563740000004661696C75726520E7
:10191000636F6E737472756374696E67207265713C
:10192000756573745F696420737472696E67000013
:101930004661696C7572653A207265747269657684
:10194000652064657669636520746F7069632069DA
:101950006E666F004661696C7572653A20496F5416
:10196000487562436C69656E745F4C4C5F44657684
:101970006963654D6574686F64436F6D706C657401
:10198000650000004661696C7572653A20496F74A4
:10199000487562204D657373616765206372656188
:1019A00074696F6E20686173206661696C65642E6E
:1019B000000000006661696C75726520657874725C
:1019C000616374696E67206D7174742070726F70DA
:1019D0006572746965732E006D616C6C6F6320664F
:1019E00061696C6564000000496F54487562436C1E
:1019F00069656E745F4C4C5F4D65737361676543D9
:101A0000616C6C6261636B2072657475726E656483
:101A10002066616C736500000190012000904A46C9
:101A200029460020204700002DE9F0435FEA030922
:101A300085B0174612D009F1300609F17004DFF8BD
:101A4000E45C0FF2881861B3012918BF042906D09D
:101A5000052900F08A80082900F0B180B3E0BFB109
:101A6000606809F174018842F8D0A0F11404398843
:101A7000228A0568914209D108F011F8A068002275
:101A80004946FEF75DFD204603F0EAFE2846E8E7FA
:101A900007F0E2FC0400E1D00FF2541040F22753AB
:101AA00089E0002F58D097F90100010010D12020C3
:101AB00020700120B0740220F073E06806F069FE27
:101AC000306805B006220021BDE8F04309F0E3BB11
:101AD000042803D100200222B07402E0052805D1B9
:101AE00001220121306809F0D6FB03E0012804BF80
:101AF0000020B07407F0B0FC814648B397F90100AC
:101B0000052816D8DFE800F0120F0C0906030FF2C3
:101B1000201110E00FF228110DE00FF23C110AE045
:101B20000FF2481107E00FF2501104E00FF26011BC
:101B300001E00FF2681102900FF26810019001208D
:101B4000039140F24B530090424629460020C8477B
:101B50000320F073E12035E007F07EFC040032D072
:101B60000FF2641040F2525325E0E7B100260FF265
:101B70008C1913E07868805D80280ED107F06CFC2A
:101B8000844650B10120029600904FF4AC63CDF82A
:101B90000490424629460020E047761CB8688642F9
:101BA000E8D390200EE007F057FC04000BD00FF2B2
:101BB00078104FF4AD6302F00CF8A04703E000206A
:101BC000F073E020207005B0BDE8F0836D7174748F
:101BD0005F6F7065726174696F6E5F636F6D706C5B
:101BE0006574655F63616C6C6261636B000000002B
:101BF0004661696C7572653A204D5154545F434C8F
:101C000049454E545F4F4E5F5055424C4953485FD3
:101C100041434B207075626C6973685F61636B2030
:101C2000737472756374757265204E554C4C2E003A
:101C30004E6F7420417574686F72697A6564000034
:101C400042616420557365726E616D652F506173DA
:101C500073776F7264000000536572766572205569
:101C60006E617661696C61626C6500004964205246
:101C7000656A656374656400556E6163636570745D
:101C800061626C652056657273696F6E00000000BA
:101C9000416363657074656400000000556E6B6E8F
:101CA0006F776E00436F6E6E656374696F6E204E62
:101CB0006F742041636365707465643A20307825E1
:101CC000783A2025730000004D5154545F434C492D
:101CD000454E545F4F4E5F434F4E4E41434B204362
:101CE0004F4E4E41434B20706172616D6574657259
:101CF000206973204E554C4C2E00000053756273C2
:101D000063726962652064656C69766572792066C4
:101D100061696C757265206F66207375627363729A
:101D200069626520257A75004661696C7572653A4D
:101D3000204D5154545F434C49454E545F4F4E5FC4
:101D40005355425343524942455F41434B205355FB
:101D5000425343524942455F41434B207061726197
:101D60006D65746572206973204E554C4C2E0000D1
:101D700038B5044604F13405287B28B968680CF0AE
:101D800026F90146FEF797F9286800F00AF8686816
:101D90000CF044F800206860E872E02084F87000DD
:101DA00031BD0022002105F089BF00002DE9FE436E
:101DB00014000F46DFF86C690FF2CC0857D0251DD0
:101DC000052F2ED8DFE807F0031C1C050B1C04228E
:101DD00000E00522E86A012109F05DFA21E007F040
:101DE0003BFB844640B10FF2B40040F2A65301F031
:101DF00079F900F069FAE0472046FFF7B9FF10E0F3
:101E000007F02AFB814660B13846FEF7F9F80290E8
:101E10000FF2C80001F066F940F2AE5300F054FA38
:101E2000C84704F13F0090F9001003291CBF0021AE
:101E30000170E12184F8701000218170286818B1C8
:101E4000286940F004002861686818B1286940F0EA
:101E500001002861A86818B1286940F002002861D3
:101E6000E86870B1286940F01000286109E007F0C7
:101E7000F3FA040005D00FF2980040F2CB5300F0C3
:101E800027FABDE8F78300006D7174745F657272A4
:101E90006F725F63616C6C6261636B004D7174742F
:101EA0002050696E6720526573706F6E736520777E
:101EB0006173206E6F7420656E636F756E746572EA
:101EC00065642E20205265636F6E6E656374696E63
:101ED00067206465766963652E2E2E00494E544551
:101EE000524E414C204552524F523A20756E657801
:101EF000706563746564206572726F722076616CC0
:101F000075652072656365697665642025730000D8
:101F10004661696C7572653A206D717474206361F5
:101F20006C6C6564206261636B2077697468206EF5
:101F3000756C6C20636F6E746578742E0000000001
:101F40002DE9F04304468BB0251D2969002961D095
:101F50002868002700260DF1080848B1490707D571
:101F600007F01FF90290012088F8040004270126D9
:101F7000686850B1297CC90707D507F012F900F04D
:101F800085F847F00107761C0871A86850B1297CD4
:101F9000890707D507F005F900F078F847F0020740
:101FA000761C0871E86850B1297CC90607D507F08E
:101FB000F8F800F06BF847F01007761C0871DFF8AE
:101FC00064870FF25C09CEB12046FEF7CFF80146D8
:101FD000286B334602AA05F09DFD40B107F03CFA9C
:101FE000050015D00FF2500040F2F9530EE02869B9
:101FF000B8432861802084F8700009E007F02CFACB
:10200000050005D00FF2600040F2056300F092FD7C
:10201000802000E0302084F870000BB0BDE8F08331
:10202000537562736372696265546F4D7174745055
:10203000726F746F636F6C004661696C7572653A9C
:10204000206D7174745F636C69656E745F73756223
:102050007363726962652072657475726E6564205F
:102060006572726F722E00004661696C7572653A16
:10207000207375627363726962655F746F70696300
:1020800020697320656D7074792E000002A948F8EC
:10209000360001EBC60100207047FEB507460C462E
:1020A0000AF0E6F8DFF87C560FF26006C0B9224667
:1020B00002A938460AF08CF880B107F0CDF9070084
:1020C00009D00FF260004FF4C36301F00BF8324601
:1020D00029460020B8470020029020600298FEBDEB
:1020E0000128F8D138460AF0B9F8029040B907F053
:1020F000B3F90700EFD00FF25C0040F22263E4E78F
:1021000007F0A8FCE9E7000020190320526574726B
:10211000696576654D6573736167655061796C6F4C
:10212000616400004661696C757265207265737543
:102130006C742066726F6D20496F544875624D65EE
:1021400073736167655F4765744279746541727244
:10215000617900004661696C7572652072657375FE
:102160006C742066726F6D20496F544875624D65BE
:1021700073736167655F476574537472696E670056
:102180002DE9F041044686B004F11805286A0028BC
:1021900053D1286807F005F8E96E02912A6F03927F
:1021A0006A6F0492AA6F059201B102A92A69DFF849
:1021B00074650FF290080FF2AC079047286270B96F
:1021C00007F04AF9040007D001970120009040F27F
:1021D000476300F079F8A0474FF4C9602EE0A86E7D
:1021E0000CF048F9032813D1296AA86E0CF001F904
:1021F00070B107F031F9040007D001970120009079
:102200004FF4CA6300F060F8A04740F2516015E057
:10221000686C90B1296A04F086F860B107F01CF987
:10222000040005D00FF2680040F2636300F050F83C
:1022300040F2646002E0FDF73DFF002006B0BDE81B
:10224000F08100004765745472616E73706F727430
:1022500050726F766964657249664E656365737323
:1022600061727900556E61626C6520746F206372D3
:102270006561746520746865206C6F776572206C89
:102280006576656C20544C53206C617965722E0024
:102290004661696C65642066656564696E67206582
:1022A00078697374696E67206F7074696F6E7320DC
:1022B000746F206E657720544C5320696E7374617F
:1022C0006E63652E000000004246314600207047D4
:1022D00001900120009042463146002020472DE920
:1022E000F04782468AB00AF118070026B86E00242B
:1022F000DFF830840FF294190CF0BCF8012818BFF5
:10230000052816D1B86806F04CFF0146BA6CB86EC5
:102310000CF0C6F8060036D107F09EF8040005D090
:102320000FF27C1040F2A56300F06EFD40F2A6644F
:10233000A7E0042827D1B86E0CF085F9022805D152
:10234000B8690022012140F2AF6405E038B9B869EC
:102350000222012140F2B46408F09DFF91E0B86EC2
:10236000002200210CF09CF806000CD107F074F854
:10237000040005D00FF2681040F2BB6300F044FD8A
:1023800040F2BC647DE09AF89400002838D1B86926
:1023900002AA0FF2681109F06FF802281CBF029818
:1023A000002808D10FF264120FF268110FF27410B6
:1023B00006F06BFD01E00BF0B5F805000AD107F05F
:1023C0004BF88446E0B10FF2681040F2D76300F09A
:1023D000E7F815E07869294606F0FAFD50B107F0F4
:1023E0003BF8844648B10FF26C1040F2DD6300F018
:1023F000D7F802E001208AF89400284606F0C3FED0
:1024000003A81C210CF062FB786806F0CAFE03905A
:102410000594786906F0C5FE069006B10796B88D5A
:102420008DF82340ADF8200001208DF8240050469F
:10243000FFF7A6FE00BB396AF86903AA05F055FA52
:10244000A0B107F009F804000DD0386806F0A9FE25
:1024500002900FF2281000F045FE4FF4DF634A4669
:1024600041460020A04740F2F96407E0386C0AF1C9
:10247000480106F03BFC01E040F203740EB100F0AD
:1024800002FD20460AB0BDE8F087000053656E6487
:102490004D717474436F6E6E6563744D73670000A5
:1024A0006661696C7572652067657474696E672012
:1024B00073617320746F6B656E2066726F6D204957
:1024C0006F54487562436C69656E745F41757468DA
:1024D0005F4765745F536173546F6B656E2E0000C8
:1024E0006661696C7572652067657474696E6720D2
:1024F00073617320546F6B656E2E000070726F6491
:102500007563745F696E666F00000000312E312EB6
:1025100033310000696F74687562636C69656E744D
:1025200000000000257325253246257300000000B9
:102530004661696C6564206F627461696E696E677B
:10254000207468652070726F6475637420696E66AC
:102550006F0000004661696C656420636F6E6361A3
:1025600074656E6174696E67207468652070726F3F
:102570006475637420696E666F0000006661696C43
:1025800075726520636F6E6E656374696E67207423
:102590006F20616464726573732025732E000000E0
:1025A0000190012000904A4641460020604700000B
:1025B0002DE9FF41804608F13F067078002400288D
:1025C00028D1012008F170058DF80800305708F176
:1025D000480700BBF07800281CD0E86802A906F084
:1025E0003AF910B99DF90800A8B9386908F1500105
:1025F00006F07CFB18B178684FF4E46443E0404691
:10260000FFF76DFE18B1786840F227743BE00120B7
:1026100030707C6083E0305701282AD1386903A9E3
:10262000404E0FF2041506F061FB68B106F014FF8E
:10263000040006D00FF2081040F2377300F0B2F831
:10264000A0474FF4E7646AE001F0E6F8B8F84610F6
:10265000814264D206F000FF070006D00FF2181086
:1026600040F23C7300F09EF8B8474046FFF780FB0D
:1026700055E0022853D13869694606F037FB28B186
:1026800078684FF4E964401C786048E00098396845
:1026900097ED061AB8EE411B401A4FF47A71B0FB61
:1026A000F1F000EE100A9FEDB43BB8EE400B21EEC6
:1026B000031BB4EE401BF1EE10FA30D508F104070D
:1026C000786B0BF084FC01464046FDF7B8FC386B94
:1026D000FFF767FB786B0BF0A1FBF86A7C630022C5
:1026E000012108F0D8FD3470E2202870B4703868F9
:1026F00018B1386940F004003861786818B1386959
:1027000040F001003861B86818B1386940F0020043
:102710003861F86818B1386940F01000386101F08C
:1027200054BA0000183D0108496E697469616C690A
:102730007A65436F6E6E656374696F6E00000000AA
:102740006661696C656420766572696679696E6731
:10275000204D5154545F434C49454E545F535441AE
:102760005455535F434F4E4E454354494E47207492
:10277000696D656F757400006D7174745F636C6969
:10278000656E742074696D6564206F75742077615F
:102790006974696E6720666F7220434F4E4E4143E5
:1027A0004B0000000190012000902A463146002095
:1027B00070472DE9F04F054683B08A46934698202E
:1027C000DFF8A48902F0F1FE04000FF2B4190AD177
:1027D00006F042FE050005D00FF2C41040F27A73F5
:1027E00000F0A8F9C4E0982104F14C060CF06EF951
:1027F00006F05EFAF06040B906F02EFE05000FD03C
:102800000FF2DC5040F281736AE00021052005F0F0
:10281000D7FF04F17007F86040B906F01DFE05000F
:102820006DD00FF2C0104FF4F16359E0686806F004
:1028300011FBE06140B906F00FFE05005FD00FF21A
:10284000CC1040F28E734BE06B686A6929690FF215
:10285000DC1006F01AFB206240B906F0FDFD050011
:102860004DD00FF2DC1040F2947339E069680FF23A
:10287000F41006F00AFB206040B906F0EDFD0500FB
:102880003DD00FF2FC1040F29C7329E00094DFF879
:10289000DC382246DFF8D818DFF8D80804F0AFFF9C
:1028A000606340B906F0D8FD050028D00FF2FC1097
:1028B00040F2A57314E0A86930B96A6929690FF27A
:1028C000102006F0E2FA01E006F0C4FAA06150B967
:1028D00006F0C2FD050012D00FF2FC1040F2B773F3
:1028E00000F028F90BE00FF2142000906B686A6981
:1028F00029690FF2142006F0C8FAE06220B92046D8
:102900000024FDF7A5FB33E004F1740007F0BDF8E7
:1029100004F1680007F0B9F804F13E00002181706D
:1029200001704170C17001210171A18700212163F3
:10293000A16361621021C6F818A03970F021C1802E
:102940001E2101810020306070606060A060E06046
:1029500060612061707230720CF0BBF80CF0BEF850
:10296000C7F810B0002084F894004FF461607061E3
:102970002046BDE8FE8F00009A9999999999E93F00
:10298000496E697469616C697A655472616E7370BD
:102990006F727448616E646C65446174610000001C
:1029A000436F756C64206E6F74206372656174652B
:1029B000204D515454207472616E73706F72742084
:1029C00073746174652E204D656D6F727920616C32
:1029D0006C6F636174696F6E206661696C65642EEB
:1029E000000000004661696C656420637265617473
:1029F000696E672064656661756C742072657472B7
:102A00007920636F6E74726F6C0000006661696C90
:102A100075726520636F6E737472756374696E6727
:102A2000206465766963655F69642E0025732E25D1
:102A3000732F646576696365732F2573000000004A
:102A40006661696C75726520636F6E73747275630D
:102A500074696E6720646576696365735061746834
:102A60002E000000646576696365732F25732F6DF2
:102A7000657373616765732F6576656E74732F0078
:102A8000436F756C64206E6F74206372656174654A
:102A900020746F7069635F4D7174744576656E74F0
:102AA00020666F72204D5154540000006661696CBD
:102AB00075726520696E697469616C697A696E679F
:102AC000206D71747420636C69656E742E00000053
:102AD00025732E25730000006661696C7572652090
:102AE000636F6E737472756374696E6720686F7359
:102AF0007420616464726573732E00003230313665
:102B00002D31312D3134000025732E25732F25737F
:102B10002F6170692D76657273696F6E3D2573261E
:102B2000446576696365436C69656E745479706554
:102B30003D0000000190012000904A4641460020DF
:102B400028472DE9F04383B00C46DFF81C860FF2CE
:102B5000141908B1210008D106F07EFC040070D0E1
:102B60000FF2241040F2EF7369E0876847B906F06E
:102B700073FC040065D00FF23C1040F2F5735EE088
:102B80000568002D1CBF296800290DD0696859B15E
:102B9000AA68002A1CBFEA68002A05D12A69002A0F
:102BA0001CBF6A69002A08D106F056FC040048D010
:102BB0000FF2301040F6030341E0466846B906F0D4
:102BC0004BFC04003DD00FF2641040F6090336E0E0
:102BD000084606F03FFF812800D240B906F03CFCD1
:102BE00004002ED00FF2701040F60F0327E0A86803
:102BF00058B106F02FFF40B906F02EFC040020D09B
:102C00000FF2881040F6150319E0E86858B106F095
:102C100021FF40B906F020FC040012D00FF29410FE
:102C200040F61B030BE0286906F014FF58B906F0C4
:102C300013FC040005D00FF2A81040F6210300F0A9
:102C4000E3F800200CE03A4631462846FFF7B1FD94
:102C500030B100F1280100220C60CA654A668A661C
:102C6000BDE8FE83496F544875625472616E73709B
:102C70006F72745F4D5154545F436F6D6D6F6E5F33
:102C80004372656174650000496E76616C69642009
:102C9000417267756D656E743A20436F6E66696741
:102CA00020506172616D65746572206973204E55A4
:102CB0004C4C2E00496E76616C69642041726775D8
:102CC0006D656E743A20617574685F6D6F64756CC4
:102CD000655F68616E646C65206973204E554C4C6D
:102CE00029000000496E76616C6964204172677545
:102CF0006D656E743A207570706572436F6E6669AB
:102D0000672073747275637475726520636F6E7477
:102D100061696E7320616E20696E76616C696420F2
:102D2000706172616D65746572000000496E766154
:102D30006C696420417267756D656E743A207761C5
:102D40006974696E67546F53656E64206973204EB1
:102D5000554C4C2900000000496E76616C69642076
:102D6000417267756D656E743A2044657669636576
:102D70004964206973206F6620616E20696E7661F8
:102D80006C69642073697A6500000000496E7661A1
:102D90006C696420417267756D656E743A20646574
:102DA000766963654B657920697320656D70747908
:102DB00000000000496E76616C696420417267759D
:102DC0006D656E743A20646576696365536173540A
:102DD0006F6B656E20697320656D707479000000FB
:102DE000496E76616C696420417267756D656E74B9
:102DF0003A20696F744875624E616D652069732071
:102E0000656D7074790000000190012000904A46C1
:102E100041460020204770B5040033D004F130054E
:102E2000012028742046FEF7A3FF0CE004F1740093
:102E300006F03FFEA0F114060122B0682146FDF71E
:102E40007FFB00F020F804F1740006F021FE00285A
:102E5000ECD004F1680006F01BFE70B904F16800C4
:102E600006F027FEA0F118062868F1684FF4CC722E
:102E700008F060F900F007F8EBE72046BDE8704085
:102E8000FDF7E6B870BD304602F0EABC2DE9FC4122
:102E90005FEA0008B44C0FF2AC050DD106F0DCFA85
:102EA0005FEA000805D00FF2D85040F65B0300F04F
:102EB000B3F840F65C0642E008F108073868B8B994
:102EC0000FF2B40005F0C6FF386068B906F0C4FA26
:102ED0005FEA000805D00FF2B40040F6670300F087
:102EE0009BF840F668062AE0F86840F00100F860B8
:102EF00078680026B8B90FF2C80005F0ABFF78601B
:102F000068B906F0A9FA5FEA000805D00FF2D80008
:102F100040F67B0300F080F840F67C060FE0F8688E
:102F200040F00200F86098F87000202818BF1028C0
:102F300005D0E0281EBFE128802088F870003046C8
:102F4000BDE8F681496F544875625472616E7370C2
:102F50006F72745F4D5154545F436F6D6D6F6E5F50
:102F60005375627363726962655F44657669636510
:102F70005477696E0000000024696F746875622FD1
:102F80007477696E2F7265732F2300004661696C38
:102F90007572653A20756E61626C6520636F6E7341
:102FA0007472756374696E67207265706F72746590
:102FB0006420737461746520746F7069630000002D
:102FC00024696F746875622F7477696E2F5041544D
:102FD00043482F70726F706572746965732F6465F2
:102FE00073697265642F23004661696C7572653A76
:102FF00020756E61626C6520636F6E7374727563A9
:1030000074696E67206E6F74696679207374617479
:103010006520746F706963000190012000902A465A
:103020002146002040471CB5040016D0A06840B1DE
:103030006069400840006061A06806F0A4F80020C4
:10304000A060E068C0B1606920F002006061E068E3
:1030500006F099F80020E06013BD06F0FDF90400C9
:103060000AD00FF2180040F6AA0300F03BF80FF266
:10307000400200F008FCA04713BD0000496E7661D5
:103080006C696420617267756D656E7420746F2061
:10309000756E737562736372696265202868616E0C
:1030A000646C65206973204E554C4C292E0000003D
:1030B000496F544875625472616E73706F72745FB9
:1030C0004D5154545F436F6D6D6F6E5F556E7375E8
:1030D000627363726962655F44657669636554779C
:1030E000696E00000190012000907047F0B5060065
:1030F00083B01D4C0FF280050CD106F0ADF906002F
:1031000005D00FF27C3040F6B60300F05FF940F6D0
:10311000B700FEBD06F110073868B0B90FF6E03011
:1031200005F098FE386060B906F096F9060005D003
:103130000FF2780040F6C20300F048F940F6C300F1
:10314000FEBD786840F01000786096F8701000209E
:10315000202918BF102905D0E0291EBFE1298021B0
:1031600086F87010FEBD0000183D0108AD1D010875
:10317000291A010839160108496F544875625472BA
:10318000616E73706F72745F4D5154545F436F6D15
:103190006D6F6E5F5375627363726962655F4465DC
:1031A000766963654D6574686F6400004661696C9B
:1031B0007572653A20756E61626C6520636F6E731F
:1031C0007472756374696E672064657669636520DF
:1031D0006D6574686F64207375627363726962658C
:1031E00020746F7069630000FEB506000FF6283486
:1031F0000FF254051CD0306920B305F0D2FF00F067
:103200003FF800F0B5F948B106F026F9070005D0FF
:103210000FF20C3040F6F20300F0B0F9306905F01F
:10322000B2FF00203061706920F010007061F7BDBE
:1032300006F012F9060005D00FF20C3040F6FD033F
:1032400000F0C4F8F7BD0000496F5448756254722D
:10325000616E73706F72745F4D5154545F436F6D44
:103260006D6F6E5F556E7375627363726962655FD1
:103270004465766963654D6574686F64000000009D
:1032800002903046FCF772BFF0B583B00E460FF6E1
:1032900088240FF2740540B366B906F0DDF8060025
:1032A00005D00FF2980040F60B1300F08FF840F6AF
:1032B0000C1726E00093134632680899FDF772FC5C
:1032C00060B106F0C9F8070005D00FF2980040F68B
:1032D000131300F053F940F6141700E0002730688C
:1032E00005F051FFFFF7CFFD0BE006F0B5F8060043
:1032F00040F6211705D00FF2980040F6221300F097
:1033000065F83846FEBD0000496F54487562547236
:10331000616E73706F72745F4D5154545F436F6D83
:103320006D6F6E5F4465766963654D6574686F6443
:103330005F526573706F6E73650000004661696C63
:103340007572653A204445564943455F4D4554489A
:103350004F445F494E464F20776173204E554C4C89
:10336000000000004661696C7572653A20707562F4
:103370006C697368696E6720646576696365206D42
:103380006574686F6420726573706F6E736500009A
:103390004661696C7572653A20696E76616C696424
:1033A00020494F544855425F4445564943455F487C
:1033B000414E444C4520706172616D6574657220A8
:1033C000737065636966696564000000019001209F
:1033D00000902A46214600203047F0B5060083B011
:1033E0000FF634140FF270050CD106F035F8060014
:1033F00005D00FF28C0040F62E13FFF7E7FF40F6E2
:103400002F10FEBD371DB86905F0CBFE01460FF643
:10341000CC0005F03AFD386060B906F01DF80600F2
:1034200005D00FF27C0040F63713FFF7CFFF40F6D0
:103430003810FEBD386940F00400386196F870001D
:10344000202818BF102805D0E0281EBFE1288020C2
:1034500086F870000020FEBD496F544875625472B2
:10346000616E73706F72745F4D5154545F436F6D32
:103470006D6F6E5F53756273637269626500000001
:10348000496E76616C69642068616E646C65207059
:103490006172616D657465722E204E554C4C2E0024
:1034A0004661696C75726520636F6E7374727563C3
:1034B00074696E67204D65737361676520546F7022
:1034C00069630000FEB506000FF64C040FF6CC054C
:1034D0001BD0706805F065FEFFF7D2FE00F048F8DB
:1034E00048B105F0B9FF070005D00FF2340040F6EF
:1034F000561300F043F8706805F045FE0020706038
:10350000706920F004007061F7BD05F0A5FF0600AA
:1035100005D00FF2340040F65E13FFF757FFF7BDFA
:103520004661696C7572652063616C6C696E6720B9
:103530006D7174745F636C69656E745F756E7375BD
:103540006273637269626500496E76616C696420BA
:10355000617267756D656E7420746F20756E73751A
:103560006273637269626520284E554C4C292E00A7
:103570000146706B012302AA04F036BB01900120C2
:1035800000902A46214600203847FEB50500144623
:103590000E4618BF002C10D105F05EFF05002FD09D
:1035A0000FF648000294FFF79DFD40F668130FF6F2
:1035B000140200F068F9A84722E095F8700030285E
:1035C00022D1012E1ED1202001F0EFFF070017D0DD
:1035D0003E72206807F118010068F86000207860EA
:1035E00005F1680006F06BFA21683A462846FDF7B7
:1035F00062FC50B107F1180006F051FA00F006F82D
:103600000120FEBD0320FEBD0220FEBD384602F0B3
:1036100027B92DE9F04F5FEA000885B018BF0029EF
:1036200019D008F1080081624046FEF7C1FF90B949
:1036300008F13F0494F9000003280DD108F10800B7
:103640000022C06AFEF7AEFB0020207008F10800DF
:10365000C06A04F0A3FB44E208F15805287E202844
:1036600018BF802803D14046FEF76AFCEEE7902899
:103670000FF2A4690FF29C7B1ED108F1080040688C
:10368000002804BFD8F80800002812D0A07880B91C
:103690004046FDF720FB10B90120A07009E005F0BD
:1036A000DBFE844628B10FF2907040F6C41300F0A0
:1036B000BBF830202876C9E73028C7D1D5F81CA040
:1036C00011E00B46024639464046FDF7B4F948B1D1
:1036D000504606F0E4F9B86803224146FCF730FF93
:1036E000FFF794FFB24608F17400824541D0286884
:1036F000DAF8006003A9AAF1140705F0F7FA00F060
:103700008BF83D28EED3786802281CD3504606F08B
:10371000C6F9B86802224146FCF712FFFFF776FFB0
:10372000E12028760020A0704046FEF721FBE869E2
:1037300008F1740188421FBF0021A0F114025160FA
:103740000068F5D1CEE7B86802A90068FEF7A5FCCD
:103750000299002918BF0028B3D105F07DFE00288A
:103760008446BFD00FF2047040F6F41300F05CF80A
:10377000B8E7E868046808E006F091F907F1140179
:1037800008F1740006F09BF9039CE868844292D02B
:103790002068A4F10C060390306802A9FEF77DFCB6
:1037A00082460298002818BFBAF1000F0BD105F02D
:1037B00053FE00288446E7D00FF2E46040F6112360
:1037C00000F032F8E0E71C2001F0EFFE070009D11D
:1037D00005F042FE00288446D6D00FF2F06040F695
:1037E0001923EDE7002078604046BE60FCF7BEFC80
:1037F0003882029B524639464046FDF71CF90028A4
:103800002046B9D006F04BF9032241463046FCF77A
:1038100097FEFFF7FBFEB7E703983968401A4FF4AD
:103820007A71B0FBF1F070470190012000905A4688
:1038300049460020604730B504000D4683B018BFEC
:10384000002D10D105F008FE04000AD00FF2E86048
:1038500040F63D23FFF746FC0FF2B06200F013F88C
:10386000A04701203EBD606E06F012F938B104F1A8
:10387000740006F00DF9401E8041C00F00E00120E9
:10388000287000203EBD0FF29041002070472DE9C6
:10389000F04F04008A4685B015460FF27C480FF2BF
:1038A000AC6918BFBAF1000F00D07DB9012405F052
:1038B000D3FD050009D00FF2BC600094019040F6E2
:1038C0005D234A4641460020A84782E004F15406A1
:1038D00004F13407F06A0AF0CDFD834651460FF239
:1038E000943005F0BDFF18B929783170727808E07E
:1038F00051460FF2CC6005F0B3FF30B92A787270F0
:103900003178386804F0BBFA26E051460FF2AC304B
:1039100005F0A6FF10B92868F0601DE051460FF2CF
:103920008C3005F09DFF28B9798A2868884213D029
:10393000788211E051460FF2683005F091FF68B9C6
:10394000398A286888421EBF388297F90B00002800
:103950001CBF2046FEF70CFA00243AE000F0BCF849
:1039600070B9BBF1020F18BFBBF1000F08D005F012
:1039700073FD040017D00FF2546040F6952310E059
:1039800000F0A5F888B9BBF1020F18BFBBF1000F1A
:103990000BD005F061FD040005D00FF2746040F615
:1039A0009B23FFF731FA012413E051460FF2203038
:1039B00005F056FF002870D1786860B105F04CFD25
:1039C000040005D00FF2886040F6A623FFF71CFA2A
:1039D000022460B285E0286840B905F03DFD04008E
:1039E000E1D00FF2A86040F6AC23DAE7A968E868F6
:1039F000002918BF00280AD1814208D005F02CFD0B
:103A00000400D0D00FF2A86040F6B323C9E700202D
:103A100003900290049068687063296803A80BF013
:103A2000DDF840B105F018FD0400D1D00FF2C06000
:103A300040F6C123CAE7A96879B102A80BF0CEF815
:103A400058B1039801F00CFF05F006FD0400BFD04B
:103A50000FF2BC6040F6C923B8E7E96899B104A841
:103A60000BF0BCF878B1029808B101F0F9FE0398A8
:103A700001F0F6FE05F0F0FC0400A9D00FF2B060F2
:103A800040F6D523A2E72046FCF7C3FA039830633B
:103A90000298B0630498F0635EE700F01DF810B17F
:103AA00000F015F830B9BBF1020F03D0F06A012124
:103AB0000AF08FFC2046FEF763FB002888D1786867
:103AC0002A4651460AF0EBF9040082D06BE75146D2
:103AD0000FF2BC1005F0C4BE51460FF2A41005F061
:103AE000BFBE05B0BDE8F08F2DE9F04106460024C9
:103AF0000F46002E84B00FF220250FF2546818BF35
:103B0000002F00D043B905F0A7FC07005DD00FF2ED
:103B1000686040F60D333FE0386840B905F09CFC22
:103B2000070052D00FF2A06040F6173334E07868F7
:103B300000281CBFB868002808D005F08DFC0700DD
:103B400043D00FF2BC6040F61D3325E0F06905F06C
:103B500028FB396805F084FE40B105F07DFC0700C4
:103B600033D00FF2087040F6253315E0D6F8800008
:103B70000AF080FC012813D1D6F880000AF04EFD2F
:103B8000796805F06DFE58B105F066FC07001CD0A1
:103B90000FF2187040F62B3300F01BF8B84714E012
:103BA00096F83E0068B105F057FC844668B1386865
:103BB00040F6323302900FF2347000F00AF8E0471A
:103BC00003E00120344686F83E00204604B0BDE8FC
:103BD000F081019001200090424629460020704764
:103BE00010B1002180F83E10704730B583B008B99D
:103BF000002413E0806905F012F904000ED105F0ED
:103C00002BFC05000AD00FF2407040F65833FFF746
:103C100069FA0FF20C72FFF736FEA84720463EBD48
:103C2000F0B5060083B00FF2F0040FF2587513D010
:103C3000306818B108F0A3FC00240AE005F00CFC81
:103C4000070005D00FF2707040F66D33FFF796FC59
:103C50000224FFF718F90AE005F0FEFB060005D084
:103C60000FF26C7040F67533FFF7B0FB022420466C
:103C7000FEBD00006C6F6774726163650000000038
:103C8000783530396365727469666963617465009B
:103C900078353039707269766174656B65790000CA
:103CA0006B656570616C697665000000636F6E6EB0
:103CB0006563745F74696D656F7574007361735FBC
:103CC000746F6B656E5F6C69666574696D65000025
:103CD00070726F78795F6461746100006465766901
:103CE0006365732F25732F6D657373616765732F1C
:103CF000646576696365626F756E642F23000000EA
:103D000024696F746875622F6D6574686F64732FB2
:103D1000504F53542F230000433A5C53544D3332D9
:103D200043756265457870616E73696F6E5F436C51
:103D30006F75645F415A5552455F56312E312E30B2
:103D40005C4D6964646C6577617265735C54686925
:103D500072645F50617274795C617A7572652D6905
:103D60006F742D73646B2D635C696F746875625F2B
:103D7000636C69656E745C7372635C696F7468759B
:103D8000627472616E73706F72745F6D7174745F60
:103D9000636F6D6D6F6E2E6300000000496F5448B5
:103DA00075625472616E73706F72745F4D515454CA
:103DB0005F436F6D6D6F6E5F556E73756273637287
:103DC00069626500496F544875625472616E737020
:103DD0006F72745F4D5154545F436F6D6D6F6E5FC2
:103DE00050726F636573734974656D00496E7661D7
:103DF0006C69642068616E646C6520706172616DCD
:103E00006574657220696F746875625F6974656D49
:103E10003D257000496F544875625472616E73702D
:103E20006F72745F4D5154545F436F6D6D6F6E5F71
:103E3000446F576F726B00004661696C7572653A2A
:103E40002073656E64696E672064657669636520BA
:103E50007477696E206765742070726F7065727414
:103E60007920636F6D6D616E642E00004661696C30
:103E70007572652066726F6D206372656174696E1C
:103E800067204D65737361676520496F544875629B
:103E90004D6573736167655F476574446174610064
:103EA0004661696C75726520726573756C74206605
:103EB000726F6D20496F544875624D657373616709
:103EC000655F47657444617461000000416C6C6F0C
:103ED000636174696F6E204572726F723A20466139
:103EE000696C75726520616C6C6F636174696E6773
:103EF000204D515454204D657373616765204465AE
:103F00007461696C204C6973742E0000496F5448C9
:103F100075625472616E73706F72745F4D51545458
:103F20005F436F6D6D6F6E5F47657453656E64536D
:103F30007461747573000000696E76616C69642049
:103F40006172756D656E742E00000000496F5448F3
:103F500075625472616E73706F72745F4D51545418
:103F60005F436F6D6D6F6E5F5365744F7074696FF3
:103F70006E000000696E76616C6964207061726128
:103F80006D6574657220284E554C4C292070617304
:103F900073656420746F20496F5448756254726170
:103FA0006E73706F72745F4D5154545F436F6D6DDB
:103FB0006F6E5F5365744F7074696F6E2E000000F2
:103FC0007261776C6F677472616365007835303940
:103FD0006365727469666963617465207370656393
:103FE00069666965642C2062757420617574686502
:103FF0006E7469636174696F6E206D6574686F6457
:10400000206973206E6F742078353039000000000D
:1040100078353039707269766174656B65792073B3
:1040200070656369666965642C20627574206175CA
:104030007468656E7469636174696F6E206D657410
:10404000686F64206973206E6F7420783530390092
:1040500043616E6E6F74207365742070726F78792F
:10406000206F7074696F6E206F6E63652074686571
:1040700020756E6465726C79696E6720494F20699E
:104080007320637265617465640000004E554C4C8A
:1040900020686F73745F6164647265737320696E06
:1040A0002070726F7879206F7074696F6E73000082
:1040B0004F6E6C79206F6E65206F66207573657228
:1040C0006E616D6520616E642070617373776F72CD
:1040D0006420666F722070726F78792073657474D3
:1040E000696E677320776173204E554C4C00000059
:1040F00043616E6E6F7420636F7079204854545022
:104100002070726F787920686F73746E616D6500CE
:1041100043616E6E6F7420636F7079204854545001
:104120002070726F787920757365726E616D6500AD
:1041300043616E6E6F7420636F70792048545450E1
:104140002070726F78792070617373776F7264007A
:10415000496F544875625472616E73706F72745F08
:104160004D5154545F436F6D6D6F6E5F526567695B
:104170007374657200000000496F54487562547290
:10418000616E73706F72745F4D5154545F436F6D05
:104190006D6F6E5F52656769737465723A2068610E
:1041A0006E646C652C20646576696365206F72208F
:1041B00077616974696E67546F53656E64206973C3
:1041C000204E554C4C2E0000496F54487562547275
:1041D000616E73706F72745F4D5154545F436F6DB5
:1041E0006D6F6E5F52656769737465723A206465BE
:1041F000766963654964206973204E554C4C2E00E6
:10420000496F544875625472616E73706F72745F57
:104210004D5154545F436F6D6D6F6E5F52656769AA
:10422000737465723A20426F7468206465766963BE
:10423000654B657920616E642064657669636553BA
:104240006173546F6B656E20617265206465666989
:104250006E65642E204F6E6C79206F6E65206361F1
:104260006E20626520757365642E0000496F5448A6
:1042700075625472616E73706F72745F4D515454F5
:104280005F436F6D6D6F6E5F5265676973746572C2
:104290003A20646576696365496420646F657320BC
:1042A0006E6F74206D617463682E0000496F54480E
:1042B00075625472616E73706F72745F4D515454B5
:1042C0005F436F6D6D6F6E5F526567697374657282
:1042D0003A206465766963654B657920646F657320
:1042E000206E6F74206D617463682E005472616E6D
:1042F00073706F727420616C72656164792068619B
:104300007320646576696365207265676973746597
:104310007265642062792069643A205B25735D00D0
:10432000496F544875625472616E73706F72745F36
:104330004D5154545F436F6D6D6F6E5F47657448A8
:104340006F73746E616D650043616E6E6F74207083
:10435000726F766964652074686520746172676540
:104360007420686F7374206E616D652028535452F9
:10437000494E475F636C6F6E65206661696C65646A
:10438000292E0000496F544875625472616E737033
:104390006F72745F4D5154545F436F6D6D6F6E5FFC
:1043A00053656E644D657373616765446973706FBF
:1043B000736974696F6E00006D6573736167652062
:1043C00068616E646C65206973204E554C4C00002A
:1043D0006D6573736167655F6461746120697320E3
:1043E0004E554C4C000000004FF4E072104402683F
:1043F000914203D343681A44914202D38068002853
:10440000F5D17047DFF85C07016891B94FF480314E
:1044100081604FF4805141604FF0FF31C160016114
:104420000421DFF844274161C2F8BC11DFF83C17D2
:1044300001600120704701F1080313F0070305D064
:1044400001F10803C3F1080303F007031944D21A6A
:104450008161C26042F001034B60114428234B602C
:10446000DFF800170969C16170472DE9F84F06466A
:1044700001F1080010F0070008BF884607D001F1DD
:104480000800C0F1080000F0070001EB000802F18D
:10449000080010F0070006D002F10800C0F1080083
:1044A00000F0070002441546A5EB0800A0EB030945
:1044B00008EB030B43F00300C8F80400AB4528BF2A
:1044C0000AF0D9FB2879C00758BF0AF0D4FBB9F12C
:1044D000100F38BF0AF0CFFBB069854209D1F068F0
:1044E0004844F060C6F818B040F00100CBF8040072
:1044F00070E1706985420BD1B0684844B060C6F87D
:1045000014B040F00101CBF804104BF8000061E159
:10451000686800F00301012940F0AF80C008C000C6
:104520000190C00820283BD2D5F808A0EF68009081
:10453000BD4208BF0AF09FFB554508BF0AF09BFB30
:1045400068680099C008C000B0EBC10F18BF0AF03E
:1045500092FB009806EBC00000F128018A4508D0C4
:1045600031698A45C0F08480DAF80C10A94240F025
:104570007F80574506D1009A3068012191408843D9
:10458000306077E02830874205D0306987426FD3AA
:10459000B868A8426CD1CAF80C70C7F808A069E0E6
:1045A000EF68D5F818A0AF420CD0A86831698842EE
:1045B00023D3C168A94204BFB968A9421DD1C7600D
:1045C000B8601CE005F11400076837B905F1100068
:1045D0000768A7B101E00846076807F114010A68F7
:1045E000002A02BF07F110010A68002AF3D13169DD
:1045F000884202D30021016001E00AF03CFBBAF1DD
:10460000000F37D0E86906EB80004FF4987108443A
:1046100001688D4208D10760A7B9EA697068012175
:1046200091408843706025E03069824508D3DAF80C
:104630001000A84214BFCAF81470CAF8107001E044
:104640000AF019FBB7B13069874211D3C7F818A037
:10465000296929B1814226BF39618F610AF00BFBBC
:10466000686938B13169884202D37861876101E0B5
:104670000AF001FB01980544814468684008400045
:1046800068604FEAD90549F00100CBF804004BF807
:104690000990202D23D206EBC50000F12807BA4669
:1046A000B9F1100F38BF0AF0E6FA306820FA05F1C8
:1046B000C90704D40121A9400843306006E0B86866
:1046C000316988422CBF82460AF0D5FAC7F808B093
:1046D000CAF80CB0CBF808A0CBF80C707AE05FEA0F
:1046E000192108BF002023D0B1F5803F28BF1F202B
:1046F0001ED2A1F58070000C00F008008140A1F5E9
:104700008052120C02F004029140A1F580431B0C70
:10471000C0F10E0003F00203801AC01A994000EBAA
:10472000D130C11D29FA01F202F0010101EB400074
:1047300006EB80014FF498721144CBF81C00002264
:10474000CBF81420CBF81020726822FA00F3DB07B4
:1047500007D4012303FA00F010437060C1F800B0E1
:104760001DE009681F281DBF4008C0F1190009FAA3
:1047700000F0484600E011464A68D208D2004A4597
:1047800014D0C20F01EB820202F1100340001A683C
:10479000002AF0D1306983421AD3C3F800B0CBF8B5
:1047A0001810CBF80CB0CBF808B013E03269886869
:1047B000914228BF90420BD3C0F80CB0C1F808B0AA
:1047C000CBF80800CBF80C100020CBF8180001E063
:1047D0000AF051FA08F10800BDE8E68F2DE9FA4D1C
:1047E0000546DFF88003006882B008B9FFF70AFECB
:1047F000DFF870030299806841182F31401E21EACA
:1048000000000299814280F0A9814FF4D8716E189E
:10481000B16839B132688018824280F09F8181424C
:10482000C0F09C810AF02AFA00281EBF0446D0F886
:10483000008014F1010F00F09181306871684044EC
:104840008142306038BF01467160A86980BB286929
:1048500008B1844200D22C610020F0613461C6F8B6
:10486000148005F12801BF48006868624FF0FF30EE
:1048700028620020C960896001F108024A610A616A
:10488000801C10312028F5D3B748854203D1A8F108
:10489000280221462AE055F8040CC00805EBC000A8
:1048A000A0F1080104EB0800401AA0F128021DE065
:1048B0004FF4E0702918084600E08068D0B1026823
:1048C00043681A449442F8D1027B120712D4AA69B1
:1048D00003689A420ED347683B449A420AD208EBD7
:1048E00007014160E868A96908EB00022846FFF764
:1048F000A2FD1DE128698442084638BF2C6104EB03
:10490000080100E0806880B102688A42FAD1017B28
:1049100009070AD404604168414441602146029B72
:10492000284604B0BDE8F04D9FE5AF6939462846FA
:10493000FFF75AFD4FF0000B0168406808440190F2
:10494000273810F0070101990EBF0020C0F10800C0
:1049500000F0070008442F3807F11001884234BFE7
:1049600000970090009804F1080100F1180A11F076
:104970000701A8F1280005D004F10801C1F10801E0
:1049800001F00701401A2144A961E86040F00102EA
:104990004A6008442822426072480069E861009831
:1049A000083010F0070018BF0AF065F900991B20C5
:1049B00048604FF4E0712944B1E80C500098083089
:1049C000A0E80C503461C6F81480C6F81CB00098FA
:1049D0000830B061019801E00AF1040A0721CAF821
:1049E00004100BF1010B0AF108018142F4D3BBF171
:1049F000020FB8BF0AF03FF90098B84200F0988063
:104A0000C01B3918C4084A68520852004A6040F076
:104A1000010179603850202C20D205EBC40101F14E
:104A20002806B046102838BF0AF025F9286820FA71
:104A300004F1C90704D40121A1400843286006E01D
:104A4000B068296988422CBF80460AF014F9B76023
:104A5000C8F80C70C7F80880FE6069E0010A23D02E
:104A6000B1F5803F28BF1F211ED2A1F58072120C24
:104A700002F008029140A1F580531B0C03F00403DF
:104A80009940A1F58044240CC2F10E0204F0020406
:104A9000D21A121BA14002EBD131CA1D20FA02F337
:104AA00003F0010202EB410105EB81024FF4987320
:104AB0001A44F96100237B613B616B6823FA01F4BE
:104AC000E40705D4012088401843686017601CE0A3
:104AD00012681F291DBF4908C1F1190100FA01F12F
:104AE000014600E01A465368DB08DB00834210D021
:104AF000CB0F02EB830303F1100449002368002B62
:104B0000F0D12869844211D32760BA61FF60BF6089
:104B10000EE0296990688A4228BF884206D3C760A0
:104B20009760B860FA600020B86101E00AF0A3F86D
:104B3000E8680299814211D2401AE860A969029A94
:104B40000A44AA6140F001005060029840F003005E
:104B5000486004B001F10800BDE8F08D002004B009
:104B6000BDE8F08DDC210520FC1205206859883C49
:104B70002DE9F04704460D4690466868C10705EBED
:104B8000080938D4296810F0030F00F03F8248422A
:104B90000544206985428844C0F0348262699542A8
:104BA00000F0BC80CE08202E54D2D5F80CA0AF68FF
:104BB000554508BF0AF05FF8BD4208BF0AF05BF830
:104BC0006868C008C000B0EBC60F18BF0AF053F801
:104BD00004EBC60000F128018F4205D021698F4205
:104BE00035D3F968A94232D1BA4521D120680121D3
:104BF000B1408843206020698145C0F00382D9F824
:104C000004108A0700F16381A269914540F09C80FD
:104C1000E068A5614044E06040F0010068606069C0
:104C2000854240F0F38100206061A060BDE8F0871C
:104C30002830824506D02069824508D3DAF808007A
:104C4000A84204D1C7F80CA0CAF80870D3E70AF04C
:104C500012F8D0E7EF68AE69AF420BD0A968814285
:104C600022D3C868A84204BFB868A8421CD1CF604C
:104C7000B9601BE005F114010F6837B905F11001A7
:104C80000F689FB101E011460F6807F11402136825
:104C9000002B02BF07F110021368002BF3D18142F1
:104CA00002D30020086001E009F0E5FF002EA2D049
:104CB000E86904EB80004FF49871084401688D4264
:104CC00009D10760380011D1EA696068012191407B
:104CD000884360608FE72069864205D33069A84227
:104CE00014BF7761376101E009F0C5FF002F82D062
:104CF00020698742ABD3BE61296929B1814226BFB1
:104D000039618F6109F0B7FF686900283FF473AF1C
:104D1000216988429BD3786187616CE799F8040028
:104D200000F0030003287FF466AFC4F80880D9F8C8
:104D3000040040084000C9F8040048F00100686021
:104D400045F80880BDE8F0876269914509D1A068FF
:104D500065614044A06040F0010169602850BDE8F1
:104D6000F087C908C900CE08202E884439D2D9F866
:104D70000CA0D9F80870D14508BF09F07CFFB945EF
:104D800008BF09F078FFD9F80400C008C000B0EBF4
:104D9000C60F18BF09F06FFF04EBC60000F1280131
:104DA0008F4207D021698F42C0F08380F96849455E
:104DB00040F07F80BA4505D120680121B140884389
:104DC000206078E02830824506D02069824570D383
:104DD000DAF8080048456CD1C7F80CA0CAF808708A
:104DE00069E0D9F80C70D9F818604F450CD0D9F8A3
:104DF0000810814222D3C868484504BFB8684845B6
:104E00001CD1CF60B9601BE009F114010F6837B9FC
:104E100009F110010F689FB101E011460F6807F119
:104E200014021368002B02BF07F110021368002B55
:104E3000F3D1814202D30020086001E009F01BFF9A
:104E4000002E38D0D9F81C0004EB80004FF4987184
:104E50000844016889450AD10760380012D1D9F8A1
:104E60001C206068012191408843606023E0206934
:104E7000864205D33069484514BF7761376101E048
:104E800009F0F9FEBFB12069874212D3BE61D9F89B
:104E9000101029B1814226BF39618F6109F0EBFE04
:104EA000D9F8140038B12169884202D3786187614A
:104EB00001E009F0E0FE48F00100686045F8088074
:104EC000606985420CD1C4F80880BDE8F0874808C5
:104ED0004000C9F8040048F00100686045F8088007
:104EE0004FEAD807202F23D204EBC70000F128098E
:104EF0004E46B8F1100F38BF09F0BDFE206820FA09
:104F000007F1C90704D40121B9400843206007E034
:104F1000D9F80800216988422CBF064609F0ABFE8B
:104F2000C9F80850F560AE60C5F80C90BDE8F08790
:104F30005FEA182008BF002123D0B0F5803F28BFCA
:104F40001F211ED2A0F58071090C01F008018840D4
:104F5000A0F58052120C02F004029040A0F58043AC
:104F60001B0CC1F10E0103F00203891AC91A984003
:104F700001EBD030C11D28FA01F202F0010101EB72
:104F8000400104EB81004FF49872104400226A61E2
:104F90002A61E961626822FA01F3DB0706D4012382
:104FA00003FA01F11143616005601CE000681F29EC
:104FB0001DBF4908C1F1190108FA01F1414600E09D
:104FC00010464268D208D20042450FD0CA0F00EB0B
:104FD000820202F1100349001A68002AF0D1216907
:104FE0008B420FD31D60ED60AD6011E022698168D6
:104FF000904228BF914205D3CD608560E860A960EA
:10500000002005E0BDE8F04709F035BEBDE8F087B7
:10501000A861BDE8F0872DE9F84F044600268946CF
:105020005FEA1920C9F1000B08BF002123D0B0F5B9
:10503000803F28BF1F211ED2A0F58071090C01F00E
:1050400008018840A0F58052120C02F00402904042
:10505000A0F580431B0CC1F10E0103F00203891A75
:10506000C91A984001EBD030C11D29FA01F202F0B3
:10507000010101EB400104EB8100D0F8300118B3CD
:105080001F290FBF4A464A08C2F1190209FA02F263
:10509000002300E052004568ED08ED00A5EB09058E
:1050A0005D4503D25FEA050B06460BD04569D70F75
:1050B00000EB8700002D00691CBF85422B460028AD
:1050C000E8D11846B8BBC6BB012088404000414229
:1050D00008436168084000F05D8141420840401E7D
:1050E000010B01F01001C840420902F00802D04053
:1050F000830803F00403D840450805F00205511861
:10510000E8405918C0F3400729443944F840401892
:1051100004EB8000D0F830010DE008464168C90872
:10512000C900A1EB090159453CBF8B460646016900
:105130000029F2D140690028F0D1002E00F02A8128
:10514000A068A0EB0900834580F024812069864295
:10515000C0F01E817068C00809EB0B08C000404514
:1051600018BF09F088FD06EB0905AE4280F01081FA
:10517000F768D6F818A0B7420CD0B0682169884209
:1051800023D3C168B14204BFB968B1421DD1C76021
:10519000B8601CE006F11400076837B906F110008A
:1051A0000768A7B101E00846076807F114010A681B
:1051B000002A02BF07F110010A68002AF3D1216911
:1051C000884202D30021016001E009F054FDBAF1E8
:1051D000000F39D0F06904EB80004FF49871084457
:1051E00001688E4209D10760380014D1F269606805
:1051F000012191408843606026E02069824508D300
:10520000DAF81000B04214BFCAF81470CAF810706F
:1052100001E009F030FDBFB12069874212D3C7F821
:1052200018A0306930B12169884226BF3861876192
:1052300009F021FD706938B12169884202D3786193
:10524000876101E009F017FDBBF1100F09D248F0AA
:105250000300706006EB0800416841F00101416005
:1052600095E049F0030070604BF0010068604FEA80
:10527000DB0045F80BB020281DD204EBC00101F182
:105280002807216821FA00F2D207BB4605D4012283
:1052900002FA00F00843206006E0B86821698842FD
:1052A0002CBF834609F0E7FCBD60CBF80C50C5F875
:1052B00008B0EF606BE05FEA1B2023D0B0F5803FC1
:1052C00028BF1F201ED2A0F58071090C01F0080133
:1052D0008840A0F58052120C02F004029040A0F524
:1052E00080431B0CC1F10E0103F00203891AC91A95
:1052F000984001EBD030C11D2BFA01F202F0010100
:1053000001EB400004EB80014FF498721144E86116
:1053100000226A612A61626822FA00F3DB0706D480
:10532000012303FA00F0104360600D601CE009687F
:105330001F281DBF4008C0F119000BFA00F05846A5
:1053400000E011464A68D208D2005A4510D0C20F78
:1053500001EB820202F1100340001A68002AF0D12A
:105360002069834211D31D60A961ED60AD600EE03C
:1053700022698868914228BF904206D3C5608D603B
:10538000A860E9600020A86101E009F074FC08E170
:1053900009F071FC02E12DE9F84F04468846606887
:1053A00041420840401E010B01F01001C840420973
:1053B00002F00802D040830803F00403D8404508F7
:1053C00005F002055118E8405918C0F34006294479
:1053D0007118F040401804EB8000D0F830014168AB
:1053E000C908C9000646A1EB080A09E00846416859
:1053F000C908C900A1EB080151453CBF8A460646D1
:1054000001690029F2D140690028F0D12069864263
:10541000C0F0C2807068C00808EB0A09C0004845A7
:1054200018BF09F028FC06EB080B5E4580F0B4803D
:10543000F768B569B7420CD0B0682169884223D3B8
:10544000C168B14204BFB968B1421DD1C760B8603C
:105450001CE006F11400076837B906F11000076870
:10546000A7B101E00846076807F114010A68002A9D
:1054700002BF07F110010A68002AF3D121698842AE
:1054800002D30021016001E009F0F5FB002D35D0C9
:10549000F06904EB80004FF49871084401688E4273
:1054A00009D10760380011D1F2696068012191408B
:1054B0008843606022E02069854205D32869B042B4
:1054C00014BF6F612F6101E009F0D5FBB7B120690E
:1054D000874211D3BD61306930B12169884226BF4E
:1054E0003861876109F0C7FB706938B1216988426A
:1054F00002D37861876101E009F0BDFBBAF1100FBA
:1055000009D249F00300706006EB0900416841F0E0
:10551000010141603FE048F0030070604AF0010083
:10552000CBF804004BF80AA0D4F808804FEAD8055D
:10553000202D28BF09F09FFBB8F1000F27D0D4F829
:105540001490009504EBC50000F128052F46B8F132
:10555000100F38BF09F08FFB2068009920FA01F284
:10556000D10705D4009A012191400843206006E04C
:10557000A868216988422CBF074609F07CFBC5F862
:105580000890C7F80C90C9F80870C9F80C50C4F816
:1055900008A0C4F814B004E009F06DFB0020BDE8D9
:1055A000F28F06F10800BDE8F28F2DE9F04F83B0CD
:1055B0000546AFF30080F52DDFF8044B80F0028143
:1055C0000B2D31BF102705F10B00C708FF00206825
:1055D000FE08F04010F0030F42D0C04300F001007D
:1055E000861904EBC60000F12808F700D8F8085027
