:020000040800F2
:100000009830002005A70508A9A50508ABA5050897
:10001000ADA50508AFA50508B1A5050800000000BD
:10002000000000000000000000000000B3A505086B
:10003000B5A5050800000000B7A50508B9A5050885
:1000400029A705082DA7050831A7050835A7050824
:1000500039A705083DA70508C7A5050841A7050854
:1000600045A7050849A705084DA7050851A7050894
:1000700055A7050859A705085DA7050861A7050844
:1000800065A7050869A705086DA7050871A70508F4
:1000900075A7050879A705087DA7050881A70508A4
:1000A00085A7050889A705088DA7050891A7050854
:1000B00095A7050899A705089DA70508A1A7050804
:1000C000A5A70508A9A70508ADA70508B1A70508B4
:1000D000B5A70508B9A70508BDA70508C1A7050864
:1000E000CDA50508C5A70508C9A70508CDA705081A
:1000F000D1A70508D5A70508D9A70508DDA70508D4
:10010000E1A70508E5A70508E9A705088FD50308B5
:10011000EDA70508F1A70508F5A70508F9A7050843
:10012000FDA7050801A8050805A8050809A80508F0
:100130000DA8050811A8050815A8050819A805089F
:100140001DA8050821A8050825A8050829A805084F
:100150002DA8050831A8050835A8050839A80508FF
:100160003DA8050841A8050845A8050849A80508AF
:100170004DA8050851A80508000000000000000077
:1001800055A8050859A805085DA8050861A805082F
:1001900065A8050869A80508000000006DA8050805
:1001A00071A8050875A805080000000000000000FF
:1001B00079A8050800000000000000007DA80508DF
:1001C00081A8050885A8050889A805088DA805083F
:1001D00091A8050895A80508120001F391010001F6
:1001E00052FF01F113AB412CF29C00011003189C4B
:1001F000050807B3522008522808123008120608D2
:100200005238105240105248081250081208081272
:100210005C08121008127008120A081003FB9605F9
:1002200008DD0412E10412ED0412E50412E90412DF
:10023000FF0410031B9705080F0412CB0C12D10406
:1002400012130C12170412D50C12D90412030C123B
:100250000704120B041087D89E05C15D9DBBCB0718
:10026000D57C362A299A6217DD70305A01599139A6
:10027000590EF7D8EC2F15310BC0FF6726336711E5
:10028000155868874AB48EA78FF9640D2E0CDBA42D
:100290004FFABE1D48B54708C9BCF367E6096A3B7B
:1002A000A7CA8485AE67BB2BF894FE72F36E3CF14F
:1002B000361D5F3AF54FA5D182E6AD7F520E511F34
:1002C0006C3E2B8C68059B6BBD41FBABD9831F79C2
:1002D000217E1319CDE05B01040000DD020020DE69
:1002E00004D2DD0412C404F50FE6800C02040101FF
:1002F000C80F002018100020C80F04F004111D03BF
:1003000000200403401003C0940508D00412E80440
:100310001003009505081404122404124004125C12
:100320000412800412980412B80412E80416004063
:100330004720969425B025A452056540042BC000A3
:10034000002CC00D5206202101F0011C0304000105
:1003500016EC981003009805081C04124004126063
:100360000412880412AC0412C40412EC0418030C26
:100370009905087C0C12900412AC0412CC0412F003
:10038000041003189D05083804125C0410032C9F08
:1003900005083C0412540412740412900412A804B8
:1003A00012C80447D89FFC25F825F425F025EC2534
:1003B000E825E425E025D825D425D025CC25C82559
:1003C000C425C025BC1350A1681104127004128CFE
:1003D0000412A80412BC0412D804F10BF213689B97
:1003E000D0110412A00412BC0412DC0412FC041389
:1003F000ACA010110412D80412F404121448123CD8
:10040000041790A484110412A40412B40412C404A6
:1004100012D40412F4C41208281220041240041248
:1004200064041350A394110412700412900412B0C7
:100430000416342C12480412640412780412940432
:10044000138813A2120204259C21AE1D5D0312B471
:100450001812D40417009A3C110412C03C12DC0498
:1004600012FC04121870163CF8125404126C041298
:10047000E8101300A51811043005001401400018FD
:1004800002046D6C052DAC034FD1037C0540087B45
:10049000560108315901084B5E081300082CEC0185
:1004A000100240F404313C100580000812873B56CE
:0B04B0009DF40402400024F400E94C1D
:020000040801F1
:10000000062801D300207047DFF8741C51F8200047
:10001000704710B500F18404206818B105F088FC21
:1000200000202060A06818B105F082FC0020A060CC
:10003000E06818B105F07CFC0020E06010BD38B528
:1000400004460D46E06D08B106F021FAE56531BDC4
:1000500010B50446606B08B107F0B0FCE06F08B162
:1000600008F086FC00F026F8A06D08F0F6FE2046A9
:10007000FFF7CFFF206A09F041F9206809F03EF947
:10008000606809F03BF9E06909F038F9A06909F006
:1000900035F9E06A09F032F9A06809F02FF9E06853
:1000A00009F02CF9206909F029F92046BDE8104033
:1000B00005F03EBC00212046C1E77CB5060008469D
:1000C0001146DFF8C04B0FF250050CD109F082FA4F
:1000D000060005D003F0D8F84FF49B7303F0DEF967
:1000E00040F2371076BD08F015FC01000DD109F083
:1000F00071FA060006D00FF24C00019040F2411355
:1001000003F0CCF94FF4A17076BDF06FF16708F001
:100110002FFC002076BD0000496F54487562547270
:10012000616E73706F72745F4D5154545F436F6DA5
:100130006D6F6E5F5365745265747279506F6C6940
:10014000637900004661696C65642063726561745F
:10015000696E67206E657720726574727920636FAF
:100160006E74726F6C2068616E646C6500000000D4
:10017000818F4A1C4FF6FF739A42ACBF0121491C84
:100180008187808F70472DE9F24F82B0904609F049
:100190003FFA5FEA000ADFF8EC4A0FF2F0090FD1EC
:1001A00009F018FA5FEA000A07D00FF280200190E8
:1001B00040F27D1300F0A0F8D0474FF4BF7562E025
:1001C00008F0D6FE5FEA000B0FD109F003FA5FEAF0
:1001D000000B07D00FF28420019040F2851300F04D
:1001E0008BF8D8474FF4C3754AE000264FF4C67524
:1001F00000E0761C84A25946504609F052FA0028C5
:100200003BD1032E13D10298594608F09DFF0028D8
:10021000EFD009F0DFF9844630B10FF29000019081
:1002200040F2931300F06EF84FF4CA7525E0042EE7
:10023000DFD1584609F073F80628DAD3584609F09A
:100240006BF8074606220FF2880109F089FB0028A7
:10025000CFD1B91D404608F051FF68B109F0BAF995
:10026000844630B10FF27000019040F2A11300F00B
:1002700049F84FF4D17500E00025584609F03EF8E2
:10028000504609F07EFA2846BDE8FE8F726574720A
:10029000696576655F6465766963655F6D657468D9
:1002A0006F645F7269645F696E666F004661696C56
:1002B000656420535452494E475F636F6E636174A7
:1002C0005F776974685F535452494E472E000000AF
:1002D0003F247269643D00004661696C6564205387
:1002E0005452494E475F636F6E6361742066616963
:1002F0006C65642E00000000012000904A462146F3
:1003000000207047012000904A46214600206047A7
:100310002DE9F04F83B00C4615461E4609F078F9DA
:100320005FEA000ADFF85C990FF2E00713D109F0E9
:1003300051F95FEA000A07D00FF2F000019040F295
:10034000BB1300F0A3F8D0470020306028604FF4C2
:10035000DE79207054E008F00BFE5FEA000812D14D
:1003600009F038F9844638B10FF2F00001904FF4EB
:10037000E37300F08BF8E04700203060286040F223
:10038000C719207039E04FF4E77900270FF2780B96
:100390000FE000F08AFE0FF2E40109F021FB28B91A
:1003A0000120207000203060286023E000202070B1
:1003B0007F1C5A464146504609F073F9D8B9022FBE
:1003C000E7D0032FF4D100F070FE0A22002109F0DB
:1003D000D7FB306041460FF2AC02504609F061F99C
:1003E00030B900F062FE0A22002109F0C9FB286042
:1003F00000202070814600F067FE504609F0C1F9E8
:100400004846BDE8FE8F00002F0000007061727347
:10041000655F6465766963655F7477696E5F746F45
:100420007069635F696E666F000000004661696C09
:100430006564206372656174696E6720746F6B65B3
:100440006E2066726F6D20646576696365207477CF
:10045000696E20746F7069632E0000004661696CDC
:10046000656420616C6C6F636174696E67206E6592
:100470007720737472696E67202E000050415443D8
:10048000480000002F3F247269643D000120009065
:100490003A46494600207047F8B5044609F09AFBF1
:1004A000012101220F283DD300200FF27C030FF21F
:1004B000880552EA010631D00E0013D00D2810D263
:1004C0000C282DD02E56A6F161071A2F275638BFBB
:1004D000203EA7F1610CBCF11A0F38BF203FBE428D
:1004E00000D00021160016D0102813D21E56A6F1F7
:1004F00061071A2F0AD32756A7F1610CBCF11A0F16
:1005000006D2203F04E06AB10220F2BD203EF2E7AD
:10051000BE4200D00022401C0F28CAD30029F2D0CE
:100520000120F2BD0020F2BD24696F746875622F4E
:100530006D6574686F64730024696F746875622FE9
:100540007477696E000000007CB504460D461646BF
:10055000684609F05AFB04F10C01684609F06FFB8C
:10056000286B324669460AF02EFE73BD2DE9F04F26
:10057000054687B0084608F029FD064628460BF0D8
:1005800082FF00279AA40FF26C2ADFF8F8B60FF268
:100590007028A0B102AB04AA05A90CF07AFF60B1E3
:1005A00009F018F8040000F01C810FF2702001908F
:1005B0004FF41573012000900FE1029840BB002E0C
:1005C0002AD028460BF073FF030034D0002F0CBF55
:1005D0005246224628E000900FF27421049850F809
:1005E0002730059850F82720304608F011FE70B1EA
:1005F00008F0F0FF844638B10FF25C2001904FF410
:10060000187300F017FAE04700F020FA00267F1C6C
:1006100002988742D3D2002E00F0E680401EB842F6
:100620000CBF50462046D6E70FF25021304608F066
:10063000EFFD48B97F1C28460BF093FFC0B1002F97
:100640000CBF524622460BE008F0C4FF040056D00F
:100650000FF23820019040F2712300F0EBF9BFE077
:1006600003460FF24821304608F0D2FD58B97F1CEE
:1006700028460BF0CDFF0FF24429A0B1002F0CBF8C
:100680005246224609E008F0A5FF040037D00FF2D9
:100690003C20019040F281239DE0009056A300F0A1
:1006A000C5F948B97F1C28460CF001F8A0B1002F0D
:1006B0000CBF5246224609E008F08CFF04001ED011
:1006C0000FF22420019040F2912384E000904BA38C
:1006D00000F0ACF980B97F1C28460BF0FCFF002825
:1006E0006ED00168456800296BD0002D6AD0002FBC
:1006F0000CBF5246224609E008F06CFF040070D09F
:100700000FF20420019040F2A12364E000913046F2
:100710000FF21823494608F07BFD98B92A460FF2DC
:1007200014210FF2202008F06CFC7F1C039098B974
:1007300008F050FF040054D00FF21020019040F256
:10074000C22348E008F046FF04004AD00FF22420FC
:10075000019040F2B6233EE00CF0ECFF05001ED005
:1007600008F0DAFDD8B10090002F0CBF52462246A7
:100770000FF2202300F05AF968B108F02BFF0400B3
:1007800006D00FF2182001904FF4347300F058F99E
:1007900000F05CF90026284608F0B0FD0DE008F0F6
:1007A00019FF040006D00FF21820019040F2D9235F
:1007B00000F046F900F04AF90026039808F09EFD83
:1007C00012E08DB108F006FF04000AD00FF21C20E1
:1007D000019040F2E6230120009042465946002055
:1007E000A04700F033F90026304607B0BDE8F08F8F
:1007F0002600000000000000637400006365000034
:1008000061646450726F70657274696573546F755A
:100810004D7174744D657373616765004661696CF1
:10082000656420746F206765742074686520696E44
:100830007465726E616C73206F66207468652070D9
:10084000726F7065727479206D61702E0000000007
:1008500025733D25732573004661696C65642063CB
:100860006F6E7374727574696E672070726F7065E5
:1008700072747920737472696E672E002573252552
:1008800032342E6369643D25730000004661696C53
:1008900065642073657474696E6720636F72726536
:1008A0006C6174696F6E2069642E000025732525C4
:1008B00032342E6D69643D257300000025732525B3
:1008C00032342E25733D2573000000004661696CAB
:1008D00065642073657474696E67206D65737361F8
:1008E00067652069642E00004661696C6564207349
:1008F000657474696E6720636F6E74656E742074BE
:100900007970652E000000004661696C6564207393
:10091000657474696E6720636F6E74656E742065AC
:100920006E636F64696E672E000000006469616722
:10093000696400006372656174696F6E74696D65E6
:100940007574630025733D25730000004661696C72
:10095000656420636F6E737472756374696E67206B
:10096000646961676E6F7374696320636F6E746529
:10097000787400004661696C6564207365747469FD
:100980006E6720646961676E6F7374696320696460
:100990000000000064696167637478004661696CF7
:1009A00065642073657474696E6720646961676E3D
:1009B0006F7374696320636F6E74657874000000F0
:1009C0004661696C656420656E636F64696E67205B
:1009D000646961676E6F7374696320636F6E7465B9
:1009E00078742076616C7565000000006469616749
:1009F000696420616E642064696167637265617413
:100A0000696F6E74696D65757463206D757374209C
:100A100062652070726573656E742073696D756CA4
:100A200074616E656F75736C792E000049463046AF
:100A300008F0EEBB01200090424659460020704766
:100A4000012000904246594600202047304608F0D9
:100A500055BC2DE9FC4705460E46286892461F46C0
:100A600008F05AFC0146B068864C00680FF2C808CE
:100A7000FFF77CFD5FEA00090FD108F0ABFD5FEAEC
:100A8000000907D00FF2CC00019040F2F62300F0ED
:100A90008DF8C84740F2F7244AE008F03DFC0146D3
:100AA00000975346308A01220CF01CFF07000FD13B
:100AB00008F090FD5FEA000A07D00FF2885001901D
:100AC00040F2FE2300F072F8D04740F2FF242CE001
:100AD000A86D314608F0C6F968B108F07BFD844680
:100AE00030B10FF28050019040F2053300F064F80D
:100AF00040F2063416E0686B394606F0FAFF68B13A
:100B000008F068FD844630B10FF2740001904FF494
:100B1000437300F051F840F20D3403E07068401C5C
:100B20007060002438460CF047FF484608F0E6FBAA
:100B30002046BDE8F68700007075626C6973685FD7
:100B40006D7174745F74656C656D657472795F6DD9
:100B5000736700004661696C656420616464696E56
:100B6000672070726F7065727469657320746F208E
:100B70006D717474206D65737361676500000000AA
:100B80004661696C656420617474656D7074696E2A
:100B90006720746F207075626C697368206D717462
:100BA00074206D657373616765000000012000901B
:100BB00042462146002070470120009042462146CF
:100BC000002060472DE9F04383B004460D461646E9
:100BD0009846FFF7CDFA8146304608F09DFB024665
:100BE00029460FF2A400DFF8A46C0FF2BC0708F04E
:100BF00008FA05000DD108F0EDFC040006D00FF254
:100C0000C80001904FF4497300F070F840F22534A9
:100C100034E008F081FB01460A9800904346002228
:100C200048460CF05FFE5FEA00080DD108F0D2FCE8
:100C3000040006D00FF24C2001904FF44B7300F0EB
:100C400055F840F22D3416E0606B414606F051FF36
:100C500068B108F0BFFC040006D00FF24C200190F0
:100C600040F2333300F042F84FF44D7400E00024BA
:100C700040460CF0A1FE284608F040FBBDE0000015
:100C800094040020E83D010824696F746875622FA0
:100C90006D6574686F64732F7265732F25642F3FC1
:100CA000247269643D2573007075626C6973685FB6
:100CB0006465766963655F6D6574686F645F6D65B3
:100CC00073736167650000004661696C6564206349
:100CD0006F6E737472756374696E67206D6573737C
:100CE00061676520746F7069632E000001200090B9
:100CF0003A463146002020472DE9F043064683B0AE
:100D0000202004F0BAFC0700DFF8804B0FF2F0055A
:100D10000ED108F05FFC5FEA000806D00FF2001069
:100D2000019040F2473302F0BBF94FF4527464E093
:100D300002F00DFB78810020F8600120387500205A
:100D400078603860012038720020386179890FF2AC
:100D5000F40008F056F95FEA000810D108F03AFCF8
:100D60005FEA000806D00FF2F800019040F2563317
:100D700002F096F902F0A4FC4FF456743DE008F03E
:100D8000CBFA0021009100230146788900220CF063
:100D9000A9FD5FEA00090FD108F01CFC844630B1C0
:100DA0000FF2E000019040F25F3300F08FF802F0A4
:100DB00087FC40F261341EE0706B494606F099FEF4
:100DC00078B108F007FC844630B10FF2DC000190E6
:100DD00040F2673300F07AF802F072FC40F26934B6
:100DE00006E007F1180106F1680008F028FF00246A
:100DF00048460CF0E1FD00F067F92046BDE8FE83AF
:100E00007075626C6973685F6465766963655F7449
:100E100077696E5F6765745F6D65737361676500A1
:100E20004661696C656420616C6C6F636174696EA6
:100E30006720646576696365207477696E206461F4
:100E400074612E0024696F746875622F7477696EFF
:100E50002F4745542F3F247269643D256875000073
:100E60004661696C656420636F6E73747275637438
:100E7000696E67206765742050726F7020746F70A0
:100E800069632E004661696C656420636F6E7374DC
:100E900072756374696E67206D717474206D65730B
:100EA000736167652E0000004661696C656420709F
:100EB00075626C697368696E6720746F206D7174F8
:100EC0007420636C69656E742E0000000120009030
:100ED0002A462146002060472DE9F04383B00446AE
:100EE0000F461646FFF744F970810021317501461F
:100EF0000FF2D400DFF894590FF2001908F081F8CE
:100F00005FEA00080FD108F065FB5FEA000807D030
:100F10000FF2041001904FF4607300F0C9F8C0475D
:100F200040F281354CE0F8680CF075FF00F0BCF839
:100F300001467868009000223B6870890CF0D2FC72
:100F400007000ED108F046FB070007D00FF2F400AF
:100F5000019040F2893300F0ABF8B84740F28A358F
:100F60002CE0A06D314607F07DFF68B108F032FB40
:100F7000844630B10FF2EC0001904FF4647300F03E
:100F80009DF840F2913516E0606B394606F0B1FDF0
:100F900068B108F01FFB844630B10FF2EC000190FD
:100FA00040F2973300F08AF84FF4667503E07068FA
:100FB000401C7060002538460CF0FEFC00F084F800
:100FC0002846BDE8FE83000024696F746875622FAF
:100FD0007477696E2F50415443482F70726F70655B
:100FE00072746965732F7265706F727465642F3FD8
:100FF000247269643D256875000000007075626C9C
:101000006973685F6465766963655F7477696E5F4D
:101010006D657373616765004661696C6564206323
:101020006F6E737472756374696E67207265706F2A
:10103000727465642070726F7020746F7069632EB3
:10104000000000004661696C65642063726561742C
:10105000696E67206D717474206D65737361676567
:10106000000000004661696C6564207265747269F5
:101070006576696E67207469636B636F756E7465FE
:101080007220696E666F00004661696C656420704D
:1010900075626C697368696E67206D717474206D18
:1010A00065737361676500000746404608F034B910
:1010B000012000904A4629460020704701200090F8
:1010C0004A46294600206047404608F017B92DE9F6
:1010D000FC470025032B0446914666D3CE18042B0B
:1010E000DFF8A8A70FF2D8082FD3F71E30A1384693
:1010F00008F076FC90B9494620460BF00DFA20B373
:1011000008F068FA844630B10FF2D80001904FF42D
:10111000717300F0EDF840F2C53516E025A13846B0
:1011200008F05EFC88B9494620460BF0D4F960B15E
:1011300008F050FA844630B10FF2E40001904FF409
:10114000737300F0D5F840F2CD35B61E1AA13046C3
:1011500008F046FC90B9494620460BF01EFA20B331
:1011600008F038FA040006D00FF2F400019040F2C3
:10117000D73300F0B7F84FF4767516E00FA130467C
:1011800008F02EFC88B9494620460BF055FA60B1AC
:1011900008F020FA040006D00FF2081001904FF476
:1011A000787300F09FF840F2E1352846BDE8F687F5
:1011B0006D69640063696400637400006365000026
:1011C0007365744D7174744D6573736167655072A6
:1011D0006F70657274794966506F737369626C657C
:1011E000000000004661696C656420746F207365BF
:1011F0007420494F544855425F4D4553534147452C
:101200005F48414E444C4520276D657373616765A7
:101210004964272070726F70657274792E00000027
:101220004661696C656420746F2073657420494F52
:10123000544855425F4D4553534147455F48414EE1
:10124000444C452027636F7272656C6174696F6EE0
:101250004964272070726F70657274792E000000E7
:101260004661696C656420746F2073657420494F12
:10127000544855425F4D4553534147455F48414EA1
:10128000444C452027637573746F6D436F6E7465AE
:101290006E7454797065272070726F7065727479FE
:1012A0002E0000004661696C656420746F207365D0
:1012B0007420494F544855425F4D4553534147456B
:1012C0005F48414E444C452027636F6E74656E74D1
:1012D000456E636F64696E67272070726F70657208
:1012E00074792E000120009042465146002020478C
:1012F0000120009042465146002060472DE9F14F01
:1013000088B0084607F062FE0690DFF880850FF28D
:10131000042970B908F05EF95FEA000A06D00FF2FE
:101320000C20019040F2EF3300F096F94FF47C7AF4
:10133000E9E008F055F90028059000F0D3800898FE
:101340000BF0A1F8079070B908F044F95FEA000AC1
:1013500006D00FF20020019040F2FA3300F07CF941
:1013600040F2FB3ABAE007F003FE049070B908F0CF
:1013700031F95FEA000A06D00FF20820019040F22E
:10138000024300F069F940F2034AA7E04FF0000A77
:101390001FE000F05CF900F065F900990020785436
:1013A0002B4608983A463146FFF791FE68B108F09F
:1013B00011F95FEA000A06D00FF2E810019040F23E
:1013C0002F4300F049F94FF4866A01F09DFD02F0C9
:1013D00077F9049905984EA208F063F95AEA0000DB
:1013E00079D1049807F098FF834608F0F3FB07468D
:1013F000BBF1000F18BF002F6DD00024DFF8600D87
:1014000000EBC4004268DFF8580D50F8341058461D
:1014100008F0A6FAC0B1641C0A2CEFD35C4694F91C
:1014200000000100D5D0BAF1000FD2D13D284FD134
:1014300000F002F900F005F90746002E18BF002F52
:1014400029D140F24A4AC0E75C4694F90000010005
:10145000BFD0BAF1000FBCD13D2819D100F0ECF893
:1014600000F0EFF80746002E18BF002F91D108F0CA
:10147000B1F85FEA000A08D00397029640F22243CF
:101480000FF2401001F0BEF8D04740F2234A9CE72B
:10149000641CDAD19DE700F0DAF800F0E3F8009977
:1014A000002078543A46079831460BF07AFF00281E
:1014B0008BD008F08FF85FEA000A06D00FF23C10DC
:1014C000019040F2564300F0C7F840F2574A7CE7DB
:1014D000641CA4D17DE7049807F010FF059808F07C
:1014E00050F90DE008F076F85FEA000A06D00FF236
:1014F0002410019040F26B4300F0AEF840F26C4AC9
:10150000069807F0FBFE504609B0BDE8F08F0000DA
:1015100026000000657874726163744D71747450B4
:10152000726F706572746965730000004661696C62
:1015300075726520636F6E737472756374696E671C
:1015400020737472696E6720746F706963206E61B6
:101550006D652E004661696C75726520746F20722E
:101560006574726965766520496F544875624D658A
:1015700073736167655F70726F70657274696573AC
:101580002E0000004661696C75726520746F2061E1
:101590006C6C6F6361746520535452494E475F6EA3
:1015A00065772E00556E61626C6520746F207365DF
:1015B00074206D6573736167652070726F706572FA
:1015C000747900004661696C656420616C6C6F63BE
:1015D0006174696E672070726F7065727479206EC5
:1015E000616D65202825702920616E642F6F72203F
:1015F00076616C7565202825702900004D61705F4B
:101600004164644F72557064617465206661696CF1
:1016100065642E00556E61626C6520746F20637284
:101620006561746520546F6B656E697A6572206FB1
:10163000626A6563742E0000A4EB0B05681C04F05D
:101640001CB80646781B0090401C04F016B82A46C9
:10165000594630460CF08ABC012000904A4641466B
:101660000020504700207055611C009A38460CF04D
:101670007DBC2DE9F0475FEA000A0C4618BF002C3C
:1016800086B032D00CF0BEF90700804D0FF2002971
:1016900009D107F09FFF040027D00FF2102001901E
:1016A00040F27C43D3E0FEF7F7FE01283ED103ABC6
:1016B00004AA02A93846FEF72BFE48B107F08AFFBC
:1016C000040012D00FF20C20019040F28A43BEE0D9
:1016D00050460CF025FA05469DF8080030B16B68BD
:1016E0002A68206B012109F0F8FDCCE0A06E00E033
:1016F000006804F168018842F7D0A0F11806049947
:1017000072899142F4D108F08AFA96F91410206B8C
:10171000012905D16B682A68002109F0DEFD03E08C
:10172000039AF16809F003FE3046AAE002285FD16F
:1017300007F01EFC5FEA000809D107F04BFF040028
:10174000D3D00FF2B410019040F2B5437FE00420F3
:1017500003F093FF06000BD107F03CFF040044D0D8
:101760000FF2C410019040F2BC4300F07DF93CE060
:1017700007F0FEFB020032600BD107F02BFF0400E4
:1017800031D00FF2D410019040F2C34300F06CF955
:1017900029E041463846FEF7F6FC48B107F01AFF4B
:1017A00004001DD00FF2D81001904FF4996315E09A
:1017B00050460CF0B5F9FFF777FC014600967B68C0
:1017C0003A68206B09F040FD78B107F003FF040090
:1017D00006D00FF2D010019040F2D24300F044F94D
:1017E000306807F08BFD01F08FFBFFF76DFC4AE0DE
:1017F00050460CF095F9416800680AF0A8FC060014
:1018000009D107F0E7FE04003DD00FF2C8100190A7
:1018100040F2E1431BE03946FFF770FD48B107F0A5
:10182000D9FE04002FD00FF2DC1001904FF49D631D
:101830000DE0082003F021FF07000BD107F0CAFEDE
:10184000040020D00FF2E010019040F2EF4300F0CE
:101850000BF918E03E60002078603946206B09F0F3
:1018600095FD80B907F0B6FE040006D00FF2C8104F
:10187000019040F2F94300F0F7F830460AF089FF92
:10188000384604F055F806B0BDE8F087E83D010899
:101890006D7174745F6E6F74696669636174696F8A
:1018A0006E5F63616C6C6261636B00004661696CC2
:1018B0007572653A204E554C4C20746F70696320E8
:1018C0006E616D6520656E636F756E7465726564BB
:1018D000000000004661696C7572653A20706172A3
:1018E00073696E672064657669636520746F7069DB
:1018F0006320696E666F00004661696C7572653AB7
:1019000020616C6C6F636174696E67206D657468CB
:101910006F645F6E616D6520737472696E672076A7
:10192000616C7565000000004661696C7572653A0E
:1019300020616C6C6F636174696E67204445564921
:1019400043455F4D4554484F445F494E464F206FD5
:10195000626A6563740000004661696C7572652097
:10196000636F6E737472756374696E6720726571EC
:10197000756573745F696420737472696E670000C3
:101980004661696C7572653A207265747269657634
:10199000652064657669636520746F70696320698A
:1019A0006E666F004661696C7572653A20496F54C6
:1019B000487562436C69656E745F4C4C5F44657634
:1019C0006963654D6574686F64436F6D706C6574B1
:1019D000650000004661696C7572653A20496F7454
:1019E000487562204D657373616765206372656138
:1019F00074696F6E20686173206661696C65642E1E
:101A0000000000006661696C75726520657874720B
:101A1000616374696E67206D7174742070726F7089
:101A20006572746965732E006D616C6C6F632066FE
:101A300061696C6564000000496F54487562436CCD
:101A400069656E745F4C4C5F4D6573736167654388
:101A5000616C6C6261636B2072657475726E656433
:101A60002066616C73650000012000904A4629469B
:101A7000002020472DE9F0435FEA030985B01746AF
:101A800012D009F1300609F17004DFF8085D0FF299
:101A9000881869B3012918BF042906D0052900F068
:101AA0008880082900F0B080B2E0BFB1606809F119
:101AB00074018842F8D0A0F114043988228A05689C
:101AC000914209D108F0ABF8A06800224946FEF720
:101AD0003BFD204603F02CFF2846E8E707F07AFD9F
:101AE0000400E1D00FF25410019040F2275387E038
:101AF000002F54D097F90100010010D12020207050
:101B00000120B0740220F073E06806F0EBFE30684C
:101B100005B0BDE8F0430622002109F0B8BC042856
:101B200003D10020B074022202E0052805D1012271
:101B30000121306809F0ABFC03E0012804BF00205C
:101B4000B07407F047FD814628B397F901000528D6
:101B500016D8DFE800F0120F0C0906030FF21C1173
:101B600010E00FF228110DE00FF238110AE00FF229
:101B7000481107E00FF24C1104E00FF2601101E090
:101B80000FF264110290039140F24B530FF2601078
:101B900002F091F8C8470320F073E12037E007F026
:101BA00019FD040034D00FF26C10019040F2525332
:101BB00026E0E7B100260FF2901913E07868805D07
:101BC00080280ED107F006FD844650B10120029610
:101BD0000090CDF804904FF4AC63424629460020B3
:101BE000E047761CB8688642E8D390200FE007F003
:101BF000F1FC04000CD00FF27C1001904FF4AD63A7
:101C000002F053F8A04703E00020F073E0202070BA
:101C100005B0BDE8F08300006D7174745F6F70658E
:101C2000726174696F6E5F636F6D706C6574655F10
:101C300063616C6C6261636B000000004661696CFB
:101C40007572653A204D5154545F434C49454E548A
:101C50005F4F4E5F5055424C4953485F41434B20C4
:101C60007075626C6973685F61636B207374727501
:101C70006374757265204E554C4C2E004E6F742067
:101C8000417574686F72697A65640000426164200E
:101C9000557365726E616D652F50617373776F72E6
:101CA0006400000053657276657220556E6176613E
:101CB000696C61626C65000049642052656A656305
:101CC00074656400556E61636365707461626C6510
:101CD0002056657273696F6E000000004163636592
:101CE0007074656400000000556E6B6E6F776E0057
:101CF000436F6E6E656374696F6E204E6F74204122
:101D0000636365707465643A20307825783A2025DD
:101D1000730000004D5154545F434C49454E545F8D
:101D20004F4E5F434F4E4E41434B20434F4E4E412B
:101D3000434B20706172616D657465722069732018
:101D40004E554C4C2E0000005375627363726962ED
:101D5000652064656C6976657279206661696C7569
:101D60007265206F662073756273637269626520A5
:101D7000257A75004661696C7572653A204D51543B
:101D8000545F434C49454E545F4F4E5F5355425349
:101D900043524942455F41434B20535542534352BE
:101DA0004942455F41434B20706172616D657465C6
:101DB00072206973204E554C4C2E000038B50446F5
:101DC00004F13405287B28B968680CF00CFA014648
:101DD000FEF771F9286800F00AF868680CF028F935
:101DE00000206860E872E02084F8700031BD0022B5
:101DF000002105F0EBBF00002DE9FE4314000F4663
:101E0000DFF890690FF2D4085AD0251D052F31D87C
:101E1000DFE807F0031D1D050A1D042200E005226E
:101E2000E86A00F0E6FB25E007F0D4FB844650B1F9
:101E30000FF2BC00019040F2A653012000904246F0
:101E400031460020E0472046FFF7B8FF12E007F0D8
:101E5000C1FB814670B13846FEF7D2F8029040F2DD
:101E6000AE530FF2CC000190424601200090314663
:101E70000020C84704F13F0090F9001003291CBF5F
:101E800000210170E12184F8701000218170286820
:101E900018B1286940F004002861686818B1286901
:101EA00040F001002861A86818B1286940F00200DC
:101EB0002861E86878B1286940F0100028610AE0DC
:101EC00007F088FB040006D00FF29800019040F262
:101ED000CB5300F027FABDE8F78300006D717474EE
:101EE0005F6572726F725F63616C6C6261636B00DD
:101EF0004D7174742050696E6720526573706F6EF7
:101F0000736520776173206E6F7420656E636F75E3
:101F10006E74657265642E20205265636F6E6E6507
:101F20006374696E67206465766963652E2E2E0082
:101F3000494E5445524E414C204552524F523A2040
:101F4000756E6578706563746564206572726F7212
:101F50002076616C756520726563656976656420BD
:101F6000257300004661696C7572653A206D717465
:101F7000742063616C6C6564206261636B207769B7
:101F80007468206E756C6C20636F6E746578742E47
:101F9000000000002DE9F0430446251D8BB029699F
:101FA000002960D02868002700260DF1080848B1F4
:101FB000490707D507F0B0F902900427012088F8F7
:101FC00004000126686848B1297CC90706D507F0D6
:101FD000A3F900F085F847F00107761CA86848B11E
:101FE000297C890706D507F097F900F079F847F0C2
:101FF0000207761CE86848B1297CC90606D507F0B7
:102000008BF900F06DF847F01007761CDFF8848735
:102010000FF26009D6B12046FEF7AAF80146286BF8
:10202000334602AA05F0F8FD48B107F0D3FA0500DF
:1020300017D00FF25800019040F2F9530FE02869D1
:10204000B8432861802084F870000AE007F0C2FAE3
:10205000050006D00FF26400019040F2056300F025
:10206000A3FD802000E0302084F870000BB0BDE8B4
:10207000F0830000537562736372696265546F4D3B
:1020800071747450726F746F636F6C004661696C29
:102090007572653A206D7174745F636C69656E74F6
:1020A0005F737562736372696265207265747572BD
:1020B0006E6564206572726F722E00004661696CF5
:1020C0007572653A207375627363726962655F74D5
:1020D0006F70696320697320656D7074792E0000DC
:1020E00048F8360002A901EBC601002008717047CC
:1020F000FEB507460C460AF0C0F9DFF898560FF215
:102100006406C8B9224602A938460AF067F988B1C0
:1021100007F060FA07000AD00FF2600001904FF458
:10212000C36301200090324629460020B8470020B2
:10213000029020600298FEBD0128F8D138460AF0CE
:1021400092F9029048B907F045FA0700EFD00FF274
:102150005C00019040F22263E3E707F03BFDE8E713
:102160008801002052657472696576654D657373E8
:102170006167655061796C6F616400004661696CEC
:1021800075726520726573756C742066726F6D2050
:10219000496F544875624D6573736167655F476544
:1021A0007442797465417272617900004661696CAC
:1021B00075726520726573756C742066726F6D2020
:1021C000496F544875624D6573736167655F476514
:1021D00074537472696E67002DE9F041044604F18E
:1021E000180586B0286A002856D1286807F094F8A8
:1021F000E96E02912A6F03926A6F0492AA6F0592A8
:1022000001B102A92A69DFF88C650FF294080FF278
:10221000B0079047286278B907F0DCF9040008D0CD
:1022200001970120009040F247634246314600206A
:10223000A0474FF4C96030E0A86E0CF02BFA0328D9
:1022400014D1296AA86E0CF0E3F978B107F0C2F94D
:10225000040008D00197012000904FF4CA63424661
:1022600031460020A04740F2516016E0686C98B1FA
:10227000296A04F0C5F868B107F0ACF9040006D08B
:102280000FF26800019040F2636300F04BF840F2F7
:10229000646002E0FDF70EFF002006B0BDE8F081AB
:1022A0004765745472616E73706F727450726F769A
:1022B0006964657249664E6563657373617279001E
:1022C000556E61626C6520746F2063726561746520
:1022D00020746865206C6F776572206C6576656C1C
:1022E00020544C53206C617965722E004661696CF4
:1022F00065642066656564696E67206578697374D6
:10230000696E67206F7074696F6E7320746F206ED2
:10231000657720544C5320696E7374616E63652E2B
:102320000000000001200090424631460020204776
:102330002DE9F04782460AF118078AB0B86EDFF837
:1023400054840FF298190CF0A5F9002600240128F6
:1023500018BF052817D1B86806F0DEFF0146BA6C31
:10236000B86E0CF0AEF9060037D107F033F904006F
:1023700006D00FF27C10019040F2A56300F086FDBC
:1023800040F2A664A6E0042827D1B86E0CF071FADA
:10239000022805D1B86900F02BF940F2AF6499E04A
:1023A00030B9B869022200F024F940F2B46491E037
:1023B000B86E002200210CF084F906000DD107F060
:1023C00009F9040006D00FF26810019040F2BB63D7
:1023D00000F05CFD40F2BC647CE09AF894000028B8
:1023E0003AD1B8690FF2641102AA09F043F9022840
:1023F0001CBF0298002808D10FF260120FF264117E
:102400000FF2701006F0FDFD01E00BF093F90500EE
:102410000BD107F0DFF88446F0B10FF264100190A1
:1024200040F2D76300F0E8F816E07869294606F034
:102430008BFE58B107F0CEF8844650B10FF264100D
:10244000019040F2DD6300F0D7F802E001208AF845
:102450009400284606F052FF03A81C210CF04EFC05
:10246000786806F059FF03900594786906F054FFE8
:10247000069006B10796B88DADF820008DF8234080
:1024800001208DF824005046FFF7A6FEE8B9396A0E
:10249000F86903AA05F0A3FA88B107F09BF80400D5
:1024A0000AD0386806F038FF02904FF4DF630FF26D
:1024B0001C1000F0A7F8A04740F2F96407E0386C60
:1024C0000AF1480106F0CEFC01E040F203740EB1BF
:1024D00000F01AFD20460AB0BDE8F08753656E642F
:1024E0004D717474436F6E6E6563744D7367000055
:1024F0006661696C7572652067657474696E6720C2
:1025000073617320746F6B656E2066726F6D204906
:102510006F54487562436C69656E745F4175746889
:102520005F4765745F536173546F6B656E2E000077
:102530006661696C7572652067657474696E672081
:1025400073617320546F6B656E2E000070726F6440
:102550007563745F696E666F00000000312E312E66
:1025600033310000696F74687562636C69656E74FD
:102570000000000025732525324625730000000069
:102580004661696C6564206F627461696E696E672B
:10259000207468652070726F6475637420696E665C
:1025A0006F0000004661696C656420636F6E636153
:1025B00074656E6174696E67207468652070726FEF
:1025C0006475637420696E666F0000006661696CF3
:1025D00075726520636F6E6E656374696E672074D3
:1025E0006F20616464726573732025732E00000090
:1025F0000022012108F04BBF012000904A464146CD
:102600000020604701904A4601200090414600208A
:1026100070472DE9FF4D804608F13F060025707890
:1026200000281ED101208DF8080008F170047057B1
:1026300008F1480720BBF078002812D0E06802A912
:1026400006F0B0F910B99DF90800C8B9386908F169
:10265000500106F007FC28B17868401C78604FF400
:10266000E46593E04046FFF763FE28B17868401CBC
:10267000786040F2277589E0012030707D6085E048
:10268000705701282DD13869424E0FF20C1403A95E
:1026900006F0E8FB78B106F09DFF5FEA000807D07E
:1026A0000FF20C10019040F2377300F0B3F8C047FE
:1026B0004FF4E7656AE001F00DF9B8F84610814281
:1026C00064D206F087FF070007D00FF21C100190BC
:1026D00040F23C7300F09EF8B8474046FFF76EFBAF
:1026E00054E0022852D13869694606F0BBFB28B194
:1026F0007868401C78604FF4E96547E000983968D5
:10270000401A4FF47A71B0FBF1F00CF005FB8246F1
:10271000B8698B460CF000FBDFF8CC2ADFF8CC3A26
:102720000CF008FB52465B460CF0D6FB2ED208F1AB
:102730000407786B0BF057FD01464046FDF77FFC20
:10274000386BFFF754FB786B0BF072FCF86A7D6313
:10275000FFF74EFF3570E2202070B570386818B171
:10276000386940F004003861786818B1386940F081
:1027700001003861B86818B1386940F0020038616A
:10278000F86818B1386940F010003861284604B084
:10279000BDE8F08DE83D0108496E697469616C69B6
:1027A0007A65436F6E6E656374696F6E000000003A
:1027B0006661696C656420766572696679696E67C1
:1027C000204D5154545F434C49454E545F5354413E
:1027D0005455535F434F4E4E454354494E47207422
:1027E000696D656F757400006D7174745F636C69F9
:1027F000656E742074696D6564206F7574207761EF
:102800006974696E6720666F7220434F4E4E414374
:102810004B00000001200090224631460020704706
:102820002DE9F04F054683B08A469346982002F082
:1028300024FF0400DFF8B8890FF2B8190BD106F0B5
:10284000C9FE050006D00FF2CC10019040F27A7359
:1028500000F0AAF9CBE098210CF050FA06F0E4FA67
:1028600004F14C06F06048B906F0B4FE050010D043
:102870000FF2F050019040F2817370E000210520CA
:1028800006F048F804F17007F86048B906F0A2FEB7
:10289000050073D00FF2C01001904FF4F1635EE0B9
:1028A000686806F093FBE06148B906F093FE050006
:1028B00064D00FF2CC10019040F28E734FE06B6841
:1028C0006A6929690FF2D81006F09BFB206248B9AB
:1028D00006F080FE050051D00FF2D810019040F2B2
:1028E00094733CE069680FF2F01006F08AFB2060F8
:1028F00048B906F06FFE050040D00FF2F8100190C5
:1029000040F29C732BE000942246DFF8E838DFF8B1
:10291000E818DFF8E80804F0EDFF606348B906F056
:1029200059FE05002AD00FF2F810019040F2A5736D
:1029300015E0A86930B96A6929690FF2082006F024
:1029400060FB01E006F042FBA06158B906F042FED0
:10295000050013D00FF2F410019040F2B77300F0AD
:1029600023F90BE00FF2082000906B686A6929696F
:102970000FF2082006F045FBE06220B92046FDF783
:1029800067FB002433E004F1740007F03EF904F122
:10299000680007F03AF904F13E00002181700170EF
:1029A0004170C17001210171A18700212163A163E0
:1029B0006162C6F818A010213970F021C1801E2173
:1029C00001810020306070606060A060E060606144
:1029D0002061707230720CF096FA0CF099FAC7F818
:1029E00010B0002084F894004FF4616070612046BC
:1029F000BDE8FE8F496E697469616C697A655472CD
:102A0000616E73706F727448616E646C654461745A
:102A100061000000436F756C64206E6F74206372F8
:102A200065617465204D515454207472616E7370E9
:102A30006F72742073746174652E204D656D6F72B2
:102A40007920616C6C6F636174696F6E2066616977
:102A50006C65642E000000004661696C656420634B
:102A600072656174696E672064656661756C742057
:102A7000726574727920636F6E74726F6C000000FF
:102A80006661696C75726520636F6E7374727563CD
:102A900074696E67206465766963655F69642E009A
:102AA00025732E25732F646576696365732F2573EF
:102AB000000000006661696C75726520636F6E735B
:102AC0007472756374696E67206465766963657393
:102AD000506174682E000000646576696365732F29
:102AE00025732F6D657373616765732F6576656EEA
:102AF00074732F00436F756C64206E6F7420637263
:102B00006561746520746F7069635F4D717474459D
:102B100076656E7420666F72204D5154540000002B
:102B20006661696C75726520696E697469616C694A
:102B30007A696E67206D71747420636C69656E7458
:102B40002E00000025732E25730000006661696C5D
:102B500075726520636F6E737472756374696E67E6
:102B600020686F737420616464726573732E000053
:102B7000323031362D31312D3134000025732E2580
:102B8000732F25732F6170692D76657273696F6E6F
:102B90003D257326446576696365436C69656E748B
:102BA000547970653D000000012000904A4641467E
:102BB000002028472DE9F04383B00C46DFF830862B
:102BC0000FF2241908B1210009D106F003FD040019
:102BD00078D00FF23810019040F2EF7370E0876800
:102BE0004FB906F0F7FC04006CD00FF24C100190C6
:102BF00040F2F57364E00568002D1CBF29680029C8
:102C00000DD0696859B1AA68002A1CBFEA68002A79
:102C100005D12A69002A1CBF6A69002A09D106F079
:102C2000D9FC04004ED00FF24010019040F603038F
:102C300046E046684EB906F0CDFC040042D00FF2E3
:102C40007010019040F609033AE0084606F0C2FF12
:102C5000812800D248B906F0BDFC040032D00FF242
:102C60007C10019040F60F032AE0A86860B106F0DE
:102C7000B1FF48B906F0AEFC040023D00FF290106B
:102C8000019040F615031BE0E86860B106F0A2FF72
:102C900048B906F09FFC040014D00FF29C1001907C
:102CA00040F61B030CE0286906F094FF60B906F0BB
:102CB00091FC040006D00FF2AC10019040F6210305
:102CC00000F0E4F800200CE03A4631462846FFF7D1
:102CD000A7FD30B100F1280100220C60CA654A66E8
:102CE0008A66BDE8FE830000496F544875625472DD
:102CF000616E73706F72745F4D5154545F436F6DAA
:102D00006D6F6E5F4372656174650000496E766138
:102D10006C696420417267756D656E743A20436F0B
:102D20006E66696720506172616D657465722069B5
:102D300073204E554C4C2E00496E76616C696420B0
:102D4000417267756D656E743A20617574685F6D68
:102D50006F64756C655F68616E646C652069732073
:102D60004E554C4C29000000496E76616C69642018
:102D7000417267756D656E743A2075707065724347
:102D80006F6E6669672073747275637475726520FF
:102D9000636F6E7461696E7320616E20696E766117
:102DA0006C696420706172616D6574657200000009
:102DB000496E76616C696420417267756D656E74E9
:102DC0003A2077616974696E67546F53656E642049
:102DD0006973204E554C4C2900000000496E766105
:102DE0006C696420417267756D656E743A20446544
:102DF000766963654964206973206F6620616E207F
:102E0000696E76616C69642073697A650000000000
:102E1000496E76616C696420417267756D656E7488
:102E20003A206465766963654B657920697320652E
:102E30006D70747900000000496E76616C696420E1
:102E4000417267756D656E743A2064657669636575
:102E5000536173546F6B656E20697320656D707478
:102E600079000000496E76616C6964204172677573
:102E70006D656E743A20696F744875624E616D6558
:102E800020697320656D7074790000000120009046
:102E90004A4641460020204770B5040033D004F173
:102EA0003005012028742046FEF788FF0CE004F16D
:102EB000740006F0BEFEA0F114060122B06821469F
:102EC000FDF742FB00F020F804F1740006F0A0FECC
:102ED0000028ECD004F1680006F09AFE70B904F105
:102EE000680006F0A6FEA0F118062868F1684FF405
:102EF000CC7208F01CFA00F007F8EBE72046BDE8BA
:102F00007040FDF7A5B870BD304602F011BD2DE947
:102F1000FC415FEA0008B64C0FF2B0050DD106F097
:102F200059FB5FEA000805D000F0AEF940F65B03FC
:102F300000F0B6F840F65C0644E008F1080738688F
:102F4000C0B90FF2BC0006F041F8386070B906F065
:102F500041FB5FEA000806D00FF2B800019040F68E
:102F6000670300F09DF840F668062BE0F86840F033
:102F70000100F86000267868C0B90FF2CC0006F0B6
:102F800025F8786070B906F025FB5FEA000806D0E6
:102F90000FF2DC00019040F67B0300F081F840F670
:102FA0007C060FE0F86840F00200F86098F87000C6
:102FB000202818BF102805D0E0281EBFE128802057
:102FC00088F870003046BDE8F6810000496F54482B
:102FD00075625472616E73706F72745F4D515454A8
:102FE0005F436F6D6D6F6E5F53756273637269627D
:102FF000655F4465766963655477696E000000001B
:1030000024696F746875622F7477696E2F726573A7
:103010002F2300004661696C7572653A20756E61F8
:10302000626C6520636F6E737472756374696E672A
:10303000207265706F7274656420737461746520AA
:10304000746F70696300000024696F746875622F83
:103050007477696E2F50415443482F70726F7065BA
:1030600072746965732F646573697265642F2300D8
:103070004661696C7572653A20756E61626C652097
:10308000636F6E737472756374696E67206E6F74AC
:1030900069667920737461746520746F7069630068
:1030A000012000902A462146002040471CB504001C
:1030B00016D0A06840B16069400840006061A06817
:1030C00006F01CF90020A060E068C8B1606920F03B
:1030D00002006061E06806F011F90020E06013BDB5
:1030E00006F078FA04000BD00FF218000FF2480235
:1030F00000F027FC40F6AA03012000900020A04722
:1031000013BD0000496E76616C6964206172677559
:103110006D656E7420746F20756E73756273637263
:10312000696265202868616E646C65206973204E51
:10313000554C4C292E000000496F5448756254725A
:10314000616E73706F72745F4D5154545F436F6D55
:103150006D6F6E5F556E7375627363726962655FE2
:103160004465766963655477696E0000F0B50600C2
:1031700083B01F4C0FF288050CD106F02BFA060025
:1031800005D000F081F840F6B60300F087F940F66C
:10319000B700FEBD06F110073868B8B90FF2940009
:1031A00005F014FF386068B906F014FA060006D07E
:1031B0000FF29800019040F6C20300F06FF940F65C
:1031C000C300FEBD786840F010007860002096F8DB
:1031D0007010202918BF102905D0E0291EBFE12951
:1031E000802186F87010FEBD9A9999999999E93FC6
:1031F000E83D0108F91D0108751A01087316010858
:10320000496F544875625472616E73706F72745F67
:103210004D5154545F436F6D6D6F6E5F53756273A4
:1032200063726962655F4465766963654D6574685C
:103230006F64000024696F746875622F6D6574682F
:103240006F64732F504F53542F2300004661696CF5
:103250007572653A20756E61626C6520636F6E737E
:103260007472756374696E6720646576696365203E
:103270006D6574686F6420737562736372696265EB
:1032800020746F70696300000FF2040001907047B2
:10329000496E76616C69642068616E646C6520704B
:1032A0006172616D657465722E204E554C4C2E0016
:1032B000FEB506000FF630340FF258051DD0306908
:1032C00030B306F029F800F041F800F0ABF950B146
:1032D00006F080F9070006D00FF2F820019040F6C2
:1032E000F20300F0A5F9306906F008F8002030611B
:1032F000706920F010007061F7BD06F06BF90600F0
:1033000006D00FF2F820019040F6FD0300F0C6F859
:10331000F7BD0000496F544875625472616E737056
:103320006F72745F4D5154545F436F6D6D6F6E5F7C
:10333000556E7375627363726962655F4465766921
:1033400063654D6574686F6400000000029030464C
:10335000FCF70EBFF0B583B00E460FF68C240FF2CB
:10336000780550B36EB906F035F9060006D00FF2B5
:103370009C00019040F60B1300F090F840F60C17FB
:1033800028E00093134632680899FDF71BFC68B1EA
:1033900006F020F9070006D00FF29800019040F6E1
:1033A000131300F045F940F6141700E000273068C9
:1033B00005F0A4FFFFF7A8FD0CE006F00BF90600EE
:1033C00040F6211706D00FF29800019040F6221324
:1033D00000F064F83846FEBD496F54487562547277
:1033E000616E73706F72745F4D5154545F436F6DB3
:1033F0006D6F6E5F4465766963654D6574686F6473
:103400005F526573706F6E73650000004661696C92
:103410007572653A204445564943455F4D455448C9
:103420004F445F494E464F20776173204E554C4CB8
:10343000000000004661696C7572653A2070756223
:103440006C697368696E6720646576696365206D71
:103450006574686F6420726573706F6E73650000C9
:103460004661696C7572653A20696E76616C696453
:1034700020494F544855425F4445564943455F48AB
:10348000414E444C4520706172616D6574657220D7
:1034900073706563696669656400000001200090CF
:1034A0002A46214600203047F0B5060083B00FF6CB
:1034B00038140FF274050CD106F08CF8060005D014
:1034C000FFF7E2FE40F62E13FFF7E8FF40F62F105D
:1034D000FEBD371DB86905F01FFF01460FF6E40079
:1034E00005F08FFD386068B906F074F8060006D064
:1034F0000FF25C00019040F63713FFF7CFFF40F664
:103500003810FEBD386940F00400386196F870004C
:10351000202818BF102805D0E0281EBFE1288020F1
:1035200086F870000020FEBD496F544875625472E1
:10353000616E73706F72745F4D5154545F436F6D61
:103540006D6F6E5F53756273637269626500000030
:103550004661696C75726520636F6E737472756312
:1035600074696E67204D65737361676520546F7071
:1035700069630000FEB506000FF66C040FF6EC055B
:103580001CD0706805F0C8FEFFF7E0FE00F04AF8B6
:1035900050B106F01FF8070006D00FF23800019076
:1035A00040F6561300F044F8706805F0A7FE0020BE
:1035B0007060706920F004007061F7BD06F00AF8D1
:1035C000060006D00FF23400019040F65E13FFF7BC
:1035D00065FFF7BD4661696C7572652063616C6C4F
:1035E000696E67206D7174745F636C69656E745F7A
:1035F000756E73756273637269626500496E766198
:103600006C696420617267756D656E7420746F20DB
:10361000756E73756273637269626520284E554CCE
:103620004C292E000146706B012302AA04F069BBED
:10363000012000902A46214600203847FEB50500AB
:10364000144618BF002C0E4611D105F0C3FF05002B
:1036500030D00FF668000FF63C0200F072F90294C9
:103660000120009040F668130020A84722E095F85A
:103670007000302822D1012E1ED1202001F0FDFF44
:10368000070017D03E7207F1180120680068F86043
:103690000020786005F1680006F0D1FA21683A460A
:1036A0002846FDF719FC50B107F1180006F0B7FAEB
:1036B00000F006F80120FEBD0320FEBD0220FEBD85
:1036C000384602F035B92DE9F04F5FEA000818BF1F
:1036D000002985B019D008F1080081624046FEF744
:1036E00098FF90B908F13F0494F9000003280DD128
:1036F00008F108000022C06AFEF77AFB0020207063
:1037000008F10800C06A04F0D2FB51E208F1580544
:10371000287E202818BF802803D14046FEF73AFCB7
:10372000EEE790280FF2C0690FF2B87B1FD108F1C5
:1037300008004068002804BFD8F80800002813D00B
:10374000A07888B94046FDF7D7FA10B90120A070DB
:103750000AE005F03FFF844630B10FF2AC700190F3
:1037600040F6C41300F0BEF830202876C8E73028B1
:10377000C6D1D5F81CA011E00B460246394640469A
:10378000FDF767F948B1504606F049FAB8680322D8
:103790004146FCF7D9FEFFF793FFB24608F17400EB
:1037A000824542D0DAF80060286803A9AAF114071C
:1037B00005F058FB00F08EF83D28EED3786802281B
:1037C0001CD3504606F02BFAB86802224146FCF79B
:1037D000BBFEFFF775FFE12028760020A070404671
:1037E000FEF7ECFAE86908F1740188421FBF002176
:1037F000A0F1140251600068F5D1CEE7B868006806
:1038000002A9FEF775FC0299002918BF0028B3D160
:1038100005F0E0FE00288446BFD00FF22070019032
:1038200040F6F41300F05EF8B7E7E868046808E0D3
:1038300006F0F5F907F1140108F1740006F0FFF93C
:10384000039CE868844291D020680390A4F10C06A0
:1038500002A93068FEF74CFC82460298002818BF87
:10386000BAF1000F0CD105F0B5FE00288446E7D070
:103870000FF2FC60019040F6112300F033F8DFE70F
:103880001C2001F0FAFE07000AD105F0A3FE002873
:103890008446D5D00FF20470019040F61923ECE76E
:1038A00000207860BE604046FCF762FC38825246D9
:1038B000029B39464046FDF7CCF800282046B7D099
:1038C00006F0ADF9032241463046FCF73DFEFFF716
:1038D000F7FEB5E703983968401A4FF47A71B0FBE8
:1038E000F1F07047012000905A4649460020604799
:1038F00030B504000D4618BF002D83B011D105F07E
:1039000069FE04000BD00FF200700FF2D06200F0DD
:1039100018F840F63D23012000900020A047012028
:103920003EBD606E06F074F938B104F1740006F023
:103930006FF9401E8041C00F00E001202870002078
:103940003EBD0FF2A441019070472DE9F04F0400F5
:103950008A4618BFBAF1000F85B015460FF28848A5
:103960000FF2B86900D07DB905F034FE01240500DE
:1039700009D00FF2D0600190009440F65D234A46D2
:1039800041460020A84785E004F1540604F13407BD
:10399000F06A0AF07FFE834651460FF2C03006F00F
:1039A0001FF818B929783170727808E051460FF283
:1039B000E06006F015F830B92A787270317838680E
:1039C00004F0E6FA26E051460FF2D83006F008F887
:1039D00010B92868F0601DE051460FF2B83005F0CC
:1039E000FFFF28B92868798A884213D0788211E0CD
:1039F00051460FF2943005F0F3FF68B92868398A10
:103A000088421EBF388297F90B0000281CBF204651
:103A1000FEF7D4F900243DE000F0C5F878B9BBF119
:103A2000020F18BFBBF1000F09D005F0D3FD040051
:103A300019D00FF26860019040F6952311E000F074
:103A4000ADF890B9BBF1020F18BFBBF1000F0CD05D
:103A500005F0C0FD040006D00FF28460019040F62E
:103A60009B23FFF713FA012414E051460FF248306C
:103A700005F0B6FF002876D1786868B105F0AAFD98
:103A8000040006D00FF29860019040F6A623FFF7DD
:103A9000FDF9022460B28BE0286848B905F09AFD70
:103AA0000400E0D00FF2B460019040F6AC23D8E7F8
:103AB000A968E868002918BF00280BD1814209D005
:103AC00005F088FD0400CED00FF2B460019040F6FE
:103AD000B323C6E7002003900290049068687063E7
:103AE00003A829680BF094FA48B105F073FD0400AF
:103AF000CFD00FF2CC60019040F6C123C7E7A96890
:103B000081B102A80BF084FA60B1039801F010FFB4
:103B100005F060FD0400BCD00FF2C460019040F6D7
:103B2000C923B4E7E968A1B104A80BF071FA80B128
:103B3000029808B101F0FCFE039801F0F9FE05F0CF
:103B400049FD0400A5D00FF2B860019040F6D523DE
:103B50009DE72046FCF75DFA039830630298B06356
:103B60000498F06356E700F01EF810B100F016F864
:103B700030B9BBF1020F03D0F06A01210AF038FD21
:103B80002046FEF729FB002883D178682A46514653
:103B90000AF08FFA04003FF47DAF64E751460FF25C
:103BA000D81005F01DBF51460FF2BC1005F018BF2C
:103BB00005B0BDE8F08F2DE9F041064600240F4620
:103BC000002E18BF002F84B00FF21C250FF2506892
:103BD00000D04BB905F0FEFC070062D00FF2686020
:103BE000019040F60D3343E0386848B905F0F2FC27
:103BF000070056D00FF2A060019040F6173337E06F
:103C0000786800281CBFB868002809D005F0E2FCDD
:103C1000070046D00FF2B860019040F61D3327E050
:103C2000F06905F079FB396805F0DAFE48B105F076
:103C3000D1FC070035D00FF20470019040F6253317
:103C400016E0D6F880000AF025FD012814D1D6F838
:103C500080000AF0F8FD796805F0C2FE60B105F059
:103C6000B9FC07001DD00FF21470019040F62B3301
:103C700000F01BF8B84714E096F83E0068B105F074
:103C8000A9FC844668B13868029040F632330FF2DE
:103C90002C7000F010F8E04703E0012086F83E00A9
:103CA0003446204604B0BDE8F08101200090424631
:103CB0002946002070470190424601200090294685
:103CC0000020704710B1002180F83E10704730B5D9
:103CD00083B008B9002414E0806905F05CF90400A1
:103CE0000FD105F077FC05000BD00FF22C700FF20E
:103CF0000072FFF726FE40F65833012000900020A6
:103D0000A84720463EBDF0B5060083B00FF2D804A8
:103D10000FF2407514D0306818B108F03AFD002455
:103D20000BE005F057FC070006D00FF25C70019025
:103D300040F66D33FFF77CFC0224FFF7E5F80BE05B
:103D400005F048FC060006D00FF25470019040F6D2
:103D50007533FFF7A3FB02242046FEBD6C6F67742A
:103D600072616365000000007835303963657274F4
:103D70006966696361746500783530397072697697
:103D80006174656B657900006B656570616C69765F
:103D900065000000636F6E6E6563745F74696D65C6
:103DA0006F7574007361735F746F6B656E5F6C69C0
:103DB000666574696D65000070726F78795F646123
:103DC00074610000646576696365732F25732F6DD8
:103DD000657373616765732F646576696365626F88
:103DE000756E642F23000000433A5C53544D333208
:103DF00043756265457870616E73696F6E5F436C81
:103E00006F75645F415A5552455F56312E312E30E1
:103E10005C4D6964646C6577617265735C54686954
:103E200072645F50617274795C617A7572652D6934
:103E30006F742D73646B2D635C696F746875625F5A
:103E4000636C69656E745C7372635C696F746875CA
:103E5000627472616E73706F72745F6D7174745F8F
:103E6000636F6D6D6F6E2E6300000000496F5448E4
:103E700075625472616E73706F72745F4D515454F9
:103E80005F436F6D6D6F6E5F556E737562736372B6
:103E900069626500496F544875625472616E73704F
:103EA0006F72745F4D5154545F436F6D6D6F6E5FF1
:103EB00050726F636573734974656D00496E766106
:103EC0006C69642068616E646C6520706172616DFC
:103ED0006574657220696F746875625F6974656D79
:103EE0003D257000496F544875625472616E73705D
:103EF0006F72745F4D5154545F436F6D6D6F6E5FA1
:103F0000446F576F726B00004661696C7572653A59
:103F10002073656E64696E672064657669636520E9
:103F20007477696E206765742070726F7065727443
:103F30007920636F6D6D616E642E00004661696C5F
:103F40007572652066726F6D206372656174696E4B
:103F500067204D65737361676520496F54487562CA
:103F60004D6573736167655F476574446174610093
:103F70004661696C75726520726573756C74206634
:103F8000726F6D20496F544875624D657373616738
:103F9000655F47657444617461000000416C6C6F3B
:103FA000636174696F6E204572726F723A20466168
:103FB000696C75726520616C6C6F636174696E67A2
:103FC000204D515454204D657373616765204465DD
:103FD0007461696C204C6973742E0000496F5448F9
:103FE00075625472616E73706F72745F4D51545488
:103FF0005F436F6D6D6F6E5F47657453656E64539D
:104000007461747573000000696E76616C69642078
:104010006172756D656E742E00000000496F544822
:1040200075625472616E73706F72745F4D51545447
:104030005F436F6D6D6F6E5F5365744F7074696F22
:104040006E000000696E76616C6964207061726157
:104050006D6574657220284E554C4C292070617333
:1040600073656420746F20496F544875625472619F
:104070006E73706F72745F4D5154545F436F6D6D0A
:104080006F6E5F5365744F7074696F6E2E00000021
:104090007261776C6F67747261636500783530396F
:1040A00063657274696669636174652073706563C2
:1040B00069666965642C2062757420617574686531
:1040C0006E7469636174696F6E206D6574686F6486
:1040D000206973206E6F742078353039000000003D
:1040E00078353039707269766174656B65792073E3
:1040F00070656369666965642C20627574206175FA
:104100007468656E7469636174696F6E206D65743F
:10411000686F64206973206E6F74207835303900C1
:1041200043616E6E6F74207365742070726F78795E
:10413000206F7074696F6E206F6E636520746865A0
:1041400020756E6465726C79696E6720494F2069CD
:104150007320637265617465640000004E554C4CB9
:1041600020686F73745F6164647265737320696E35
:104170002070726F7879206F7074696F6E730000B1
:104180004F6E6C79206F6E65206F66207573657257
:104190006E616D6520616E642070617373776F72FC
:1041A0006420666F722070726F7879207365747402
:1041B000696E677320776173204E554C4C00000088
:1041C00043616E6E6F7420636F7079204854545051
:1041D0002070726F787920686F73746E616D6500FE
:1041E00043616E6E6F7420636F7079204854545031
:1041F0002070726F787920757365726E616D6500DD
:1042000043616E6E6F7420636F7079204854545010
:104210002070726F78792070617373776F726400A9
:10422000496F544875625472616E73706F72745F37
:104230004D5154545F436F6D6D6F6E5F526567698A
:104240007374657200000000496F544875625472BF
:10425000616E73706F72745F4D5154545F436F6D34
:104260006D6F6E5F52656769737465723A2068613D
:104270006E646C652C20646576696365206F7220BE
:1042800077616974696E67546F53656E64206973F2
:10429000204E554C4C2E0000496F544875625472A4
:1042A000616E73706F72745F4D5154545F436F6DE4
:1042B0006D6F6E5F52656769737465723A206465ED
:1042C000766963654964206973204E554C4C2E0015
:1042D000496F544875625472616E73706F72745F87
:1042E0004D5154545F436F6D6D6F6E5F52656769DA
:1042F000737465723A20426F7468206465766963EE
:10430000654B657920616E642064657669636553E9
:104310006173546F6B656E206172652064656669B8
:104320006E65642E204F6E6C79206F6E6520636120
:104330006E20626520757365642E0000496F5448D5
:1043400075625472616E73706F72745F4D51545424
:104350005F436F6D6D6F6E5F5265676973746572F1
:104360003A20646576696365496420646F657320EB
:104370006E6F74206D617463682E0000496F54483D
:1043800075625472616E73706F72745F4D515454E4
:104390005F436F6D6D6F6E5F5265676973746572B1
:1043A0003A206465766963654B657920646F65734F
:1043B000206E6F74206D617463682E005472616E9C
:1043C00073706F727420616C7265616479206861CA
:1043D00073206465766963652072656769737465C7
:1043E0007265642062792069643A205B25735D0000
:1043F000496F544875625472616E73706F72745F66
:104400004D5154545F436F6D6D6F6E5F47657448D7
:104410006F73746E616D650043616E6E6F742070B2
:10442000726F76696465207468652074617267656F
:104430007420686F7374206E616D65202853545228
:10444000494E475F636C6F6E65206661696C656499
:10445000292E0000496F544875625472616E737062
:104460006F72745F4D5154545F436F6D6D6F6E5F2B
:1044700053656E644D657373616765446973706FEE
:10448000736974696F6E00006D6573736167652091
:1044900068616E646C65206973204E554C4C000059
:1044A0006D6573736167655F646174612069732012
:1044B0004E554C4C000000004FF4E072104402686E
:1044C000914203D343681A44914202D38068002882
:1044D000F5D17047DFF85C07016891B94FF480317E
:1044E00081604FF4805141604FF0FF31C160016144
:1044F0000421DFF844274161C2F8BC11DFF83C1702
:1045000001600120704701F1080313F0070305D093
:1045100001F10803C3F1080303F007031944D21A99
:104520008161C26042F001034B60114428234B605B
:10453000DFF800170969C16170472DE9F84F064699
:1045400001F1080010F0070008BF884607D001F10C
:104550000800C0F1080000F0070001EB000802F1BC
:10456000080010F0070006D002F10800C0F10800B2
:1045700000F0070002441546A5EB0800A0EB030974
:1045800008EB030B43F00300C8F80400AB4528BF59
:104590000AF08AFD2879C00758BF0AF085FDB9F1F5
:1045A000100F38BF0AF080FDB069854209D1F0686C
:1045B0004844F060C6F818B040F00100CBF80400A1
:1045C00070E1706985420BD1B0684844B060C6F8AC
:1045D00014B040F00101CBF804104BF8000061E189
:1045E000686800F00301012940F0AF80C008C000F6
:1045F0000190C00820283BD2D5F808A0EF680090B1
:10460000BD4208BF0AF050FD554508BF0AF04CFDF9
:1046100068680099C008C000B0EBC10F18BF0AF06D
:1046200043FD009806EBC00000F128018A4508D040
:1046300031698A45C0F08480DAF80C10A94240F054
:104640007F80574506D1009A306801219140884308
:10465000306077E02830874205D0306987426FD3D9
:10466000B868A8426CD1CAF80C70C7F808A069E015
:10467000EF68D5F818A0AF420CD0A868316988421D
:1046800023D3C168A94204BFB968A9421DD1C7603C
:10469000B8601CE005F11400076837B905F1100097
:1046A0000768A7B101E00846076807F114010A6826
:1046B000002A02BF07F110010A68002AF3D131690C
:1046C000884202D30021016001E00AF0EDFCBAF15A
:1046D000000F37D0E86906EB80004FF4987108446A
:1046E00001688D4208D10760A7B9EA6970680121A5
:1046F00091408843706025E03069824508D3DAF83C
:104700001000A84214BFCAF81470CAF8107001E073
:104710000AF0CAFCB7B13069874211D3C7F818A0B4
:10472000296929B1814226BF39618F610AF0BCFC39
:10473000686938B13169884202D37861876101E0E4
:104740000AF0B2FC019805448144686840084000C2
:1047500068604FEAD90549F00100CBF804004BF836
:104760000990202D23D206EBC50000F12807BA4698
:10477000B9F1100F38BF0AF097FC306820FA05F144
:10478000C90704D40121A9400843306006E0B86895
:10479000316988422CBF82460AF086FCC7F808B00F
:1047A000CAF80CB0CBF808A0CBF80C707AE05FEA3E
:1047B000192108BF002023D0B1F5803F28BF1F205A
:1047C0001ED2A1F58070000C00F008008140A1F518
:1047D0008052120C02F004029140A1F580431B0CA0
:1047E000C0F10E0003F00203801AC01A994000EBDA
:1047F000D130C11D29FA01F202F0010101EB4000A4
:1048000006EB80014FF498721144CBF81C00002293
:10481000CBF81420CBF81020726822FA00F3DB07E3
:1048200007D4012303FA00F010437060C1F800B010
:104830001DE009681F281DBF4008C0F1190009FAD2
:1048400000F0484600E011464A68D208D2004A45C6
:1048500014D0C20F01EB820202F1100340001A686B
:10486000002AF0D1306983421AD3C3F800B0CBF8E4
:104870001810CBF80CB0CBF808B013E03269886898
:10488000914228BF90420BD3C0F80CB0C1F808B0D9
:10489000CBF80800CBF80C100020CBF8180001E092
:1048A0000AF002FC08F10800BDE8E68F2DE9FA4D98
:1048B0000546DFF88003006882B008B9FFF70AFEFA
:1048C000DFF870030299806841182F31401E21EAF9
:1048D00000000299814280F0A9814FF4D8716E18CE
:1048E000B16839B132688018824280F09F8181427C
:1048F000C0F09C810AF0DCFB00281EBF0446D0F803
:10490000008014F1010F00F091813068716840441B
:104910008142306038BF01467160A86980BB286958
:1049200008B1844200D22C610020F0613461C6F8E5
:10493000148005F12801BF48006868624FF0FF301D
:1049400028620020C960896001F108024A610A6199
:10495000801C10312028F5D3B748854203D1A8F137
:10496000280221462AE055F8040CC00805EBC000D7
:10497000A0F1080104EB0800401AA0F128021DE094
:104980004FF4E0702918084600E08068D0B1026852
:1049900043681A449442F8D1027B120712D4AA69E0
:1049A00003689A420ED347683B449A420AD208EB06
:1049B00007014160E868A96908EB00022846FFF793
:1049C000A2FD1DE128698442084638BF2C6104EB32
:1049D000080100E0806880B102688A42FAD1017B58
:1049E00009070AD404604168414441602146029BA2
:1049F000284604B0BDE8F04D9FE5AF69394628462A
:104A0000FFF75AFD4FF0000B016840680844019021
:104A1000273810F0070101990EBF0020C0F10800EF
:104A200000F0070008442F3807F11001884234BF16
:104A300000970090009804F1080100F1180A11F0A5
:104A40000701A8F1280005D004F10801C1F108010F
:104A500001F00701401A2144A961E86040F0010219
:104A60004A6008442822426072480069E861009860
:104A7000083010F0070018BF0AF016FB00991B2041
:104A800048604FF4E0712944B1E80C5000980830B8
:104A9000A0E80C503461C6F81480C6F81CB0009829
:104AA0000830B061019801E00AF1040A0721CAF850
:104AB00004100BF1010B0AF108018142F4D3BBF1A0
:104AC000020FB8BF0AF0F0FA0098B84200F09880E0
:104AD000C01B3918C4084A68520852004A6040F0A6
:104AE000010179603850202C20D205EBC40101F17E
:104AF0002806B046102838BF0AF0D6FA286820FAEF
:104B000004F1C90704D40121A1400843286006E04C
:104B1000B068296988422CBF80460AF0C5FAB760A0
:104B2000C8F80C70C7F80880FE6069E0010A23D05D
:104B3000B1F5803F28BF1F211ED2A1F58072120C53
:104B400002F008029140A1F580531B0C03F004030E
:104B50009940A1F58044240CC2F10E0204F0020435
:104B6000D21A121BA14002EBD131CA1D20FA02F366
:104B700003F0010202EB410105EB81024FF498734F
:104B80001A44F96100237B613B616B6823FA01F4ED
:104B9000E40705D4012088401843686017601CE0D2
:104BA00012681F291DBF4908C1F1190100FA01F15E
:104BB000014600E01A465368DB08DB00834210D050
:104BC000CB0F02EB830303F1100449002368002B91
:104BD000F0D12869844211D32760BA61FF60BF60B9
:104BE0000EE0296990688A4228BF884206D3C760D0
:104BF0009760B860FA600020B86101E00AF054FAEA
:104C0000E8680299814211D2401AE860A969029AC3
:104C10000A44AA6140F001005060029840F003008D
:104C2000486004B001F10800BDE8F08D002004B038
:104C3000BDE8F08D381000207C0C00206859883CBD
:104C40002DE9F04704460D4690466868C10705EB1C
:104C5000080938D4296810F0030F00F03F82484259
:104C60000544206985428844C0F0348262699542D7
:104C700000F0BC80CE08202E54D2D5F80CA0AF682E
:104C8000554508BF0AF010FABD4208BF0AF00CFAF9
:104C90006868C008C000B0EBC60F18BF0AF004FA7D
:104CA00004EBC60000F128018F4205D021698F4234
:104CB00035D3F968A94232D1BA4521D12068012102
:104CC000B1408843206020698145C0F00382D9F853
:104CD00004108A0700F16381A269914540F09C802D
:104CE000E068A5614044E06040F0010068606069F0
:104CF000854240F0F38100206061A060BDE8F0874C
:104D00002830824506D02069824508D3DAF80800A9
:104D1000A84204D1C7F80CA0CAF80870D3E70AF07B
:104D2000C3F9D0E7EF68AE69AF420BD0A968814202
:104D300022D3C868A84204BFB868A8421CD1CF607B
:104D4000B9601BE005F114010F6837B905F11001D6
:104D50000F689FB101E011460F6807F11402136854
:104D6000002B02BF07F110021368002BF3D1814220
:104D700002D30020086001E00AF096F9002EA2D0CC
:104D8000E86904EB80004FF49871084401688D4293
:104D900009D10760380011D1EA69606801219140AA
:104DA000884360608FE72069864205D33069A84256
:104DB00014BF7761376101E00AF076F9002F82D0E5
:104DC00020698742ABD3BE61296929B1814226BFE0
:104DD00039618F610AF068F9686900283FF473AFA0
:104DE000216988429BD3786187616CE799F8040058
:104DF00000F0030003287FF466AFC4F80880D9F8F8
:104E0000040040084000C9F8040048F00100686050
:104E100045F80880BDE8F0876269914509D1A0682E
:104E200065614044A06040F0010169602850BDE820
:104E3000F087C908C900CE08202E884439D2D9F895
:104E40000CA0D9F80870D14508BF0AF02DF9B94572
:104E500008BF0AF029F9D9F80400C008C000B0EB77
:104E6000C60F18BF0AF020F904EBC60000F12801B4
:104E70008F4207D021698F42C0F08380F96849458D
:104E800040F07F80BA4505D120680121B1408843B8
:104E9000206078E02830824506D02069824570D3B2
:104EA000DAF8080048456CD1C7F80CA0CAF80870B9
:104EB00069E0D9F80C70D9F818604F450CD0D9F8D2
:104EC0000810814222D3C868484504BFB8684845E5
:104ED0001CD1CF60B9601BE009F114010F6837B92C
:104EE00009F110010F689FB101E011460F6807F149
:104EF00014021368002B02BF07F110021368002B85
:104F0000F3D1814202D30020086001E00AF0CCF81E
:104F1000002E38D0D9F81C0004EB80004FF49871B3
:104F20000844016889450AD10760380012D1D9F8D0
:104F30001C206068012191408843606023E0206963
:104F4000864205D33069484514BF7761376101E077
:104F50000AF0AAF8BFB12069874212D3BE61D9F81E
:104F6000101029B1814226BF39618F610AF09CF887
:104F7000D9F8140038B12169884202D37861876179
:104F800001E00AF091F848F00100686045F80880F7
:104F9000606985420CD1C4F80880BDE8F0874808F4
:104FA0004000C9F8040048F00100686045F8088036
:104FB0004FEAD807202F23D204EBC70000F12809BD
:104FC0004E46B8F1100F38BF0AF06EF8206820FA8C
:104FD00007F1C90704D40121B9400843206007E064
:104FE000D9F80800216988422CBF06460AF05CF80F
:104FF000C9F80850F560AE60C5F80C90BDE8F087C0
:105000005FEA182008BF002123D0B0F5803F28BFF9
:105010001F211ED2A0F58071090C01F00801884003
:10502000A0F58052120C02F004029040A0F58043DB
:105030001B0CC1F10E0103F00203891AC91A984032
:1050400001EBD030C11D28FA01F202F0010101EBA1
:10505000400104EB81004FF49872104400226A6111
:105060002A61E961626822FA01F3DB0706D40123B1
:1050700003FA01F11143616005601CE000681F291B
:105080001DBF4908C1F1190108FA01F1414600E0CC
:1050900010464268D208D20042450FD0CA0F00EB3A
:1050A000820202F1100349001A68002AF0D1216936
:1050B0008B420FD31D60ED60AD6011E02269816805
:1050C000904228BF914205D3CD608560E860A96019
:1050D000002005E0BDE8F04709F0E6BFBDE8F08735
:1050E000A861BDE8F0872DE9F84F044600268946FF
:1050F0005FEA1920C9F1000B08BF002123D0B0F5E9
:10510000803F28BF1F211ED2A0F58071090C01F03D
:1051100008018840A0F58052120C02F00402904071
:10512000A0F580431B0CC1F10E0103F00203891AA4
:10513000C91A984001EBD030C11D29FA01F202F0E2
:10514000010101EB400104EB8100D0F8300118B3FC
:105150001F290FBF4A464A08C2F1190209FA02F292
:10516000002300E052004568ED08ED00A5EB0905BD
:105170005D4503D25FEA050B06460BD04569D70FA4
:1051800000EB8700002D00691CBF85422B460028DC
:10519000E8D11846B8BBC6BB012088404000414258
:1051A00008436168084000F05D8141420840401EAC
:1051B000010B01F01001C840420902F00802D04082
:1051C000830803F00403D840450805F00205511890
:1051D000E8405918C0F3400729443944F8404018C2
:1051E00004EB8000D0F830010DE008464168C908A2
:1051F000C900A1EB090159453CBF8B460646016930
:105200000029F2D140690028F0D1002E00F02A8157
:10521000A068A0EB0900834580F0248120698642C4
:10522000C0F01E817068C00809EB0B08C000404543
:1052300018BF09F039FF06EB0905AE4280F0108176
:10524000F768D6F818A0B7420CD0B0682169884238
:1052500023D3C168B14204BFB968B1421DD1C76050
:10526000B8601CE006F11400076837B906F11000B9
:105270000768A7B101E00846076807F114010A684A
:10528000002A02BF07F110010A68002AF3D1216940
:10529000884202D30021016001E009F005FFBAF164
:1052A000000F39D0F06904EB80004FF49871084486
:1052B00001688E4209D10760380014D1F269606834
:1052C000012191408843606026E02069824508D32F
:1052D000DAF81000B04214BFCAF81470CAF810709F
:1052E00001E009F0E1FEBFB12069874212D3C7F89F
:1052F00018A0306930B12169884226BF38618761C2
:1053000009F0D2FE706938B12169884202D3786110
:10531000876101E009F0C8FEBBF1100F09D248F027
:105320000300706006EB0800416841F00101416034
:1053300095E049F0030070604BF0010068604FEAAF
:10534000DB0045F80BB020281DD204EBC00101F1B1
:105350002807216821FA00F2D207BB4605D40122B2
:1053600002FA00F00843206006E0B868216988422C
:105370002CBF834609F098FEBD60CBF80C50C5F8F1
:1053800008B0EF606BE05FEA1B2023D0B0F5803FF0
:1053900028BF1F201ED2A0F58071090C01F0080162
:1053A0008840A0F58052120C02F004029040A0F553
:1053B00080431B0CC1F10E0103F00203891AC91AC4
:1053C000984001EBD030C11D2BFA01F202F001012F
:1053D00001EB400004EB80014FF498721144E86146
:1053E00000226A612A61626822FA00F3DB0706D4B0
:1053F000012303FA00F0104360600D601CE00968AF
:105400001F281DBF4008C0F119000BFA00F05846D4
:1054100000E011464A68D208D2005A4510D0C20FA7
:1054200001EB820202F1100340001A68002AF0D159
:105430002069834211D31D60A961ED60AD600EE06B
:1054400022698868914228BF904206D3C5608D606A
:10545000A860E9600020A86101E009F025FE08E1EC
:1054600009F022FE02E12DE9F84F04468846606803
:1054700041420840401E010B01F01001C8404209A2
:1054800002F00802D040830803F00403D840450826
:1054900005F002055118E8405918C0F340062944A8
:1054A0007118F040401804EB8000D0F830014168DA
:1054B000C908C9000646A1EB080A09E00846416888
:1054C000C908C900A1EB080151453CBF8A46064600
:1054D00001690029F2D140690028F0D12069864293
:1054E000C0F0C2807068C00808EB0A09C0004845D7
:1054F00018BF09F0D9FD06EB080B5E4580F0B480BB
:10550000F768B569B7420CD0B0682169884223D3E7
:10551000C168B14204BFB968B1421DD1C760B8606B
:105520001CE006F11400076837B906F1100007689F
:10553000A7B101E00846076807F114010A68002ACC
:1055400002BF07F110010A68002AF3D121698842DD
:1055500002D30021016001E009F0A6FD002D35D045
:10556000F06904EB80004FF49871084401688E42A2
:1055700009D10760380011D1F269606801219140BA
:105580008843606022E02069854205D32869B042E3
:1055900014BF6F612F6101E009F086FDB7B120698A
:1055A000874211D3BD61306930B12169884226BF7D
:1055B0003861876109F078FD706938B121698842E6
:1055C00002D37861876101E009F06EFDBAF1100F36
:1055D00009D249F00300706006EB0900416841F010
:1055E000010141603FE048F0030070604AF00100B3
:1055F000CBF804004BF80AA0D4F808804FEAD8058D
:10560000202D28BF09F050FDB8F1000F27D0D4F8A5
:105610001490009504EBC50000F128052F46B8F161
