:020000040800F2
:10000000803600208D4B0408354A0408374A04081E
:10001000394A04083B4A04083D4A0408000000002D
:100020000000000000000000000000003F4A04083B
:10003000414A040800000000434A0408454A0408F5
:10004000B14B0408B54B0408B94B0408BD4B040878
:10005000C14B0408C54B0408C94B04085B4A04089B
:10006000CD4B0408D14B0408D54B0408D94B0408E8
:10007000DD4B0408E14B0408E54B0408E94B040898
:10008000ED4B0408F14B0408F54B0408F94B040848
:10009000FD4B0408014C0408054C0408094C0408F5
:1000A0000D4C0408114C0408154C0408194C0408A4
:1000B0001D4C0408214C0408254C0408294C040854
:1000C0002D4C0408314C0408354C0408394C040804
:1000D0003D4C0408414C0408454C0408494C0408B4
:1000E000534A04084D4C0408514C0408554C04086C
:1000F000594C04085D4C0408614C0408654C040824
:10010000694C04086D4C0408714C0408DDD60208E3
:10011000754C0408794C04087D4C0408814C040893
:10012000854C0408894C04088D4C0408914C040843
:10013000954C0408994C04089D4C0408A14C0408F3
:10014000A54C0408A94C0408AD4C0408B14C0408A3
:10015000B54C0408B94C0408BD4C0408C14C040853
:10016000C54C0408C94C0408CD4C0408D14C040803
:10017000D54C0408D94C0408000000000000000021
:10018000DD4C0408E14C0408062801D30020704728
:10019000DFF8741C51F82000704710B500F184049A
:1001A000206818B105F088FC00202060A06818B114
:1001B00005F082FC0020A060E06818B105F07CFC2E
:1001C0000020E06010BD38B504460D46E06D08B172
:1001D00006F021FAE56531BD10B50446606B08B143
:1001E00007F0B0FCE06F08B108F086FC00F026F8DC
:1001F000A06D08F0F6FE2046FFF7CFFF206A09F059
:1002000041F9206809F03EF9606809F03BF9E069BE
:1002100009F038F9A06909F035F9E06A09F032F916
:10022000A06809F02FF9E06809F02CF9206909F0BD
:1002300029F92046BDE8104005F03EBC00212046CB
:10024000C1E77CB5060008461146DFF8C04B0FF247
:1002500050050CD109F082FA060005D003F0D8F859
:100260004FF49B7303F0DEF940F2371076BD08F0CF
:1002700015FC01000DD109F071FA060006D00FF24D
:100280004C00019040F2411303F0CCF94FF4A170FF
:1002900076BDF06FF16708F02FFC002076BD0000FE
:1002A000496F544875625472616E73706F72745FF7
:1002B0004D5154545F436F6D6D6F6E5F5365745253
:1002C00065747279506F6C69637900004661696C7E
:1002D0006564206372656174696E67206E6577205E
:1002E000726574727920636F6E74726F6C206861CE
:1002F0006E646C6500000000818F4A1C4FF6FF732E
:100300009A42ACBF0121491C8187808F70472DE93B
:10031000F24F82B0904609F03FFA5FEA000ADFF838
:10032000EC4A0FF2F0090FD109F018FA5FEA000A5F
:1003300007D00FF28020019040F27D1300F0A0F86A
:10034000D0474FF4BF7562E008F0D6FE5FEA000BBD
:100350000FD109F003FA5FEA000B07D00FF28420F7
:10036000019040F2851300F08BF8D8474FF4C37525
:100370004AE000264FF4C67500E0761C84A2594678
:10038000504609F052FA00283BD1032E13D10298AF
:10039000594608F09DFF0028EFD009F0DFF98446A8
:1003A00030B10FF29000019040F2931300F06EF81C
:1003B0004FF4CA7525E0042EDFD1584609F073F8D2
:1003C0000628DAD3584609F06BF8074606220FF2E2
:1003D000880109F089FB0028CFD1B91D404608F0FB
:1003E00051FF68B109F0BAF9844630B10FF27000DC
:1003F000019040F2A11300F049F84FF4D17500E0EC
:100400000025584609F03EF8504609F07EFA284685
:10041000BDE8FE8F72657472696576655F646576A6
:100420006963655F6D6574686F645F7269645F6955
:100430006E666F004661696C656420535452494E84
:10044000475F636F6E6361745F776974685F53546D
:1004500052494E472E0000003F247269643D00005F
:100460004661696C656420535452494E475F636F1F
:100470006E636174206661696C65642E0000000023
:10048000012000904A46214600207047012000903C
:100490004A462146002060472DE9F04F83B00C46C4
:1004A00015461E4609F078F95FEA000ADFF85C9904
:1004B0000FF2E00713D109F051F95FEA000A07D003
:1004C0000FF2F000019040F2BB1300F0A3F8D04708
:1004D0000020306028604FF4DE79207054E008F08E
:1004E0000BFE5FEA000812D109F038F9844638B1F2
:1004F0000FF2F00001904FF4E37300F08BF8E04747
:1005000000203060286040F2C719207039E04FF4B5
:10051000E77900270FF2780B0FE000F08AFE0FF268
:10052000E40109F021FB28B901202070002030608F
:10053000286023E0002020707F1C5A464146504628
:1005400009F073F9D8B9022FE7D0032FF4D100F0E6
:1005500070FE0A22002109F0D7FB306041460FF2FD
:10056000AC02504609F061F930B900F062FE0A228F
:10057000002109F0C9FB286000202070814600F0AE
:1005800067FE504609F0C1F94846BDE8FE8F0000FD
:100590002F00000070617273655F64657669636542
:1005A0005F7477696E5F746F7069635F696E666FA1
:1005B000000000004661696C6564206372656174C7
:1005C000696E6720746F6B656E2066726F6D206454
:1005D0006576696365207477696E20746F706963EE
:1005E0002E0000004661696C656420616C6C6F636D
:1005F0006174696E67206E657720737472696E67C7
:10060000202E000050415443480000002F3F247228
:1006100069643D00012000903A4649460020704739
:10062000F8B5044609F09AFB012101220F283DD3B9
:1006300000200FF27C030FF2880552EA010631D048
:100640000E0013D00D2810D20C282DD02E56A6F156
:1006500061071A2F275638BF203EA7F1610CBCF165
:100660001A0F38BF203FBE4200D00021160016D01E
:10067000102813D21E56A6F161071A2F0AD3275647
:10068000A7F1610CBCF11A0F06D2203F04E06AB159
:100690000220F2BD203EF2E7BE4200D00022401C04
:1006A0000F28CAD30029F2D00120F2BD0020F2BDEC
:1006B00024696F746875622F6D6574686F64730068
:1006C00024696F746875622F7477696E000000008A
:1006D0007CB504460D461646684609F05AFB04F1FF
:1006E0000C01684609F06FFB286B324669460AF038
:1006F0002EFE73BD2DE9F04F054687B0084608F081
:1007000029FD064628460BF082FF00279AA40FF227
:100710006C2ADFF8F8B60FF27028A0B102AB04AA79
:1007200005A90CF07AFF60B109F018F8040000F098
:100730001C810FF2702001904FF41573012000907E
:100740000FE1029840BB002E2AD028460BF073FF21
:10075000030034D0002F0CBF5246224628E0009000
:100760000FF27421049850F82730059850F827208C
:10077000304608F011FE70B108F0F0FF844638B141
:100780000FF25C2001904FF4187300F017FAE04765
:1007900000F020FA00267F1C02988742D3D2002E58
:1007A00000F0E680401EB8420CBF50462046D6E717
:1007B0000FF25021304608F0EFFD48B97F1C284663
:1007C0000BF093FFC0B1002F0CBF524622460BE046
:1007D00008F0C4FF040056D00FF23820019040F218
:1007E000712300F0EBF9BFE003460FF248213046D9
:1007F00008F0D2FD58B97F1C28460BF0CDFF0FF250
:100800004429A0B1002F0CBF5246224609E008F04F
:10081000A5FF040037D00FF23C20019040F2812365
:100820009DE0009056A300F0C5F948B97F1C28460A
:100830000CF001F8A0B1002F0CBF5246224609E08F
:1008400008F08CFF04001ED00FF22420019040F22B
:10085000912384E000904BA300F0ACF980B97F1C99
:1008600028460BF0FCFF00286ED00168456800297F
:100870006BD0002D6AD0002F0CBF5246224609E0F3
:1008800008F06CFF040070D00FF20420019040F2D9
:10089000A12364E0009130460FF21823494608F086
:1008A0007BFD98B92A460FF214210FF2202008F0A0
:1008B0006CFC7F1C039098B908F050FF040054D0E2
:1008C0000FF21020019040F2C22348E008F046FFEA
:1008D00004004AD00FF22420019040F2B6233EE0FB
:1008E0000CF0ECFF05001ED008F0DAFDD8B1009046
:1008F000002F0CBF524622460FF2202300F05AF977
:1009000068B108F02BFF040006D00FF21820019008
:100910004FF4347300F058F900F05CF900262846D3
:1009200008F0B0FD0DE008F019FF040006D00FF24A
:100930001820019040F2D92300F046F900F04AF95E
:100940000026039808F09EFD12E08DB108F006FF26
:1009500004000AD00FF21C20019040F2E62301208F
:100960000090424659460020A04700F033F9002687
:10097000304607B0BDE8F08F260000000000000000
:10098000637400006365000061646450726F706599
:100990007274696573546F754D7174744D657373BA
:1009A000616765004661696C656420746F206765E6
:1009B000742074686520696E7465726E616C732052
:1009C0006F66207468652070726F7065727479202C
:1009D0006D61702E0000000025733D2573257300A6
:1009E0004661696C656420636F6E737472757469B7
:1009F0006E672070726F706572747920737472699B
:100A00006E672E002573252532342E6369643D25DB
:100A1000730000004661696C6564207365747469D5
:100A20006E6720636F7272656C6174696F6E2069A6
:100A3000642E00002573252532342E6D69643D2512
:100A4000730000002573252532342E25733D257350
:100A5000000000004661696C656420736574746908
:100A60006E67206D6573736167652069642E000091
:100A70004661696C65642073657474696E67206390
:100A80006F6E74656E7420747970652E00000000BE
:100A90004661696C65642073657474696E67206370
:100AA0006F6E74656E7420656E636F64696E672E19
:100AB0000000000064696167696400006372656139
:100AC00074696F6E74696D657574630025733D2577
:100AD000730000004661696C656420636F6E737417
:100AE00072756374696E6720646961676E6F737491
:100AF000696320636F6E7465787400004661696C89
:100B000065642073657474696E6720646961676EDB
:100B10006F73746963206964000000006469616731
:100B2000637478004661696C6564207365747469E8
:100B30006E6720646961676E6F7374696320636FA9
:100B40006E746578740000004661696C65642065A8
:100B50006E636F64696E6720646961676E6F73743A
:100B6000696320636F6E746578742076616C756557
:100B70000000000064696167696420616E6420643C
:100B80006961676372656174696F6E74696D6575BB
:100B90007463206D7573742062652070726573656F
:100BA0006E742073696D756C74616E656F75736CAE
:100BB000792E00004946304608F0EEBB0120009037
:100BC000424659460020704701200090424659464F
:100BD00000202047304608F055BC2DE9FC4705466B
:100BE0000E46286892461F4608F05AFC0146B06837
:100BF000864C00680FF2C808FFF77CFD5FEA000929
:100C00000FD108F0ABFD5FEA000907D00FF2CC006E
:100C1000019040F2F62300F08DF8C84740F2F72427
:100C20004AE008F03DFC014600975346308A012215
:100C30000CF01CFF07000FD108F090FD5FEA000ADE
:100C400007D00FF28850019040F2FE2300F072F8B6
:100C5000D04740F2FF242CE0A86D314608F0C6F9D9
:100C600068B108F07BFD844630B10FF280500190EE
:100C700040F2053300F064F840F2063416E0686B89
:100C8000394606F0FAFF68B108F068FD844630B1D5
:100C90000FF2740001904FF4437300F051F840F2EA
:100CA0000D3403E07068401C7060002438460CF07E
:100CB00047FF484608F0E6FB2046BDE8F6870000FF
:100CC0007075626C6973685F6D7174745F74656C64
:100CD000656D657472795F6D736700004661696C5C
:100CE000656420616464696E672070726F706572FC
:100CF0007469657320746F206D717474206D6573F1
:100D000073616765000000004661696C656420617D
:100D10007474656D7074696E6720746F207075628D
:100D20006C697368206D717474206D65737361678D
:100D300065000000012000904246214600207047D7
:100D40000120009042462146002060472DE9F043F3
:100D500083B004460D4616469846FFF7CDFA814605
:100D6000304608F09DFB024629460FF2A400DFF84A
:100D7000A46C0FF2BC0708F008FA05000DD108F0CA
:100D8000EDFC040006D00FF2C80001904FF4497347
:100D900000F070F840F2253434E008F081FB0146A1
:100DA0000A9800904346002248460CF05FFE5FEA36
:100DB00000080DD108F0D2FC040006D00FF24C2040
:100DC00001904FF44B7300F055F840F22D3416E0CB
:100DD000606B414606F051FF68B108F0BFFC0400AB
:100DE00006D00FF24C20019040F2333300F042F86D
:100DF0004FF44D7400E0002440460CF0A1FE28465C
:100E000008F040FBBDE0000064090020703F0008CE
:100E100024696F746875622F6D6574686F64732FD1
:100E20007265732F25642F3F247269643D2573001A
:100E30007075626C6973685F6465766963655F6D20
:100E40006574686F645F6D6573736167650000004A
:100E50004661696C656420636F6E73747275637448
:100E6000696E67206D65737361676520746F706963
:100E7000632E0000012000903A46314600202047B2
:100E80002DE9F043064683B0202004F0BAFC0700A9
:100E9000DFF8804B0FF2F0050ED108F05FFC5FEA3F
:100EA000000806D00FF20010019040F2473302F024
:100EB000BBF94FF4527464E002F00DFB788100201E
:100EC000F8600120387500207860386001203872A1
:100ED0000020386179890FF2F40008F056F95FEAD2
:100EE000000810D108F03AFC5FEA000806D00FF2C3
:100EF000F800019040F2563302F096F902F0A4FC9B
:100F00004FF456743DE008F0CBFA00210091002325
:100F10000146788900220CF0A9FD5FEA00090FD193
:100F200008F01CFC844630B10FF2E000019040F262
:100F30005F3300F08FF802F087FC40F261341EE06E
:100F4000706B494606F099FE78B108F007FC8446BC
:100F500030B10FF2DC00019040F2673300F07AF814
:100F600002F072FC40F2693406E007F1180106F164
:100F7000680008F028FF002448460CF0E1FD00F06E
:100F800067F92046BDE8FE837075626C6973685F1F
:100F90006465766963655F7477696E5F6765745FC2
:100FA0006D657373616765004661696C6564206196
:100FB0006C6C6F636174696E6720646576696365E4
:100FC000207477696E20646174612E0024696F74E7
:100FD0006875622F7477696E2F4745542F3F2472CE
:100FE00069643D25687500004661696C656420632D
:100FF0006F6E737472756374696E672067657420B1
:1010000050726F7020746F7069632E004661696C56
:10101000656420636F6E737472756374696E6720A4
:101020006D717474206D6573736167652E000000C7
:101030004661696C6564207075626C697368696E7D
:101040006720746F206D71747420636C69656E74B1
:101050002E000000012000902A4621460020604713
:101060002DE9F04383B004460F461646FFF744F9D6
:1010700070810021317501460FF2D400DFF89459D8
:101080000FF2001908F081F85FEA00080FD108F0AC
:1010900065FB5FEA000807D00FF2041001904FF4DF
:1010A000607300F0C9F8C04740F281354CE0F86841
:1010B0000CF075FF00F0BCF8014678680090002243
:1010C0003B6870890CF0D2FC07000ED108F046FB9B
:1010D000070007D00FF2F400019040F2893300F0CE
:1010E000ABF8B84740F28A352CE0A06D314607F0E6
:1010F0007DFF68B108F032FB844630B10FF2EC009E
:1011000001904FF4647300F09DF840F2913516E0C1
:10111000606B394606F0B1FD68B108F01FFB8446EC
:1011200030B10FF2EC00019040F2973300F08AF8F2
:101130004FF4667503E07068401C70600025384607
:101140000CF0FEFC00F084F82846BDE8FE830000A9
:1011500024696F746875622F7477696E2F504154DB
:1011600043482F70726F706572746965732F726572
:10117000706F727465642F3F247269643D256875D1
:10118000000000007075626C6973685F6465766961
:1011900063655F7477696E5F6D6573736167650022
:1011A0004661696C656420636F6E737472756374F5
:1011B000696E67207265706F727465642070726FFB
:1011C0007020746F7069632E000000004661696CC6
:1011D0006564206372656174696E67206D717474F3
:1011E000206D657373616765000000004661696C7E
:1011F00065642072657472696576696E67207469CA
:10120000636B636F756E74657220696E666F000044
:101210004661696C6564207075626C697368696E9B
:1012200067206D717474206D65737361676500006C
:101230000746404608F034B9012000904A46294646
:1012400000207047012000904A4629460020604750
:10125000404608F017B92DE9FC470025032B04464A
:10126000914666D3CE18042BDFF8A8A70FF2D80852
:101270002FD3F71E30A1384608F076FC90B94946C6
:1012800020460BF00DFA20B308F068FA844630B11E
:101290000FF2D80001904FF4717300F0EDF840F2B6
:1012A000C53516E025A1384608F05EFC88B94946E8
:1012B00020460BF0D4F960B108F050FA844630B102
:1012C0000FF2E40001904FF4737300F0D5F840F290
:1012D000CD35B61E1AA1304608F046FC90B94946F5
:1012E00020460BF01EFA20B308F038FA040006D0AE
:1012F0000FF2F400019040F2D73300F0B7F84FF44A
:10130000767516E00FA1304608F02EFC88B94946E4
:1013100020460BF055FA60B108F020FA040006D020
:101320000FF2081001904FF4787300F09FF840F22C
:10133000E1352846BDE8F6876D696400636964009D
:1013400063740000636500007365744D7174744DBF
:1013500065737361676550726F7065727479496601
:10136000506F737369626C65000000004661696CC0
:10137000656420746F2073657420494F544855424A
:101380005F4D4553534147455F48414E444C4520CE
:10139000276D6573736167654964272070726F708C
:1013A000657274792E0000004661696C6564207472
:1013B0006F2073657420494F544855425F4D455323
:1013C000534147455F48414E444C452027636F7267
:1013D00072656C6174696F6E4964272070726F70FA
:1013E000657274792E0000004661696C6564207432
:1013F0006F2073657420494F544855425F4D4553E3
:10140000534147455F48414E444C4520276375731F
:10141000746F6D436F6E74656E74547970652720B8
:1014200070726F70657274792E0000004661696C8D
:10143000656420746F2073657420494F5448554289
:101440005F4D4553534147455F48414E444C45200D
:1014500027636F6E74656E74456E636F64696E6743
:10146000272070726F70657274792E0001200090D1
:1014700042465146002020470120009042465146F6
:10148000002060472DE9F14F88B0084607F062FE62
:101490000690DFF880850FF2042970B908F05EF934
:1014A0005FEA000A06D00FF20C20019040F2EF3301
:1014B00000F096F94FF47C7AE9E008F055F900283D
:1014C000059000F0D38008980BF0A1F8079070B950
:1014D00008F044F95FEA000A06D00FF200200190FC
:1014E00040F2FA3300F07CF940F2FB3ABAE007F040
:1014F00003FE049070B908F031F95FEA000A06D0E3
:101500000FF20820019040F2024300F069F940F226
:10151000034AA7E04FF0000A1FE000F05CF900F07A
:1015200065F90099002078542B4608983A463146D0
:10153000FFF791FE68B108F011F95FEA000A06D0E2
:101540000FF2E810019040F22F4300F049F94FF4F8
:10155000866A01F09DFD02F077F9049905984EA284
:1015600008F063F95AEA000079D1049807F098FF6F
:10157000834608F0F3FB0746BBF1000F18BF002FAE
:101580006DD00024DFF8600D00EBC4004268DFF886
:10159000580D50F83410584608F0A6FAC0B1641C33
:1015A0000A2CEFD35C4694F900000100D5D0BAF1C3
:1015B000000FD2D13D284FD100F002F900F005F91B
:1015C0000746002E18BF002F29D140F24A4AC0E733
:1015D0005C4694F900000100BFD0BAF1000FBCD105
:1015E0003D2819D100F0ECF800F0EFF80746002E86
:1015F00018BF002F91D108F0B1F85FEA000A08D0B7
:101600000397029640F222430FF2401001F0BEF819
:10161000D04740F2234A9CE7641CDAD19DE700F0F2
:10162000DAF800F0E3F80099002078543A46079879
:1016300031460BF07AFF00288BD008F08FF85FEA74
:10164000000A06D00FF23C10019040F2564300F021
:10165000C7F840F2574A7CE7641CA4D17DE70498A0
:1016600007F010FF059808F050F90DE008F076F843
:101670005FEA000A06D00FF22410019040F26B439B
:1016800000F0AEF840F26C4A069807F0FBFE5046B8
:1016900009B0BDE8F08F0000260000006578747284
:1016A0006163744D71747450726F706572746965A2
:1016B000730000004661696C75726520636F6E731C
:1016C0007472756374696E6720737472696E6720D3
:1016D000746F706963206E616D652E004661696C80
:1016E00075726520746F2072657472696576652005
:1016F000496F544875624D6573736167655F7072B9
:101700006F706572746965732E0000004661696CC4
:1017100075726520746F20616C6C6F6361746520F5
:10172000535452494E475F6E65772E00556E616285
:101730006C6520746F20736574206D6573736167C9
:10174000652070726F706572747900004661696C13
:10175000656420616C6C6F636174696E6720707280
:101760006F7065727479206E616D6520282570290F
:1017700020616E642F6F722076616C75652028255C
:10178000702900004D61705F4164644F7255706450
:10179000617465206661696C65642E00556E6162D6
:1017A0006C6520746F2063726561746520546F6B83
:1017B000656E697A6572206F626A6563742E0000D7
:1017C000A4EB0B05681C04F01CB80646781B0090BF
:1017D000401C04F016B82A46594630460CF08ABC24
:1017E000012000904A464146002050470020705595
:1017F000611C009A38460CF07DBC2DE9F0475FEA89
:10180000000A0C4618BF002C86B032D00CF0BEF98E
:101810000700804D0FF2002909D107F09FFF040057
:1018200027D00FF21020019040F27C43D3E0FEF766
:10183000F7FE01283ED103AB04AA02A93846FEF701
:101840002BFE48B107F08AFF040012D00FF20C20E3
:10185000019040F28A43BEE050460CF025FA05465E
:101860009DF8080030B16B682A68206B012109F0EF
:10187000F8FDCCE0A06E00E0006804F16801884249
:10188000F7D0A0F11806049972899142F4D108F0BA
:101890008AFA96F91410206B012905D16B682A6821
:1018A000002109F0DEFD03E0039AF16809F003FE70
:1018B0003046AAE002285FD107F01EFC5FEA00086C
:1018C00009D107F04BFF0400D3D00FF2B410019000
:1018D00040F2B5437FE0042003F093FF06000BD1F4
:1018E00007F03CFF040044D00FF2C410019040F216
:1018F000BC4300F07DF93CE007F0FEFB02003260E3
:101900000BD107F02BFF040031D00FF2D41001905F
:1019100040F2C34300F06CF929E041463846FEF737
:10192000F6FC48B107F01AFF04001DD00FF2D810E2
:1019300001904FF4996315E050460CF0B5F9FFF7AC
:1019400077FC014600967B683A68206B09F040FD01
:1019500078B107F003FF040006D00FF2D010019019
:1019600040F2D24300F044F9306807F08BFD01F0FB
:101970008FFBFFF76DFC4AE050460CF095F941688B
:1019800000680AF0A8FC060009D107F0E7FE040091
:101990003DD00FF2C810019040F2E1431BE0394600
:1019A000FFF770FD48B107F0D9FE04002FD00FF209
:1019B000DC1001904FF49D630DE0082003F021FF3F
:1019C00007000BD107F0CAFE040020D00FF2E01090
:1019D000019040F2EF4300F00BF918E03E60002068
:1019E00078603946206B09F095FD80B907F0B6FEA6
:1019F000040006D00FF2C810019040F2F94300F045
:101A0000F7F830460AF089FF384604F055F806B07A
:101A1000BDE8F087703F00086D7174745F6E6F747D
:101A2000696669636174696F6E5F63616C6C626142
:101A3000636B00004661696C7572653A204E554CC7
:101A40004C20746F706963206E616D6520656E63F4
:101A50006F756E7465726564000000004661696CA4
:101A60007572653A2070617273696E67206465767D
:101A700069636520746F70696320696E666F00002A
:101A80004661696C7572653A20616C6C6F63617454
:101A9000696E67206D6574686F645F6E616D652047
:101AA000737472696E672076616C75650000000062
:101AB0004661696C7572653A20616C6C6F63617424
:101AC000696E67204445564943455F4D4554484F2C
:101AD000445F494E464F206F626A656374000000A0
:101AE0004661696C75726520636F6E73747275639D
:101AF00074696E6720726571756573745F696420BF
:101B0000737472696E6700004661696C7572653A3C
:101B100020726574726965766520646576696365AF
:101B200020746F70696320696E666F004661696C2E
:101B30007572653A20496F54487562436C69656EE9
:101B4000745F4C4C5F4465766963654D6574686F7E
:101B500064436F6D706C6574650000004661696C6C
:101B60007572653A20496F74487562204D657373CC
:101B7000616765206372656174696F6E2068617367
:101B8000206661696C65642E000000006661696C06
:101B90007572652065787472616374696E67206D13
:101BA0007174742070726F706572746965732E0041
:101BB0006D616C6C6F63206661696C656400000028
:101BC000496F54487562436C69656E745F4C4C5F35
:101BD0004D65737361676543616C6C6261636B2013
:101BE00072657475726E65642066616C7365000061
:101BF000012000904A462946002020472DE9F04365
:101C00005FEA030985B0174612D009F1300609F1E1
:101C10007004DFF8085D0FF2881869B3012918BF56
:101C2000042906D0052900F08880082900F0B0803A
:101C3000B2E0BFB1606809F174018842F8D0A0F148
:101C400014043988228A0568914209D108F0ABF85A
:101C5000A06800224946FEF73BFD204603F02CFF1A
:101C60002846E8E707F07AFD0400E1D00FF25410AF
:101C7000019040F2275387E0002F54D097F90100DC
:101C8000010010D1202020700120B0740220F073D8
:101C9000E06806F0EBFE306805B0BDE8F0430622D0
:101CA000002109F0B8BC042803D10020B07402223E
:101CB00002E0052805D101220121306809F0ABFCC2
:101CC00003E0012804BF0020B07407F047FD8146FF
:101CD00028B397F90100052816D8DFE800F0120FA5
:101CE0000C0906030FF21C1110E00FF228110DE091
:101CF0000FF238110AE00FF2481107E00FF24C1111
:101D000004E00FF2601101E00FF264110290039100
:101D100040F24B530FF2601002F091F8C8470320D5
:101D2000F073E12037E007F019FD040034D00FF222
:101D30006C10019040F2525326E0E7B100260FF2FA
:101D4000901913E07868805D80280ED107F006FDB9
:101D5000844650B1012002960090CDF804904FF4D3
:101D6000AC63424629460020E047761CB8688642AC
:101D7000E8D390200FE007F0F1FC04000CD00FF244
:101D80007C1001904FF4AD6302F053F8A04703E0DC
:101D90000020F073E020207005B0BDE8F083000063
:101DA0006D7174745F6F7065726174696F6E5F637B
:101DB0006F6D706C6574655F63616C6C6261636BA1
:101DC000000000004661696C7572653A204D5154FF
:101DD000545F434C49454E545F4F4E5F5055424C03
:101DE0004953485F41434B207075626C6973685F6B
:101DF00061636B20737472756374757265204E55E0
:101E00004C4C2E004E6F7420417574686F72697A65
:101E10006564000042616420557365726E616D6592
:101E20002F50617373776F72640000005365727690
:101E3000657220556E617661696C61626C65000047
:101E400049642052656A656374656400556E616318
:101E50006365707461626C652056657273696F6E3C
:101E60000000000041636365707465640000000059
:101E7000556E6B6E6F776E00436F6E6E656374693F
:101E80006F6E204E6F742041636365707465643AB1
:101E900020307825783A2025730000004D515454A5
:101EA0005F434C49454E545F4F4E5F434F4E4E414A
:101EB000434B20434F4E4E41434B20706172616D46
:101EC00065746572206973204E554C4C2E000000DD
:101ED0005375627363726962652064656C697665C7
:101EE0007279206661696C757265206F6620737502
:101EF0006273637269626520257A75004661696C58
:101F00007572653A204D5154545F434C49454E54C7
:101F10005F4F4E5F5355425343524942455F4143E1
:101F20004B205355425343524942455F41434B2056
:101F3000706172616D65746572206973204E554CD5
:101F40004C2E000038B5044604F13405287B28B92E
:101F500068680CF00CFA0146FEF771F9286800F089
:101F60000AF868680CF028F900206860E872E02040
:101F700084F8700031BD0022002105F0EBBF0000A5
:101F80002DE9FE4314000F46DFF890690FF2D408E4
:101F90005AD0251D052F31D8DFE807F0031D1D0598
:101FA0000A1D042200E00522E86A00F0E6FB25E0B5
:101FB00007F0D4FB844650B10FF2BC00019040F210
:101FC000A65301200090424631460020E0472046BB
:101FD000FFF7B8FF12E007F0C1FB814670B1384649
:101FE000FEF7D2F8029040F2AE530FF2CC0001900F
:101FF00042460120009031460020C84704F13F00CE
:1020000090F9001003291CBF00210170E12184F820
:10201000701000218170286818B1286940F0040010
:102020002861686818B1286940F001002861A86833
:1020300018B1286940F002002861E86878B1286981
:1020400040F0100028610AE007F088FB040006D089
:102050000FF29800019040F2CB5300F027FABDE850
:10206000F78300006D7174745F6572726F725F63E5
:10207000616C6C6261636B004D7174742050696EA9
:102080006720526573706F6E736520776173206E81
:102090006F7420656E636F756E74657265642E2053
:1020A000205265636F6E6E656374696E6720646548
:1020B000766963652E2E2E00494E5445524E414C92
:1020C000204552524F523A20756E657870656374A0
:1020D0006564206572726F722076616C756520721E
:1020E0006563656976656420257300004661696CE7
:1020F0007572653A206D7174742063616C6C6564EF
:10210000206261636B2077697468206E756C6C2047
:10211000636F6E746578742E000000002DE9F04343
:102120000446251D8BB02969002960D02868002746
:1021300000260DF1080848B1490707D507F0B0F9A6
:1021400002900427012088F804000126686848B13D
:10215000297CC90706D507F0A3F900F085F847F0F8
:102160000107761CA86848B1297C890706D507F0C5
:1021700097F900F079F847F00207761CE86848B153
:10218000297CC90606D507F08BF900F06DF847F0F9
:102190001007761CDFF884870FF26009D6B120465D
:1021A000FEF7AAF80146286B334602AA05F0F8FDAF
:1021B00048B107F0D3FA050017D00FF2580001908C
:1021C00040F2F9530FE02869B8432861802084F871
:1021D00070000AE007F0C2FA050006D00FF26400B2
:1021E000019040F2056300F0A3FD802000E0302064
:1021F00084F870000BB0BDE8F08300005375627383
:102200006372696265546F4D71747450726F746F4C
:10221000636F6C004661696C7572653A206D71740C
:10222000745F636C69656E745F7375627363726902
:1022300062652072657475726E6564206572726F76
:10224000722E00004661696C7572653A2073756282
:102250007363726962655F746F706963206973206C
:10226000656D7074792E000048F8360002A901EB04
:10227000C601002008717047FEB507460C460AF0FB
:10228000C0F9DFF898560FF26406C8B9224602A9D1
:1022900038460AF067F988B107F060FA07000AD0FB
:1022A0000FF2600001904FF4C363012000903246AA
:1022B00029460020B8470020029020600298FEBD09
:1022C0000128F8D138460AF092F9029048B907F08F
:1022D00045FA0700EFD00FF25C00019040F2226354
:1022E000E3E707F03BFDE8E7BC05002052657472A8
:1022F000696576654D6573736167655061796C6F6B
:10230000616400004661696C757265207265737561
:102310006C742066726F6D20496F544875624D650C
:1023200073736167655F4765744279746541727262
:10233000617900004661696C75726520726573751C
:102340006C742066726F6D20496F544875624D65DC
:1023500073736167655F476574537472696E670074
:102360002DE9F041044604F1180586B0286A0028DA
:1023700056D1286807F094F8E96E02912A6F03920B
:102380006A6F0492AA6F059201B102A92A69DFF867
:102390008C650FF294080FF2B0079047286278B965
:1023A00007F0DCF9040008D001970120009040F20A
:1023B0004763424631460020A0474FF4C96030E0F1
:1023C000A86E0CF02BFA032814D1296AA86E0CF021
:1023D000E3F978B107F0C2F9040008D001970120B1
:1023E00000904FF4CA63424631460020A04740F2B5
:1023F000516016E0686C98B1296A04F0C5F868B1BC
:1024000007F0ACF9040006D00FF26800019040F22A
:10241000636300F04BF840F2646002E0FDF70EFFEA
:10242000002006B0BDE8F0814765745472616E7398
:10243000706F727450726F766964657249664E652A
:102440006365737361727900556E61626C652074A7
:102450006F2063726561746520746865206C6F77A6
:102460006572206C6576656C20544C53206C6179E4
:1024700065722E004661696C6564206665656469F5
:102480006E67206578697374696E67206F70746910
:102490006F6E7320746F206E657720544C532069E3
:1024A0006E7374616E63652E000000000120009061
:1024B00042463146002020472DE9F04782460AF186
:1024C00018078AB0B86EDFF854840FF298190CF030
:1024D000A5F900260024012818BF052817D1B868DF
:1024E00006F0DEFF0146BA6CB86E0CF0AEF90600DD
:1024F00037D107F033F9040006D00FF27C100190B9
:1025000040F2A56300F086FD40F2A664A6E0042830
:1025100027D1B86E0CF071FA022805D1B86900F025
:102520002BF940F2AF6499E030B9B869022200F0AB
:1025300024F940F2B46491E0B86E002200210CF05E
:1025400084F906000DD107F009F9040006D00FF256
:102550006810019040F2BB6300F05CFD40F2BC6487
:102560007CE09AF8940000283AD1B8690FF264111F
:1025700002AA09F043F902281CBF0298002808D1DA
:102580000FF260120FF264110FF2701006F0FDFDF1
:1025900001E00BF093F905000BD107F0DFF884465A
:1025A000F0B10FF26410019040F2D76300F0E8F848
:1025B00016E07869294606F08BFE58B107F0CEF890
:1025C000844650B10FF26410019040F2DD6300F0D8
:1025D000D7F802E001208AF89400284606F052FF5E
:1025E00003A81C210CF04EFC786806F059FF0390FC
:1025F0000594786906F054FF069006B10796B88DE9
:10260000ADF820008DF8234001208DF824005046BD
:10261000FFF7A6FEE8B9396AF86903AA05F0A3FA3C
:1026200088B107F09BF804000AD0386806F038FF3C
:1026300002904FF4DF630FF21C1000F0A7F8A047E0
:1026400040F2F96407E0386C0AF1480106F0CEFC6C
:1026500001E040F203740EB100F01AFD20460AB00A
:10266000BDE8F08753656E644D717474436F6E6E90
:102670006563744D736700006661696C75726520EF
:1026800067657474696E672073617320746F6B651E
:102690006E2066726F6D20496F54487562436C6995
:1026A000656E745F417574685F4765745F536173ED
:1026B000546F6B656E2E00006661696C75726520E3
:1026C00067657474696E672073617320546F6B65FE
:1026D0006E2E000070726F647563745F696E666F52
:1026E00000000000312E312E33310000696F746814
:1026F0007562636C69656E740000000025732525A2
:1027000032462573000000004661696C6564206FE5
:10271000627461696E696E67207468652070726F9B
:102720006475637420696E666F0000004661696CB1
:10273000656420636F6E636174656E6174696E6752
:10274000207468652070726F6475637420696E66AA
:102750006F0000006661696C75726520636F6E6E54
:10276000656374696E6720746F2061646472657359
:10277000732025732E0000000022012108F04BBFBA
:10278000012000904A4641460020604701904A4699
:10279000012000904146002070472DE9FF4D804602
:1027A00008F13F060025707800281ED101208DF821
:1027B000080008F17004705708F1480720BBF07852
:1027C000002812D0E06802A906F0B0F910B99DF90E
:1027D0000800C8B9386908F1500106F007FC28B1B3
:1027E0007868401C78604FF4E46593E04046FFF75A
:1027F00063FE28B17868401C786040F2277589E054
:10280000012030707D6085E0705701282DD1386936
:10281000424E0FF20C1403A906F0E8FB78B106F063
:102820009DFF5FEA000807D00FF20C10019040F204
:10283000377300F0B3F8C0474FF4E7656AE001F082
:102840000DF9B8F84610814264D206F087FF070000
:1028500007D00FF21C10019040F23C7300F09EF87C
:10286000B8474046FFF76EFB54E0022852D1386962
:10287000694606F0BBFB28B17868401C78604FF4CD
:10288000E96547E000983968401A4FF47A71B0FB67
:10289000F1F00CF005FB8246B8698B460CF000FBAA
:1028A000DFF8CC2ADFF8CC3A0CF008FB52465B4646
:1028B0000CF0D6FB2ED208F10407786B0BF057FD15
:1028C00001464046FDF77FFC386BFFF754FB786B01
:1028D0000BF072FCF86A7D63FFF74EFF3570E22063
:1028E0002070B570386818B1386940F0040038615C
:1028F000786818B1386940F001003861B86818B1DB
:10290000386940F002003861F86818B1386940F061
:1029100010003861284604B0BDE8F08D703F000813
:10292000496E697469616C697A65436F6E6E65633F
:1029300074696F6E000000006661696C65642076E2
:102940006572696679696E67204D5154545F434CD6
:1029500049454E545F5354415455535F434F4E4E77
:10296000454354494E472074696D656F7574000086
:102970006D7174745F636C69656E742074696D65E4
:1029800064206F75742077616974696E6720666F63
:102990007220434F4E4E41434B00000001200090F7
:1029A00022463146002070472DE9F04F054683B09E
:1029B0008A469346982002F024FF0400DFF8B88985
:1029C0000FF2B8190BD106F0C9FE050006D00FF2C0
:1029D000CC10019040F27A7300F0AAF9CBE0982174
:1029E0000CF050FA06F0E4FA04F14C06F06048B935
:1029F00006F0B4FE050010D00FF2F050019040F246
:102A0000817370E00021052006F048F804F170079A
:102A1000F86048B906F0A2FE050073D00FF2C010AE
:102A200001904FF4F1635EE0686806F093FBE061AB
:102A300048B906F093FE050064D00FF2CC10019067
:102A400040F28E734FE06B686A6929690FF2D81003
:102A500006F09BFB206248B906F080FE050051D0CD
:102A60000FF2D810019040F294733CE069680FF2C5
:102A7000F01006F08AFB206048B906F06FFE0500F2
:102A800040D00FF2F810019040F29C732BE00094BC
:102A90002246DFF8E838DFF8E818DFF8E80804F045
:102AA000EDFF606348B906F059FE05002AD00FF229
:102AB000F810019040F2A57315E0A86930B96A6971
:102AC00029690FF2082006F060FB01E006F042FBE6
:102AD000A06158B906F042FE050013D00FF2F410C1
:102AE000019040F2B77300F023F90BE00FF20820D9
:102AF00000906B686A6929690FF2082006F045FBAF
:102B0000E06220B92046FDF767FB002433E004F1C2
:102B1000740007F03EF904F1680007F03AF904F197
:102B20003E000021817001704170C170012101716E
:102B3000A18700212163A1636162C6F818A010215A
:102B40003970F021C1801E21018100203060706049
:102B50006060A060E06060612061707230720CF0B3
:102B600096FA0CF099FAC7F810B0002084F8940097
:102B70004FF4616070612046BDE8FE8F496E697454
:102B800069616C697A655472616E73706F727448B2
:102B9000616E646C6544617461000000436F756C24
:102BA00064206E6F7420637265617465204D5154AA
:102BB00054207472616E73706F72742073746174D8
:102BC000652E204D656D6F727920616C6C6F63614D
:102BD00074696F6E206661696C65642E0000000088
:102BE0004661696C6564206372656174696E672013
:102BF00064656661756C7420726574727920636FA8
:102C00006E74726F6C0000006661696C757265208D
:102C1000636F6E737472756374696E672064657632
:102C20006963655F69642E0025732E25732F6465C3
:102C300076696365732F2573000000006661696C17
:102C400075726520636F6E737472756374696E67F5
:102C50002064657669636573506174682E000000B6
:102C6000646576696365732F25732F6D6573736172
:102C70006765732F6576656E74732F00436F756C8F
:102C800064206E6F742063726561746520746F7068
:102C900069635F4D7174744576656E7420666F72FA
:102CA000204D5154540000006661696C75726520B6
:102CB000696E697469616C697A696E67206D717497
:102CC0007420636C69656E742E00000025732E25D8
:102CD000730000006661696C75726520636F6E73C6
:102CE0007472756374696E6720686F7374206164B1
:102CF00064726573732E0000323031362D31312D00
:102D00003134000025732E25732F25732F617069D0
:102D10002D76657273696F6E3D25732644657669FD
:102D20006365436C69656E74547970653D0000009D
:102D3000012000904A464146002028472DE9F043F3
:102D400083B00C46DFF830860FF2241908B1210059
:102D500009D106F003FD040078D00FF2381001907D
:102D600040F2EF7370E087684FB906F0F7FC04009B
:102D70006CD00FF24C10019040F2F57364E00568DE
:102D8000002D1CBF296800290DD0696859B1AA68B7
:102D9000002A1CBFEA68002A05D12A69002A1CBF44
:102DA0006A69002A09D106F0D9FC04004ED00FF25E
:102DB0004010019040F6030346E046684EB906F025
:102DC000CDFC040042D00FF27010019040F60903D0
:102DD0003AE0084606F0C2FF812800D248B906F062
:102DE000BDFC040032D00FF27C10019040F60F03BE
:102DF0002AE0A86860B106F0B1FF48B906F0AEFC61
:102E0000040023D00FF29010019040F615031BE050
:102E1000E86860B106F0A2FF48B906F09FFC040024
:102E200014D00FF29C10019040F61B030CE02869AF
:102E300006F094FF60B906F091FC040006D00FF292
:102E4000AC10019040F6210300F0E4F800200CE003
:102E50003A4631462846FFF7A7FD30B100F1280178
:102E600000220C60CA654A668A66BDE8FE830000DF
:102E7000496F544875625472616E73706F72745FFB
:102E80004D5154545F436F6D6D6F6E5F437265615A
:102E900074650000496E76616C69642041726775E3
:102EA0006D656E743A20436F6E666967205061727B
:102EB000616D65746572206973204E554C4C2E000F
:102EC000496E76616C696420417267756D656E74D8
:102ED0003A20617574685F6D6F64756C655F6861D9
:102EE0006E646C65206973204E554C4C29000000BF
:102EF000496E76616C696420417267756D656E74A8
:102F00003A207570706572436F6E666967207374DE
:102F10007275637475726520636F6E7461696E7328
:102F200020616E20696E76616C69642070617261E7
:102F30006D65746572000000496E76616C6964208D
:102F4000417267756D656E743A2077616974696E58
:102F500067546F53656E64206973204E554C4C293D
:102F600000000000496E76616C69642041726775EB
:102F70006D656E743A2044657669636549642069BD
:102F800073206F6620616E20696E76616C696420C3
:102F900073697A6500000000496E76616C6964208F
:102FA000417267756D656E743A2064657669636514
:102FB0004B657920697320656D707479000000009D
:102FC000496E76616C696420417267756D656E74D7
:102FD0003A20646576696365536173546F6B656EFF
:102FE00020697320656D707479000000496E766108
:102FF0006C696420417267756D656E743A20696F03
:10300000744875624E616D6520697320656D7074DA
:1030100079000000012000904A46414600202047E8
:1030200070B5040033D004F1300501202874204627
:10303000FEF788FF0CE004F1740006F0BEFEA0F17C
:1030400014060122B0682146FDF742FB00F020F88B
:1030500004F1740006F0A0FE0028ECD004F1680032
:1030600006F09AFE70B904F1680006F0A6FEA0F121
:1030700018062868F1684FF4CC7208F01CFA00F0CA
:1030800007F8EBE72046BDE87040FDF7A5B870BD36
:10309000304602F011BD2DE9FC415FEA0008B64C54
:1030A0000FF2B0050DD106F059FB5FEA000805D01C
:1030B00000F0AEF940F65B0300F0B6F840F65C06AF
:1030C00044E008F108073868C0B90FF2BC0006F008
:1030D00041F8386070B906F041FB5FEA000806D09D
:1030E0000FF2B800019040F6670300F09DF840F63B
:1030F00068062BE0F86840F00100F8600026786868
:10310000C0B90FF2CC0006F025F8786070B906F06F
:1031100025FB5FEA000806D00FF2DC00019040F6C4
:103120007B0300F081F840F67C060FE0F86840F081
:103130000200F86098F87000202818BF102805D009
:10314000E0281EBFE128802088F870003046BDE8E6
:10315000F6810000496F544875625472616E737055
:103160006F72745F4D5154545F436F6D6D6F6E5F3E
:103170005375627363726962655F446576696365FE
:103180005477696E0000000024696F746875622FBF
:103190007477696E2F7265732F2300004661696C26
:1031A0007572653A20756E61626C6520636F6E732F
:1031B0007472756374696E67207265706F7274657E
:1031C0006420737461746520746F7069630000001B
:1031D00024696F746875622F7477696E2F5041543B
:1031E00043482F70726F706572746965732F6465E0
:1031F00073697265642F23004661696C7572653A64
:1032000020756E61626C6520636F6E737472756396
:1032100074696E67206E6F74696679207374617467
:103220006520746F70696300012000902A46214672
:10323000002040471CB5040016D0A06840B160696A
:10324000400840006061A06806F01CF90020A06002
:10325000E068C8B1606920F002006061E06806F0D3
:1032600011F90020E06013BD06F078FA04000BD0DD
:103270000FF218000FF2480200F027FC40F6AA03F4
:10328000012000900020A04713BD0000496E766128
:103290006C696420617267756D656E7420746F204F
:1032A000756E737562736372696265202868616EFA
:1032B000646C65206973204E554C4C292E0000002B
:1032C000496F544875625472616E73706F72745FA7
:1032D0004D5154545F436F6D6D6F6E5F556E7375D6
:1032E000627363726962655F44657669636554778A
:1032F000696E0000F0B5060083B01F4C0FF2880520
:103300000CD106F02BFA060005D000F081F840F64B
:10331000B60300F087F940F6B700FEBD06F11007CE
:103320003868B8B90FF2940005F014FF386068B936
:1033300006F014FA060006D00FF29800019040F64D
:10334000C20300F06FF940F6C300FEBD786840F09C
:1033500010007860002096F87010202918BF1029FE
:1033600005D0E0291EBFE129802186F87010FEBD3E
:103370009A9999999999E93F703F0008811F00082F
:10338000FD1B0008FB170008496F54487562547212
:10339000616E73706F72745F4D5154545F436F6D03
:1033A0006D6F6E5F5375627363726962655F4465CA
:1033B000766963654D6574686F64000024696F7495
:1033C0006875622F6D6574686F64732F504F535426
:1033D0002F2300004661696C7572653A20756E6135
:1033E000626C6520636F6E737472756374696E6767
:1033F00020646576696365206D6574686F64207309
:10340000756273637269626520746F70696300002E
:103410000FF2040001907047496E76616C69642078
:1034200068616E646C6520706172616D657465724F
:103430002E204E554C4C2E00FEB506000FF63034B3
:103440000FF258051DD0306930B306F029F800F0AE
:1034500041F800F0ABF950B106F080F9070006D052
:103460000FF2F820019040F6F20300F0A5F9306960
:1034700006F008F800203061706920F010007061DB
:10348000F7BD06F06BF9060006D00FF2F8200190A8
:1034900040F6FD0300F0C6F8F7BD0000496F544840
:1034A00075625472616E73706F72745F4D515454D3
:1034B0005F436F6D6D6F6E5F556E73756273637290
:1034C0006962655F4465766963654D6574686F64BC
:1034D0000000000002903046FCF70EBFF0B583B04C
:1034E0000E460FF68C240FF2780550B36EB906F035
:1034F00035F9060006D00FF29C00019040F60B1340
:1035000000F090F840F60C1728E00093134632685C
:103510000899FDF71BFC68B106F020F9070006D0FA
:103520000FF29800019040F6131300F045F940F6B1
:10353000141700E00027306805F0A4FFFFF7A8FD8E
:103540000CE006F00BF9060040F6211706D00FF24A
:103550009800019040F6221300F064F83846FEBD52
:10356000496F544875625472616E73706F72745F04
:103570004D5154545F436F6D6D6F6E5F4465766956
:1035800063654D6574686F645F526573706F6E73C9
:10359000650000004661696C7572653A20444556C5
:1035A0004943455F4D4554484F445F494E464F207F
:1035B000776173204E554C4C000000004661696CE9
:1035C0007572653A207075626C697368696E672000
:1035D000646576696365206D6574686F64207265E3
:1035E00073706F6E736500004661696C7572653A41
:1035F00020696E76616C696420494F544855425F7A
:103600004445564943455F48414E444C452070610E
:1036100072616D6574657220737065636966696552
:1036200064000000012000902A4621460020304717
:10363000F0B5060083B00FF638140FF274050CD104
:1036400006F08CF8060005D0FFF7E2FE40F62E13D8
:10365000FFF7E8FF40F62F10FEBD371DB86905F0F3
:103660001FFF01460FF6E40005F08FFD386068B9D2
:1036700006F074F8060006D00FF25C00019040F6E8
:103680003713FFF7CFFF40F63810FEBD386940F022
:103690000400386196F87000202818BF102805D063
:1036A000E0281EBFE128802086F870000020FEBDC3
:1036B000496F544875625472616E73706F72745FB3
:1036C0004D5154545F436F6D6D6F6E5F53756273F0
:1036D00063726962650000004661696C75726520FD
:1036E000636F6E737472756374696E67204D657372
:1036F0007361676520546F7069630000FEB5060052
:103700000FF66C040FF6EC051CD0706805F0C8FECF
:10371000FFF7E0FE00F04AF850B106F01FF807008E
:1037200006D00FF23800019040F6561300F044F82E
:10373000706805F0A7FE00207060706920F004003A
:103740007061F7BD06F00AF8060006D00FF23400EB
:10375000019040F65E13FFF765FFF7BD4661696CA7
:103760007572652063616C6C696E67206D7174742D
:103770005F636C69656E745F756E73756273637297
:1037800069626500496E76616C6964206172677573
:103790006D656E7420746F20756E737562736372DD
:1037A00069626520284E554C4C292E000146706BED
:1037B000012302AA04F069BB012000902A46214699
:1037C00000203847FEB50500144618BF002C0E46F1
:1037D00011D105F0C3FF050030D00FF668000FF6D9
:1037E0003C0200F072F902940120009040F6681348
:1037F0000020A84722E095F87000302822D1012E41
:103800001ED1202001F0FDFF070017D03E7207F106
:10381000180120680068F8600020786005F16800F1
:1038200006F0D1FA21683A462846FDF719FC50B156
:1038300007F1180006F0B7FA00F006F80120FEBD07
:103840000320FEBD0220FEBD384602F035B92DE949
:10385000F04F5FEA000818BF002985B019D008F1C1
:10386000080081624046FEF798FF90B908F13F04D6
:1038700094F9000003280DD108F108000022C06A65
:10388000FEF77AFB0020207008F10800C06A04F0FF
:10389000D2FB51E208F15805287E202818BF802865
:1038A00003D14046FEF73AFCEEE790280FF2C069DC
:1038B0000FF2B87B1FD108F108004068002804BF50
:1038C000D8F80800002813D0A07888B94046FDF742
:1038D000D7FA10B90120A0700AE005F03FFF844636
:1038E00030B10FF2AC70019040F6C41300F0BEF896
:1038F00030202876C8E73028C6D1D5F81CA011E0C2
:103900000B46024639464046FDF767F948B1504636
:1039100006F049FAB86803224146FCF7D9FEFFF7E2
:1039200093FFB24608F17400824542D0DAF8006095
:10393000286803A9AAF1140705F058FB00F08EF8D7
:103940003D28EED3786802281CD3504606F02BFAA7
:10395000B86802224146FCF7BBFEFFF775FFE12085
:1039600028760020A0704046FEF7ECFAE86908F1DE
:10397000740188421FBF0021A0F114025160006849
:10398000F5D1CEE7B868006802A9FEF775FC029988
:10399000002918BF0028B3D105F0E0FE00288446B6
:1039A000BFD00FF22070019040F6F41300F05EF8E3
:1039B000B7E7E868046808E006F0F5F907F11401D4
:1039C00008F1740006F0FFF9039CE868844291D086
:1039D00020680390A4F10C0602A93068FEF74CFCA5
:1039E00082460298002818BFBAF1000F0CD105F0EA
:1039F000B5FE00288446E7D00FF2FC60019040F647
:103A0000112300F033F8DFE71C2001F0FAFE070075
:103A10000AD105F0A3FE00288446D5D00FF2047029
:103A2000019040F61923ECE700207860BE60404624
:103A3000FCF762FC38825246029B39464046FDF74D
:103A4000CCF800282046B7D006F0ADF90322414655
:103A50003046FCF73DFEFFF7F7FEB5E703983968FF
:103A6000401A4FF47A71B0FBF1F0704701200090DA
:103A70005A4649460020604730B504000D4618BF3D
:103A8000002D83B011D105F069FE04000BD00FF2B8
:103A900000700FF2D06200F018F840F63D230120CC
:103AA00000900020A04701203EBD606E06F074F932
:103AB00038B104F1740006F06FF9401E8041C00F68
:103AC00000E00120287000203EBD0FF2A4410190CB
:103AD00070472DE9F04F04008A4618BFBAF1000F75
:103AE00085B015460FF288480FF2B86900D07DB94D
:103AF00005F034FE0124050009D00FF2D0600190DA
:103B0000009440F65D234A4641460020A84785E0E0
:103B100004F1540604F13407F06A0AF07FFE83468C
:103B200051460FF2C03006F01FF818B929783170ED
:103B3000727808E051460FF2E06006F015F830B9EF
:103B40002A7872703178386804F0E6FA26E0514637
:103B50000FF2D83006F008F810B92868F0601DE0C0
:103B600051460FF2B83005F0FFFF28B92868798A6E
:103B7000884213D0788211E051460FF2943005F05C
:103B8000F3FF68B92868398A88421EBF388297F9DE
:103B90000B0000281CBF2046FEF7D4F900243DE0AE
:103BA00000F0C5F878B9BBF1020F18BFBBF1000FE8
:103BB00009D005F0D3FD040019D00FF26860019020
:103BC00040F6952311E000F0ADF890B9BBF1020F7B
:103BD00018BFBBF1000F0CD005F0C0FD040006D0EB
:103BE0000FF28460019040F69B23FFF713FA012443
:103BF00014E051460FF2483005F0B6FF002876D1A8
:103C0000786868B105F0AAFD040006D00FF298604C
:103C1000019040F6A623FFF7FDF9022460B28BE085
:103C2000286848B905F09AFD0400E0D00FF2B460AE
:103C3000019040F6AC23D8E7A968E868002918BFCE
:103C400000280BD1814209D005F088FD0400CED0B8
:103C50000FF2B460019040F6B323C6E70020039052
:103C6000029004906868706303A829680BF094FAC6
:103C700048B105F073FD0400CFD00FF2CC60019085
:103C800040F6C123C7E7A96881B102A80BF084FA06
:103C900060B1039801F010FF05F060FD0400BCD096
:103CA0000FF2C460019040F6C923B4E7E968A1B1FE
:103CB00004A80BF071FA80B1029808B101F0FCFE83
:103CC000039801F0F9FE05F049FD0400A5D00FF2BC
:103CD000B860019040F6D5239DE72046FCF75DFAD9
:103CE000039830630298B0630498F06356E700F0DD
:103CF0001EF810B100F016F830B9BBF1020F03D076
:103D0000F06A01210AF038FD2046FEF729FB002861
:103D100083D178682A4651460AF08FFA04003FF4AE
:103D20007DAF64E751460FF2D81005F01DBF514634
:103D30000FF2BC1005F018BF05B0BDE8F08F2DE9FB
:103D4000F041064600240F46002E18BF002F84B015
:103D50000FF21C250FF2506800D04BB905F0FEFCA5
:103D6000070062D00FF26860019040F60D3343E027
:103D7000386848B905F0F2FC070056D00FF2A06091
:103D8000019040F6173337E0786800281CBFB86808
:103D9000002809D005F0E2FC070046D00FF2B86019
:103DA000019040F61D3327E0F06905F079FB396892
:103DB00005F0DAFE48B105F0D1FC070035D00FF26E
:103DC0000470019040F6253316E0D6F880000AF022
:103DD00025FD012814D1D6F880000AF0F8FD796895
:103DE00005F0C2FE60B105F0B9FC07001DD00FF26E
:103DF0001470019040F62B3300F01BF8B84714E024
:103E000096F83E0068B105F0A9FC844668B13868B0
:103E1000029040F632330FF22C7000F010F8E047B9
:103E200003E0012086F83E003446204604B0BDE899
:103E3000F081012000904246294600207047019001
:103E400042460120009029460020704710B1002111
:103E500080F83E10704730B583B008B9002414E0F4
:103E6000806905F05CF904000FD105F077FC0500CE
:103E70000BD00FF22C700FF20072FFF726FE40F607
:103E80005833012000900020A84720463EBDF0B5E1
:103E9000060083B00FF2D8040FF2407514D03068DA
:103EA00018B108F03AFD00240BE005F057FC0700BC
:103EB00006D00FF25C70019040F66D33FFF77CFC8A
:103EC0000224FFF7E5F80BE005F048FC060006D0F9
:103ED0000FF25470019040F67533FFF7A3FB0224F4
:103EE0002046FEBD6C6F6774726163650000000060
:103EF0007835303963657274696669636174650029
:103F000078353039707269766174656B6579000057
:103F10006B656570616C697665000000636F6E6E3D
:103F20006563745F74696D656F7574007361735F49
:103F3000746F6B656E5F6C69666574696D650000B2
:103F400070726F78795F646174610000646576698E
:103F50006365732F25732F6D657373616765732FA9
:103F6000646576696365626F756E642F2300000077
:103F7000433A5C53544D3332437562654578706102
:103F80006E73696F6E5F436C6F75645F415A555213
:103F9000455F56312E312E305C4D6964646C657717
:103FA000617265735C54686972645F5061727479A0
:103FB0005C617A7572652D696F742D73646B2D6306
:103FC0005C696F746875625F636C69656E745C735D
:103FD00072635C696F746875627472616E73706F1E
:103FE00072745F6D7174745F636F6D6D6F6E2E634D
:103FF00000000000496F544875625472616E73701E
:104000006F72745F4D5154545F436F6D6D6F6E5F8F
:10401000556E73756273637269626500496F5448C7
:1040200075625472616E73706F72745F4D51545447
:104030005F436F6D6D6F6E5F50726F636573734931
:1040400074656D00496E76616C69642068616E64A8
:104050006C6520706172616D6574657220696F7442
:104060006875625F6974656D3D257000496F5448DD
:1040700075625472616E73706F72745F4D515454F7
:104080005F436F6D6D6F6E5F446F576F726B0000B3
:104090004661696C7572653A2073656E64696E6716
:1040A00020646576696365207477696E206765743E
:1040B0002070726F706572747920636F6D6D616EC0
:1040C000642E00004661696C7572652066726F6DC2
:1040D000206372656174696E67204D6573736167F3
:1040E0006520496F544875624D6573736167655FFC
:1040F00047657444617461004661696C757265203E
:10410000726573756C742066726F6D20496F5448C8
:1041100075624D6573736167655F4765744461746B
:1041200061000000416C6C6F636174696F6E2045C3
:1041300072726F723A204661696C75726520616CAB
:104140006C6F636174696E67204D515454204D65E6
:1041500073736167652044657461696C204C697391
:10416000742E0000496F544875625472616E73700A
:104170006F72745F4D5154545F436F6D6D6F6E5F1E
:1041800047657453656E6453746174757300000001
:10419000696E76616C6964206172756D656E742EEE
:1041A00000000000496F544875625472616E73706C
:1041B0006F72745F4D5154545F436F6D6D6F6E5FDE
:1041C0005365744F7074696F6E000000696E76619C
:1041D0006C696420706172616D6574657220284E2F
:1041E000554C4C292070617373656420746F2049AD
:1041F0006F544875625472616E73706F72745F4D64
:104200005154545F436F6D6D6F6E5F5365744F70A3
:1042100074696F6E2E0000007261776C6F67747244
:104220006163650078353039636572746966696306
:10423000617465207370656369666965642C2062CA
:1042400075742061757468656E7469636174696FF3
:104250006E206D6574686F64206973206E6F7420C2
:104260007835303900000000783530397072697661
:104270006174656B657920737065636966696564EF
:104280002C206275742061757468656E7469636151
:1042900074696F6E206D6574686F64206973206E39
:1042A0006F7420783530390043616E6E6F742073FF
:1042B00065742070726F7879206F7074696F6E20EA
:1042C0006F6E63652074686520756E6465726C79C5
:1042D000696E6720494F2069732063726561746558
:1042E000640000004E554C4C20686F73745F61642D
:1042F000647265737320696E2070726F7879206FB5
:104300007074696F6E7300004F6E6C79206F6E650C
:10431000206F6620757365726E616D6520616E64D5
:104320002070617373776F726420666F7220707291
:104330006F78792073657474696E67732077617321
:10434000204E554C4C00000043616E6E6F7420632C
:104350006F707920485454502070726F78792068BB
:104360006F73746E616D650043616E6E6F74206370
:104370006F707920485454502070726F787920758E
:104380007365726E616D650043616E6E6F7420635C
:104390006F707920485454502070726F7879207073
:1043A000617373776F726400496F54487562547219
:1043B000616E73706F72745F4D5154545F436F6DD3
:1043C0006D6F6E5F526567697374657200000000FF
:1043D000496F544875625472616E73706F72745F86
:1043E0004D5154545F436F6D6D6F6E5F52656769D9
:1043F000737465723A2068616E646C652C20646524
:1044000076696365206F722077616974696E67549D
:104410006F53656E64206973204E554C4C2E00001E
:10442000496F544875625472616E73706F72745F35
:104430004D5154545F436F6D6D6F6E5F5265676988
:10444000737465723A2064657669636549642069AE
:1044500073204E554C4C2E00496F5448756254726F
:10446000616E73706F72745F4D5154545F436F6D22
:104470006D6F6E5F52656769737465723A20426F43
:104480007468206465766963654B657920616E6444
:1044900020646576696365536173546F6B656E2044
:1044A00061726520646566696E65642E204F6E6C6E
:1044B00079206F6E652063616E206265207573657B
:1044C000642E0000496F544875625472616E7370B7
:1044D0006F72745F4D5154545F436F6D6D6F6E5FBB
:1044E00052656769737465723A20646576696365BD
:1044F000496420646F6573206E6F74206D6174630E
:10450000682E0000496F544875625472616E737072
:104510006F72745F4D5154545F436F6D6D6F6E5F7A
:1045200052656769737465723A206465766963657C
:104530004B657920646F6573206E6F74206D6174B4
:1045400063682E005472616E73706F727420616CB8
:10455000726561647920686173206465766963655A
:104560002072656769737465726564206279206979
:10457000643A205B25735D00496F5448756254723C
:10458000616E73706F72745F4D5154545F436F6D01
:104590006D6F6E5F476574486F73746E616D650013
:1045A00043616E6E6F742070726F766964652074FB
:1045B00068652074617267657420686F7374206E1B
:1045C000616D652028535452494E475F636C6F6E8E
:1045D00065206661696C6564292E0000496F544846
:1045E00075625472616E73706F72745F4D51545482
:1045F0005F436F6D6D6F6E5F53656E644D65737372
:10460000616765446973706F736974696F6E0000E8
:104610006D6573736167652068616E646C652069A0
:1046200073204E554C4C00006D6573736167655F78
:1046300064617461206973204E554C4C0000000089
:104640004FF4E07210440268914203D343681A4465
:10465000914202D380680028F5D17047DFF85C07EB
:10466000016891B94FF4803181604FF4805141600D
:104670004FF0FF31C16001610421DFF8442741613F
:10468000C2F8BC11DFF83C1701600120704701F14E
:10469000080313F0070305D001F10803C3F1080371
:1046A00003F007031944D21A8161C26042F001038A
:1046B0004B60114428234B60DFF800170969C16182
:1046C00070472DE9F84F064601F1080010F0070089
:1046D00008BF884607D001F10800C0F1080000F0CB
:1046E000070001EB000802F1080010F0070006D0F7
:1046F00002F10800C0F1080000F00700024415466E
:10470000A5EB0800A0EB030908EB030B43F0030043
:10471000C8F80400AB4528BF0AF08AFD2879C00715
:1047200058BF0AF085FDB9F1100F38BF0AF080FDBF
:10473000B069854209D1F0684844F060C6F818B005
:1047400040F00100CBF8040070E1706985420BD1A4
:10475000B0684844B060C6F814B040F00101CBF82E
:1047600004104BF8000061E1686800F003010129C2
:1047700040F0AF80C008C0000190C00820283BD2A4
:10478000D5F808A0EF680090BD4208BF0AF050FDC0
:10479000554508BF0AF04CFD68680099C008C00084
:1047A000B0EBC10F18BF0AF043FD009806EBC00044
:1047B00000F128018A4508D031698A45C0F084801B
:1047C000DAF80C10A94240F07F80574506D1009AD4
:1047D0003068012191408843306077E0283087427B
:1047E00005D0306987426FD3B868A8426CD1CAF847
:1047F0000C70C7F808A069E0EF68D5F818A0AF42C0
:104800000CD0A8683169884223D3C168A94204BF8B
:10481000B968A9421DD1C760B8601CE005F1140059
:10482000076837B905F110000768A7B101E008462D
:10483000076807F114010A68002A02BF07F1100196
:104840000A68002AF3D13169884202D3002101604D
:1048500001E00AF0EDFCBAF1000F37D0E86906EB91
:1048600080004FF49871084401688D4208D10760B8
:10487000A7B9EA697068012191408843706025E01A
:104880003069824508D3DAF81000A84214BFCAF88C
:104890001470CAF8107001E00AF0CAFCB7B13069B0
:1048A000874211D3C7F818A0296929B1814226BFD0
:1048B00039618F610AF0BCFC686938B1316988429E
:1048C00002D37861876101E00AF0B2FC01980544E7
:1048D000814468684008400068604FEAD90549F0A3
:1048E0000100CBF804004BF80990202D23D206EBF1
:1048F000C50000F12807BA46B9F1100F38BF0AF019
:1049000097FC306820FA05F1C90704D40121A940B9
:104910000843306006E0B868316988422CBF82469F
:104920000AF086FCC7F808B0CAF80CB0CBF808A0AB
:10493000CBF80C707AE05FEA192108BF002023D081
:10494000B1F5803F28BF1F201ED2A1F58070000C5A
:1049500000F008008140A1F58052120C02F0040220
:104960009140A1F580431B0CC0F10E0003F002033F
:10497000801AC01A994000EBD130C11D29FA01F20A
:1049800002F0010101EB400006EB80014FF4987248
:104990001144CBF81C000022CBF81420CBF81020D7
:1049A000726822FA00F3DB0707D4012303FA00F050
:1049B00010437060C1F800B01DE009681F281DBFDA
:1049C0004008C0F1190009FA00F0484600E011461D
:1049D0004A68D208D2004A4514D0C20F01EB8202C5
:1049E00002F1100340001A68002AF0D130698342B6
:1049F0001AD3C3F800B0CBF81810CBF80CB0CBF832
:104A000008B013E032698868914228BF90420BD306
:104A1000C0F80CB0C1F808B0CBF80800CBF80C1007
:104A20000020CBF8180001E00AF002FC08F10800B1
:104A3000BDE8E68F2DE9FA4D0546DFF880030068F2
:104A400082B008B9FFF70AFEDFF8700302998068A8
:104A500041182F31401E21EA00000299814280F066
:104A6000A9814FF4D8716E18B16839B132688018D5
:104A7000824280F09F818142C0F09C810AF0DCFB81
:104A800000281EBF0446D0F8008014F1010F00F08A
:104A900091813068716840448142306038BF01467E
:104AA0007160A86980BB286908B1844200D22C617A
:104AB0000020F0613461C6F8148005F12801BF4878
:104AC000006868624FF0FF3028620020C96089608A
:104AD00001F108024A610A61801C10312028F5D3D7
:104AE000B748854203D1A8F1280221462AE055F8AB
:104AF000040CC00805EBC000A0F1080104EB08009D
:104B0000401AA0F128021DE04FF4E0702918084671
:104B100000E08068D0B1026843681A449442F8D13A
:104B2000027B120712D4AA6903689A420ED347681F
:104B30003B449A420AD208EB07014160E868A96940
:104B400008EB00022846FFF7A2FD1DE12869844218
:104B5000084638BF2C6104EB080100E0806880B192
:104B600002688A42FAD1017B09070AD404604168CD
:104B7000414441602146029B284604B0BDE8F04D07
:104B80009FE5AF6939462846FFF75AFD4FF0000B05
:104B90000168406808440190273810F00701019926
:104BA0000EBF0020C0F1080000F0070008442F38B5
:104BB00007F11001884234BF00970090009804F17B
:104BC000080100F1180A11F00701A8F1280005D02A
:104BD00004F10801C1F1080101F00701401A214464
:104BE000A961E86040F001024A600844282242605E
:104BF00072480069E8610098083010F0070018BF9B
:104C00000AF016FB00991B2048604FF4E07129441C
:104C1000B1E80C5000980830A0E80C503461C6F898
:104C20001480C6F81CB000980830B061019801E00B
:104C30000AF1040A0721CAF804100BF1010B0AF16A
:104C400008018142F4D3BBF1020FB8BF0AF0F0FAB9
:104C50000098B84200F09880C01B3918C4084A6810
:104C6000520852004A6040F0010179603850202C0F
:104C700020D205EBC40101F12806B046102838BF48
:104C80000AF0D6FA286820FA04F1C90704D40121F1
:104C9000A1400843286006E0B068296988422CBF1B
:104CA00080460AF0C5FAB760C8F80C70C7F80880EB
:104CB000FE6069E0010A23D0B1F5803F28BF1F21C3
:104CC0001ED2A1F58072120C02F008029140A1F5EB
:104CD00080531B0C03F004039940A1F58044240C7D
:104CE000C2F10E0204F00204D21A121BA14002EB20
:104CF000D131CA1D20FA02F303F0010202EB410197
:104D000005EB81024FF498731A44F96100237B612B
:104D10003B616B6823FA01F4E40705D40120884065
:104D20001843686017601CE012681F291DBF4908FE
:104D3000C1F1190100FA01F1014600E01A46536879
:104D4000DB08DB00834210D0CB0F02EB830303F1BF
:104D5000100449002368002BF0D12869844211D344
:104D60002760BA61FF60BF600EE0296990688A42DF
:104D700028BF884206D3C7609760B860FA600020F9
:104D8000B86101E00AF054FAE8680299814211D250
:104D9000401AE860A969029A0A44AA6140F0010039
:104DA0005060029840F00300486004B001F1080030
:104DB000BDE8F08D002004B0BDE8F08D04160020A1
:104DC000741100206859883C2DE9F04704460D46CF
:104DD00090466868C10705EB080938D4296810F0C7
:104DE000030F00F03F824842054420698542884411
:104DF000C0F034826269954200F0BC80CE08202E5B
:104E000054D2D5F80CA0AF68554508BF0AF010FA87
:104E1000BD4208BF0AF00CFA6868C008C000B0EBD9
:104E2000C60F18BF0AF004FA04EBC60000F128010F
:104E30008F4205D021698F4235D3F968A94232D11A
:104E4000BA4521D120680121B14088432060206902
:104E50008145C0F00382D9F804108A0700F163810C
:104E6000A269914540F09C80E068A5614044E06003
:104E700040F0010068606069854240F0F3810020E5
:104E80006061A060BDE8F0872830824506D02069C7
:104E9000824508D3DAF80800A84204D1C7F80CA06C
:104EA000CAF80870D3E70AF0C3F9D0E7EF68AE6933
:104EB000AF420BD0A968814222D3C868A84204BF80
:104EC000B868A8421CD1CF60B9601BE005F114019D
:104ED0000F6837B905F110010F689FB101E0114665
:104EE0000F6807F114021368002B02BF07F11002CC
:104EF0001368002BF3D1814202D30020086001E047
:104F00000AF096F9002EA2D0E86904EB80004FF475
:104F10009871084401688D4209D10760380011D1A9
:104F2000EA69606801219140884360608FE72069E9
:104F3000864205D33069A84214BF7761376101E02A
:104F40000AF076F9002F82D020698742ABD3BE6188
:104F5000296929B1814226BF39618F610AF068F958
:104F6000686900283FF473AF216988429BD3786158
:104F700087616CE799F8040000F0030003287FF4D0
:104F800066AFC4F80880D9F8040040084000C9F8AA
:104F9000040048F00100686045F80880BDE8F0872B
:104FA0006269914509D1A06865614044A06040F004
:104FB000010169602850BDE8F087C908C900CE0822
:104FC000202E884439D2D9F80CA0D9F80870D145E0
:104FD00008BF0AF02DF9B94508BF0AF029F9D9F838
:104FE0000400C008C000B0EBC60F18BF0AF020F9DB
:104FF00004EBC60000F128018F4207D021698F42DF
:10500000C0F08380F968494540F07F80BA4505D1FA
:1050100020680121B1408843206078E02830824533
:1050200006D02069824570D3DAF8080048456CD173
:10503000C7F80CA0CAF8087069E0D9F80C70D9F864
:1050400018604F450CD0D9F80810814222D3C868A7
:10505000484504BFB86848451CD1CF60B9601BE023
:1050600009F114010F6837B909F110010F689FB1F8
:1050700001E011460F6807F114021368002B02BF0C
:1050800007F110021368002BF3D1814202D30020F4
:10509000086001E00AF0CCF8002E38D0D9F81C00E6
:1050A00004EB80004FF498710844016889450AD1E7
:1050B0000760380012D1D9F81C20606801219140A6
:1050C0008843606023E02069864205D33069484503
:1050D00014BF7761376101E00AF0AAF8BFB1206917
:1050E000874212D3BE61D9F8101029B1814226BF80
:1050F00039618F610AF09CF8D9F8140038B1216940
:10510000884202D37861876101E00AF091F848F0A3
:105110000100686045F80880606985420CD1C4F8D8
:105120000880BDE8F08748084000C9F8040048F04E
:105130000100686045F808804FEAD807202F23D285
:1051400004EBC70000F128094E46B8F1100F38BF34
:105150000AF06EF8206820FA07F1C90704D401218B
:10516000B9400843206007E0D9F808002169884267
:105170002CBF06460AF05CF8C9F80850F560AE602E
:10518000C5F80C90BDE8F0875FEA182008BF002141
:1051900023D0B0F5803F28BF1F211ED2A0F580711B
:1051A000090C01F008018840A0F58052120C02F0B1
:1051B00004029040A0F580431B0CC1F10E0103F0E6
:1051C0000203891AC91A984001EBD030C11D28FA90
:1051D00001F202F0010101EB400104EB81004FF408
:1051E0009872104400226A612A61E961626822FAB9
:1051F00001F3DB0706D4012303FA01F111436160D7
:1052000005601CE000681F291DBF4908C1F1190194
:1052100008FA01F1414600E010464268D208D20087
:1052200042450FD0CA0F00EB820202F11003490081
:105230001A68002AF0D121698B420FD31D60ED60FE
:10524000AD6011E022698168904228BF914205D388
:10525000CD608560E860A960002005E0BDE8F0470A
:1052600009F0E6BFBDE8F087A861BDE8F0872DE949
:10527000F84F0446002689465FEA1920C9F1000B61
:1052800008BF002123D0B0F5803F28BF1F211ED2C8
:10529000A0F58071090C01F008018840A0F580524A
:1052A000120C02F004029040A0F580431B0CC1F1E7
:1052B0000E0103F00203891AC91A984001EBD0309D
:1052C000C11D29FA01F202F0010101EB400104EBDA
:1052D0008100D0F8300118B31F290FBF4A464A0891
:1052E000C2F1190209FA02F2002300E052004568F7
:1052F000ED08ED00A5EB09055D4503D25FEA050B5E
:1053000006460BD04569D70F00EB8700002D0069DA
:105310001CBF85422B460028E8D11846B8BBC6BB47
:10532000012088404000414208436168084000F085
:105330005D8141420840401E010B01F01001C84050
:10534000420902F00802D040830803F00403D84069
:10535000450805F002055118E8405918C0F3400708
:1053600029443944F840401804EB8000D0F830015B
:105370000DE008464168C908C900A1EB090159457B
:105380003CBF8B46064601690029F2D140690028DE
:10539000F0D1002E00F02A81A068A0EB090083451F
:1053A00080F0248120698642C0F01E817068C008A8
:1053B00009EB0B08C000404518BF09F039FF06EBA8
:1053C0000905AE4280F01081F768D6F818A0B74200
:1053D0000CD0B0682169884223D3C168B14204BFB0
:1053E000B968B1421DD1C760B8601CE006F1140075
:1053F000076837B906F110000768A7B101E0084651
:10540000076807F114010A68002A02BF07F11001BA
:105410000A68002AF3D12169884202D30021016081
:1054200001E009F005FFBAF1000F39D0F06904EB93
:1054300080004FF49871084401688E4209D10760DA
:10544000380014D1F269606801219140884360609E
:1054500026E02069824508D3DAF81000B04214BF74
:10546000CAF81470CAF8107001E009F0E1FEBFB18B
:105470002069874212D3C7F818A0306930B121697A
:10548000884226BF3861876109F0D2FE706938B161
:105490002169884202D37861876101E009F0C8FE82
:1054A000BBF1100F09D248F00300706006EB080052
:1054B000416841F00101416095E049F003007060EE
:1054C0004BF0010068604FEADB0045F80BB0202884
:1054D0001DD204EBC00101F12807216821FA00F276
:1054E000D207BB4605D4012202FA00F0084320602F
:1054F00006E0B868216988422CBF834609F098FE0F
:10550000BD60CBF80C50C5F808B0EF606BE05FEA07
:105510001B2023D0B0F5803F28BF1F201ED2A0F54E
:105520008071090C01F008018840A0F58052120C2E
:1055300002F004029040A0F580431B0CC1F10E0163
:1055400003F00203891AC91A984001EBD030C11D3B
:105550002BFA01F202F0010101EB400004EB8001A3
:105560004FF498721144E86100226A612A6162680E
:1055700022FA00F3DB0706D4012303FA00F01043FC
:1055800060600D601CE009681F281DBF4008C0F165
:1055900019000BFA00F0584600E011464A68D2089C
:1055A000D2005A4510D0C20F01EB820202F1100363
:1055B00040001A68002AF0D12069834211D31D608F
:1055C000A961ED60AD600EE022698868914228BF54
:1055D000904206D3C5608D60A860E9600020A86194
:1055E00001E009F025FE08E109F022FE02E12DE9C3
:1055F000F84F04468846606841420840401E010B4F
:1056000001F01001C840420902F00802D0408308AE
:1056100003F00403D840450805F002055118E8409E
:105620005918C0F3400629447118F040401804EBA3
:105630008000D0F830014168C908C9000646A1EBD6
:10564000080A09E008464168C908C900A1EB080139
:1056500051453CBF8A46064601690029F2D140699E
:105660000028F0D120698642C0F0C2807068C0086E
:1056700008EB0A09C000484518BF09F0D9FD06EB40
:10568000080B5E4580F0B480F768B569B7420CD06E
:10569000B0682169884223D3C168B14204BFB968A8
:1056A000B1421DD1C760B8601CE006F11400076864
:1056B00037B906F110000768A7B101E0084607688E
:1056C00007F114010A68002A02BF07F110010A68F5
:1056D000002AF3D12169884202D30021016001E050
:1056E00009F0A6FD002D35D0F06904EB80004FF4E1
:1056F0009871084401688E4209D10760380011D1C1
:10570000F2696068012191408843606022E020696D
:10571000854205D32869B04214BF6F612F6101E053
:1057200009F086FDB7B12069874211D3BD613069A8
:1057300030B12169884226BF3861876109F078FD60
:10574000706938B12169884202D37861876101E0CC
:1057500009F06EFDBAF1100F09D249F00300706034
:1057600006EB0900416841F0010141603FE048F06B
:10577000030070604AF00100CBF804004BF80AA067
:10578000D4F808804FEAD805202D28BF09F050FD35
:10579000B8F1000F27D0D4F81490009504EBC500A1
:1057A00000F128052F46B8F1100F38BF09F040FD71
:1057B0002068009920FA01F2D10705D4009A01214E
:1057C00091400843206006E0A868216988422CBF08
:1057D000074609F02DFDC5F80890C7F80C90C9F8E8
:1057E0000870C9F80C50C4F808A0C4F814B004E05C
:1057F00009F01EFD0020BDE8F28F06F10800BDE8AB
:10580000F28F2DE9F04F83B00546AFF30080F52D00
:10581000DFF8044B80F002810B2D31BF102705F11A
:105820000B00C708FF002068FE08F04010F0030FCF
:1058300042D0C04300F00100861904EBC60000F11D
:105840002808F700D8F808506868C008C000B842B7
:1058500018BF09F0EDFCD5F80890454508BF09F0E0
:10586000E7FC4D4508BF09F0E3FC6868C008C000CC
:10587000B84218BF09F0DCFCC84505D120680121F9
:10588000B140884320600DE02069814508D3D9F8F4
:105890000C00A84204D1C8F80890C9F80C8001E0B7
:1058A00009F0C6FC47F003006860E8190835416854
:1058B00041F001014160F9E0A168B94280F0C08087
:1058C000002800F0A280012505FA06F149004A42AD
:1058D000B0401143084041420840401E010B01F016
:1058E0001001C840420902F00802D040830803F0CA
:1058F0000403D840460806F002065118F040591833
:10590000C0F340087118414420FA08F000EB010888
:1059100004EBC80000F128094FEAC80AD9F808606A
:105920007068C008C000504518BF09F081FCD6F867
:1059300008B04E4508BF09F07BFC5E4508BF09F082
:1059400077FC7068C008C000504518BF09F070FCB3
:10595000D94505D1206805FA08F1884320600DE09B
:105960002069834508D3DBF80C00B04204D1C9F8A4
:1059700008B0CBF80C9001E009F05AFC47F00300A6
:105980007060AAEB0708F019019048F00100019936
:105990004860019840F80880A7684FEAD70ABAF132
:1059A000200F28BF09F044FC47B3CDF800A004EB5A
:1059B000CA00D4F8149000F1280AD346102F38BF3B
:1059C00009F036FC2068009920FA01F2D10705D4CD
:1059D000009905FA01F10843206007E0DAF80800B1
:1059E000216988422CBF834609F022FCCAF808903E
:1059F000CBF80C90C9F808B0C9F80CA0C4F808801E
:105A000006F108050198606150E06068C0B339464E
:105A10002046FFF7ECFD050012D047E015F1400FDE
:105A200028BF4FF0FF370BD205F10B00C7086068A5
:105A3000FF0028B139462046FFF719FC050035D193
:105A4000A068B8421CD3C11B626910290AD3D019BF
:105A50006061A16041F001034360415047F00300E1
:105A600050600AE00021A160616140F003015160D3
:105A70001044416841F00101416002F1080515E060
:105A8000E06887420DD2C01BA169E060CA19A2611B
:105A900040F00100506001F1080547F00300486044
:105AA00004E039462046FEF7C5FF0546AFF3008007
:105AB000284603B0BDE8F08F00B970472DE9F047E4
:105AC000A0F10804AFF30080DFF84C582869844245
:105AD000C0F07982616801F00302012A00F073824C
